:020000021000EC
:100000006FA02252000000000018011800280128EB
:100010000228032800290129022903290429052986
:10002000062907290829002A012A022A032A042A64
:10003000052AA62A18AD0300861E01006A020020C8
:10004000B40200202602002014020020DC0100205F
:10005000102101003C210100242201002224010082
:10006000C6240100FC1C0100201C0100921C0100A0
:100070004C1C01009A29010000040020E620010028
:1000800078260100D8500300D052030048530300E3
:10009000780A03008C0A0300F2590200724B020036
:1000A000C04A0300AE260100B813030064DE01005D
:1000B000F2DE01004ADF010088320100D432010083
:1000C0003E310100BA9A01007E95010056A401005C
:1000D00026A80100D2AB0100A08701003E870100E5
:1000E000288B0100EC87010014870100988701002C
:1000F000C686010070880100C88801007888010068
:100100007C88010016890100D08801000289010065
:10011000248E01002C8E01006C880100748801007F
:1001200014890100288E0100C48901009A8F010002
:100130001EBA01009CBA0100DABA01001E9D01003E
:10014000369D0100729D0100408101002482010062
:100150008C820100D2500100184C0100467701004A
:10016000964C010072720100CC870300DA84030010
:100170002C8F0300A09F0300709E0300A4A2030025
:100180005CA203009CA203004CA30300E6720300E0
:10019000DCA203006096030086960300AE9603007F
:1001A000BCA303006A9C0300009C03002CA4030072
:1001B00048750300E47503000C760300AE75030078
:1001C000102E030032190300C01C0300161A03008E
:1001D000A4230300604B0300464A03001A73030084
:1001E0008C2B0100B40B0300981303009014030040
:1001F00054420300F4420300A444030022A101007E
:10020000BE2D0300242403005A2A0300C226030043
:10021000E6180300260600207A0C0300C8A203009B
:1002200060A2030098A2030094A20300CE23010061
:10023000709E0100D0A203000A3003005C3103006D
:10024000D63103006A8F0300CCA20300D4A20300BE
:10025000FE4A0200D8A203009A0F00209814002042
:10026000000000000000000000000000000000008E
:10027000000000000000000000000000000000007E
:100280006373B60082801C419105110523AEF5FE13
:10029000C5BFB7270020372700209387879C130707
:1002A000C7F26373F700828023A007009107D5BFD0
:1002B0005DCDAA870145D5CD8D07C207C183F19BCE
:1002C000C207C18313074003636CF702372700207E
:1002D000032587B537270020832607B56397A60235
:1002E00037270020032787BE014541C74111C207B8
:1002F00006C60545DD8D0297B24001454101828069
:1003000037270020032547B5F1B70357650031EFC4
:1003100003574500636BF704B72600203306F74008
:100320002148938606B66378C8028328050003D85F
:100330006600138687001D8F2A9661172312E60038
:10034000232016012313060010C12312F500130702
:1003500088FF2393E6002313B50083D566002105AB
:10036000B387F5402393F6008280084185BF01459D
:100370008280828009CDB727002003A387B5B727E5
:10038000002083A807B581469A8763E3170182801E
:1003900003A807006369F50A6367A80A1387870043
:1003A000E367E5FE03D66700216705076319E600EA
:1003B000372600200347C6A50507230EE6A43726E7
:1003C0000020130506B683D5470003576500239325
:1003D0000700130606B62E97420741832313E50054
:1003E0006387670237250020032545B56301F502C1
:1003F00003D5660009ED83D7460023A00601210737
:10040000BE95A1052392B6002313E600B687984354
:10041000E30F17F7B726002083A646B5E309D7F602
:1004200083566700ADF683D64700835547001843CF
:10043000A106AE962392D70098C383576600A10702
:100440002313F6008280BE86C28781B719CD91CD75
:1004500009CE81473387F500834607003307F5004F
:1004600085072300D700E317F6FE828019C991C9DA
:1004700009CA910583A7C5FF11057D16232EF5FE38
:10048000C5BF828001C919C62A960505A30FB5FE0E
:10049000E31DA6FE828081473307F50003070700AE
:1004A00019E33E8582808507C5BF01112E8626CAC5
:1004B000AA84131506019305F004418122CC06CECF
:1004C00032C6FD332A8401C53246A68541372285CE
:1004D000F2406244D24405618280854715C18DC1D6
:1004E00005C28147B306F5003387F50083C60600D1
:1004F000034707006398E6008507E315F6FE854786
:100500003E8582808147EDBF9307F6FFBE952A9610
:100510006313C5008280FD1583C715000505A30F71
:10052000F5FEFDB7AA87014581CF09CE3E96850726
:1005300003C7F7FF6317B700E39BC7FE054582803B
:10054000828001458280797126D2B724002022D48E
:1005500003A444BB06D64AD04ECE52CC56CA5AC883
:100560005EC662C44DC43729002037CAC901B72905
:100570000020814B372B0020130989BB130AFA375F
:10058000938909B6B70AC0A88357240099EF5C4441
:10059000639A0B0023AAF4BA032CC4002285D93B2A
:1005A000628499A823A6FB00C5BF8327CBBF82978F
:1005B000830669011C4463D806063307F54063626D
:1005C000EA0823A809008355240003450400972066
:1005D00001E0E78020DB5C405844A1CF1444B6978B
:1005E0008306690163C7060063E55701B7064057F4
:1005F000B6971CC4A28B3A8441F8B7270020938792
:1006000007B6984B894663F2E606791798CBB25045
:10061000225492540259F249624AD24A424BB24B96
:10062000224C45618280E37AF5F83387FA402A97B5
:1006300079B763950B0023AAE4BAB9BF23A6EB00F0
:10064000A1BF0327490219CB63DD06003385A7400C
:1006500083A709016374F50023A8A900A28B404475
:1006600061BFE3F5A7FED697D5B723A8070045B726
:1006700001114AC837290020832709B906CE22CCA8
:1006800026CA4EC652C456C25AC081C78297232872
:1006900009B8930709B9DC4337240020130404B9CF
:1006A00091C38297832709B963900718B724002064
:1006B000938704E783C75700938404E7858B8DC332
:1006C00003C77400A3820400914763FBE700EF00B7
:1006D000904783C77400F9178A07A2979C438297B3
:1006E000372A002093070AEB83C7C700130A0AEBD7
:1006F000918B99C3EF1040341C4491C382973724E7
:100700000020B7290020930704B603A709BB03C63E
:100710001700930A04B6834704B693961700BA9657
:1007200083D60600C1CA834704B663EDC708832792
:1007300009B9230004B6EDEB83C7940091CB83C7BE
:10074000740099E7A3840400971003E0E78020BBBE
:10075000B727002083A7C7BFE1CBB707C0A823A84E
:10076000FA00D533B7270020938787BBD8534DCFE6
:1007700083C7570103A70A016368F70A03C7740018
:10078000914763E3E70A8347CA00918BD1EF83C6A1
:100790001A0003A609BB63C3D70A6244F240D244DD
:1007A0004249B249224A924A024B0561172301E0AD
:1007B00067008399850793F7F70F2300F4B6E3ECFE
:1007C000C7F495B786073E978355070023100700A7
:1007D000034504B6B727002083A7C7B81317250021
:1007E000372B0020BA979C4323160BBA8297835766
:1007F000CBBA034704B693C7F7FF7D8D9317170055
:1008000003A709BB3E97835707005D8D2310A70000
:10081000834704B681C785072300F4B6034704B6AF
:1008200083C71A00E375F7F0F2406244D2444249AC
:10083000B249224A924A024B0561828013971700FF
:100840003297035707006DF38507B1B7AD6737C718
:100850000040BD072326F7200F100000B727002017
:10086000938707B6C84F83278726BD66BD0693C703
:10087000F7FF99836A052326D7205D8D8280411179
:10088000B7170040985F3AC6945F3247E39CE6FE94
:10089000324541018280828003278511630007125F
:1008A000411122C406C68347C5008345C5042A8476
:1008B00093F7C70F2306F500834697000356C7003A
:1008C00013958601618563F1C508635A05060345E2
:1008D000870093F6F607A304D700054693E62700A2
:1008E0006314C50093E617002306D4005C43890710
:1008F0005CC3A30AB400032504112E864C430905EA
:10090000B1368327841103465401D44303D7C7006B
:10091000B296118FD4C32396E7008947A30DF40044
:10092000B72700200347440383C7A7BC6378F704B5
:100930008347C40093E707012306F40081A093E7EF
:1009400017002306F40075B79376F60F635D050272
:1009500003458700854513E627006314B50013E6B9
:1009600017002306C400A30AD400A3040700854788
:10097000A30DF400832784119C43DDF3B24022448D
:1009800001454101828093E717002306F400A30A82
:10099000D400A3040700032504114C4309057D344A
:1009A0008327841103465401D44303D7C700B2966A
:1009B000118FD4C32396E7008D475DBF0545828024
:1009C000B727002083A7C7E5411122C406C6858B3F
:1009D0002A84DDEB4165130525F5976002E0E78089
:1009E000005C5DC18347A5002315F5008327041231
:1009F000B5E72320A4122322A41285472310F40470
:100A0000232005008347640154412316F500034762
:100A1000D4002304E5000547A304E50037270020A0
:100A2000032787E81385170215811C437D1513756D
:100A3000F50F9CC25C43DCC21C479CC65C47DCC60D
:100A40001C4B9CCA5C4BDCCA1C4F9CCE5C4FDCCE62
:100A500019CD9386060213070702C1BF83274412EC
:100A600088C3835704042322A412850741BFB727F4
:100A70000020938707D403D7870005072394E70056
:100A8000B2402244410182808347C400230904000C
:100A9000054593C747002306F400DDB7834785016A
:100AA00093F7E70FD5E783479501DDE3034625017B
:100AB0008346C50009CA37270020834545030347FD
:100AC000B7BC63E7E50013F7060141C7014709C654
:100AD000C18A0357851B81C68356C51B369735CB04
:100AE000B727002083D687B8B7470F00938707241E
:100AF000B3C7D7021307C712411126C222C406C6C4
:100B00007D543357F702B727002083C717BDB3843E
:100B1000E700B727002083A6C7DC83A7060963F395
:100B200087003E849442F5FAB727002083A7C7BF09
:100B3000829781476364A400B307A440B240224473
:100B4000B3B7970093C7170092443E854101828056
:100B500081473E858280797126D206D622D44AD03A
:100B60004ECE52CC56CA5AC85EC68347350303449C
:100B70007513AA843E941374F40F9307400263F62E
:100B800087001304B4FD1374F40F03AA841383AA1B
:100B9000C413A38B841222865285D68597A003E0C6
:100BA000E780A0C3058915E503CBD412014981492B
:100BB000337B6403930B50024A865285D68597A0F7
:100BC00003E0E78080C1058915C56391690313744B
:100BD000F90F238B8412B250225492540259F249D5
:100BE000624AD24A424BB24B456182808509E20992
:100BF00093D989410509E31179FDE1BF832785096F
:100C00000356E503797193D60701BD8EC206C182F2
:100C1000358E1357764093575640898B058B5D8FE1
:100C200093573640918B5D8F93571640A18B5D8F04
:100C300093171600C18B5D8F9317360093F7070249
:100C40005D8F931756009355860093F707041E0691
:100C50005D8F1376F60F518F93D7554013D63540DD
:100C6000118A898BD18F13D67540D18F13D6154039
:100C7000218AD18F13961500418AD18F13963500A2
:100C800013760602D18F13965500137606049E053F
:100C9000D18F93F5F50FCD8FA20745465D8F3307B2
:100CA000C70222D42A8426D252CC56CA032A8413DD
:100CB000832AC4135AC806D63697420741839357EE
:100CC0007740135557400989858BC98F1355374095
:100CD0001189C98F135517402189C98F1315170022
:100CE0004189C98F1315370013750502C98F131574
:100CF000570093558700137505041E07C98F137796
:100D0000F70FD98F13D5354013D755401189098B6B
:100D1000498F13D57540498F13D515402189498FC7
:100D2000139515004189498F1395350013750502F8
:100D3000498F13955500137505049E05498F93F54A
:100D4000F50F4D8F2207D98FB387C7024AD04ECEF9
:100D50005EC662C4B697C207C18313D7774013D566
:100D600057400989058B498F13D537401189498F21
:100D700013D517402189498F139517004189498F51
:100D80001395370013750502498F1395570093D5B6
:100D90008700137505049E07498F93F7F70FD98FC6
:100DA00013D5354013D755401189098B498F13D579
:100DB0007540498F13D515402189498F139515002A
:100DC0004189498F1395350013750502498F139595
:100DD0005500137505049E05498F93F5F50F4D8F4A
:100DE0002207D98FB387C702130650025285D685D2
:100DF000B697BD8E93940601C18033F6C402137B6F
:100E0000F60F97A003E0E780409D05890DED83472D
:100E1000D41201498149B3849702130C5002C18056
:100E20004A865285D68597A003E0E780009B058916
:100E3000937BF90F11C563863403850993F9F90F84
:100E40000509E31F89FD230B6413B2502254925409
:100E50000259F249624AD24A424BB24B224C456196
:100E600082805E8BCDB70111B727002022CC03A46E
:100E700087DF26CA4AC84EC606CEAA8413092500B3
:100E8000854915C083C7140003473400858B63046C
:100E9000F700405CFDB71946930544004A85EFF022
:100EA000CFE3E31835FF2285F2406244D244424941
:100EB000B249056182804111B727002022C403A4F2
:100EC00087DF26C24AC006C693042500054901E80B
:100ED0002285B24022449244024941018280A68583
:100EE0001305A40297C002E0E780809EE30225FF7D
:100EF000405CF1BF4111B727002022C403A487DF63
:100F000026C24AC006C693042500054901E8228589
:100F1000B24022449244024941018280A6851305D1
:100F2000A40197C002E0E780A09AE30225FF405C9D
:100F3000F1BF011122CC604126CA4AC84EC652C434
:100F400006CEAA841D4A130965058549BC4463641D
:100F5000F400054581A803C7D40083474400631B00
:100F6000470503C784026304F7000040C5B7034781
:100F7000540083C75405E31AF7FE1946CA851305C2
:100F80006400EFF08FD5E31235FF0347C40083C739
:100F90009402E31CF7FC0357E40083D7A402E31692
:100FA000F7FC0145F2406244D2444249B249224A28
:100FB00005618280E31BF7FA0347540083C7540599
:100FC000E315F7FA1946CA8513056400EFF0EFD070
:100FD000E31D35F9F9B70111B727002022CC03A48E
:100FE00007DF26CA06CE2AC42EC6854419E4014569
:100FF000F2406244D24405618280834791000347F6
:101000001400858B6304F7000044CDB7194693059F
:10101000A10013052400EFF04FCCE31795FE054522
:10102000C1BF011122CC372400200327C4E82AC6FF
:101030002EC432C206CE3C4B93F7F7F73CCB970059
:1010400003E0E78000290327C4E8B72600203C4BD3
:1010500093E707083CCB83A746E63245A24523A089
:10106000070003471500034825002207420842975E
:10107000034805004297034835006208429798D715
:10108000034755000348650022074208429703487A
:10109000450042970348750062084297D8D7034736
:1010A00095000348A500220742084297034885009F
:1010B00042970348B5006208429798DB0347D50082
:1010C0000348E5002207420842970348C50003454C
:1010D000F500429762052A97D8DB03C7150003C5C0
:1010E0002500220742052A9703C505002A9703C554
:1010F000350062052A9798CF03C7550003C56500E0
:10110000220742052A9703C545002A9703C57500A3
:1011100062052A97D8CF03C7950003C5A50022070B
:1011200042052A9703C585002A9703C5B5006205C5
:101130002A9798D303C7D50003C5E50022074205C7
:101140002A9703C5C50083C5F5002A97E2052E97A7
:10115000D8D3D843759BD8C3D84313671700D8C3D7
:1011600098431367170098C3124603A746E65C43EB
:10117000858BD1EB1C4F01452300F60083A746E683
:101180009C4FA183A300F60083A746E69C4FC18332
:101190002301F60083A746E69C4FE183A301F600F6
:1011A00083A746E6D84F2302E600D84F2183A30247
:1011B000E600D84F41832303E600D84F6183A303A1
:1011C000E60098532304E60098532183A304E60025
:1011D000985341832305E60098536183A305E600F5
:1011E000D8532306E600D8532183A306E600D8533C
:1011F00041832307E600DC53E183A307F600F240B6
:1012000062440561828001008DB75D7136D4B726D6
:1012100000203AD203A786E63ED04ACA1C5F4EC8D9
:1012200086C6998396C49AC29EC022DE26DC2ADA3C
:101230002ED832D642CE46CC72C676C47AC27EC092
:10124000858BB68937290020ADCF1C5F372400205D
:10125000930404E793F7F7F91CDF930704E783C7C8
:101260006700130700086319F700832749E69C43CA
:1012700093F707042383F400834704E793F70704F5
:1012800089CFB727002083A7C7BF829788C8834725
:1012900004E793F7F70B2308F4E683C7440093F7BA
:1012A000070485E38547A382F400B727002083A7BE
:1012B000C7E8096798C7130700FC2382E400D844F5
:1012C000F8D383A789E6985F1183058B19CB985FC4
:1012D00085463D9B98DF37270020130707E7230249
:1012E000D700985F1D83058B01CF985F1377F7F7C1
:1012F00098DFB7270020938707E705472382E70099
:10130000832749E6D8430583058B19C7D843759BC6
:10131000D8C3D843799BD8C37254B640A64216436B
:101320008643E2545255C2553256A256125782573E
:101330007248E2485249C249324EA24E124F824F81
:10134000616173002030B7270020B726002003A674
:10135000C7E8938706E703C706E7058B11C7238213
:101360000700A3820700828003C71700058B65FB77
:10137000785275F303C75700EDB7372800200327CD
:1013800088E61C5F9583858BD1E709C61C5BBD830E
:101390002300F60085CA832788E6985B46079357A3
:1013A00067016356070093E707C0C207C18303972D
:1013B0000600C207C18709C7BA970947B3C7E70242
:1013C0002390F60037270020130707E795C98347C6
:1013D00015009DC7034667009386970089471376DB
:1013E00006041DC63695834605000546994793F5C4
:1013F000F606639FC500E206E186B94763CA0600A8
:10140000832788E69C5FED838D8BA305F7008147DA
:101410003E8582808547EDBF411122C406C6372430
:10142000002026C20327C4E859E5AE877453FDFEA9
:10143000B7240020938404E73E85B285238104000D
:10144000970003E0E780E0C6B727002083A787E680
:10145000B70680009843558F98C3D857719BD8D74B
:101460008327C4E8A3820400A3800400094798C32B
:10147000B7F700E003A707D16D9B23A8E7D003A728
:1014800007D15D9B23A8E7D0730050108326C4E8E2
:10149000B7270020938707E703C72700058B19E7C5
:1014A00003C73700058B59C723820700B240224487
:1014B0009244410182808D47631FF500B7270020C9
:1014C00083A787E6B70680009843558F98C3D857FF
:1014D000719BD8D765BF8547E31AF5FAB567BD0795
:1014E0005CC70F1000008327C4E80967930600F863
:1014F00098C737270020130707E72302D7003727AD
:101500000020832687E60946984231830D8B6319B4
:10151000C7001307E043F8D33D673D07D8C7BDB701
:10152000984231830D8B01E713076019EDB713075C
:10153000E01BD5B7F8522DF395BF5D7152DC372A09
:10154000002003278AE686C6A2C4A6C2CAC04EDE11
:101550001C43B72900203729002093F7F7E793E7CA
:1015600007081CC383A689ED3707CEFF7D179C466D
:10157000130680022A84F98F9CC68327C9E81307C3
:1015800000082800B8CBAE8493051008EFE09FEF69
:10159000970003E0E780E0D3970003E0E780C0DF37
:1015A00083278AE69376F41F370FFCFF23A40700F6
:1015B000984B4E88CA881367F70398CBF84F1305EA
:1015C00010F8D285137707E0558FF8CF9843F5765A
:1015D000FD16758F98C39843B7063300B702040011
:1015E0001377F7E798C398439303401F7D1F137742
:1015F000F7E71367071098C303A789ED930F8002DD
:1016000085491C47D58F1CC78327C9E81307900D50
:101610003400B8CB11490147135337002693834751
:10162000030013767700B3D7C740858BE1C383A748
:1016300085E6832E88ED239C07042390070603AEDE
:10164000CE02137EDEFF23A6CE0383AE0700137EF9
:10165000F70793FE0EF833EECE0123A0C70103AEC9
:101660004702336E5E0023A2C70383AEC8E8014E73
:1016700023A27E0603DA070663074E0303AE0703C1
:10168000038A0600135EFE00620E135E8E416358ED
:10169000CA0103AE0703135EFE002380C60103DE0A
:1016A0000706137EFE0F03AA4E0663060A0003DA3E
:1016B0008705E37F49FB03AE4702337EEE0123A299
:1016C000C70383870600635CF400034E0300339670
:1016D000C9001346F6FF3376C6012300C3003E86D9
:1016E00063D3A7002A861315860161850507137742
:1016F000F70F8506E312F7F3B640264496440649F1
:10170000F259625A61618280011132CA3726002083
:101710003EC48327C6E83AC636C8D8472ACE2ECC60
:101720009316170163D2060298479316170163DDDB
:1017300006007D57B8D737270020130707B6544F48
:10174000850654CF116798C798470D83058B0DC345
:1017500037270020130707E78346270093E6160084
:101760002301D700930600F82302D700214798C72A
:101770009847058B09CF37270020130707E78346D3
:10178000170093E61600A300D700054798C79847AF
:101790000983058B09E798470583058B21CF94477B
:1017A00037270020372500208982858A6388061024
:1017B000832685E69442B1828D8AF5EEAC4B930682
:1017C00007E7944E93F5050283C61600DDCDEDE2E2
:1017D00093067006D4CF834607E793E616002308E6
:1017E000D7E6114798C7032785E65C57F19B93E737
:1017F00017005CD70327C6E81C479396370163D4CC
:101800000602B7270020938607D403C606079387EE
:1018100007D4418A55CE83C7060793E7070223887A
:10182000F60685671CC71C479396270163D10602FD
:10183000B7270020938707E783C64700E206E186C3
:1018400063D5060085462382D70089671CC71C47DD
:101850009396070163D20602B7270020938707D427
:1018600083C61707858AC9C683C6170793E626006D
:10187000A388D706A1671CC77245E2455246C246F7
:101880003247A247056173002030B9D28545639580
:10189000B6009306B0063DBF89456395B600930632
:1018A000F0060DBF8D456395B600930630071DB752
:1018B0009306500705B79306600729BF130707E78C
:1018C0008346370093E61600A301D700094719BFE6
:1018D00083C607070946BD8A6388C60083C6070713
:1018E0000D46BD8AE39FC6F291462388D70615BFF1
:1018F00083C61707918ABDDE83C6170793E6860065
:1019000085BFB726002037270020938706EB1306F4
:1019100007E90346B60183C7D700938606EB130792
:1019200007E9B29793F7F70F7D466361F604A300CA
:10193000F70083471700484B05463316F600A38689
:10194000F600698E05EE03C61601130800028146F3
:1019500033F6C7028147B355F500858993F8F70F31
:1019600099C96317D600A300170182808117C1B7F8
:10197000850693F6F60F8507E39F07FD8280B7275C
:10198000002083A7C7BF011122CC26CA52C406CEAD
:101990004AC84EC656C25AC08297B72400209387C1
:1019A00004EB8047014A6306A406B727002013878B
:1019B00087BB03076701938404EB138987BB6355D7
:1019C0000706018D37270020930707E983C7A70182
:1019D00013545500137AF501930907E96368F4027B
:1019E000B70AC0A8370B4057293F83C6A9019C44BA
:1019F000139756003E9783076901158C63C507004E
:101A0000636357015A9798C4E370D4FE1604336A8F
:101A10004401F24062445285D2444249B249224ACA
:101A2000924A024B05618280E37D85F8B707C0A822
:101A300033848740229579B7B727002083A7C7BF93
:101A4000411122C44AC006C626C282973729002007
:101A5000930709EB80476308A406B7270020838714
:101A6000E7BC130909EB63D80704018DB7240020F4
:101A7000938704E983C7A70113545500938404E9AD
:101A80006363F404BD3D83C7A401032789009396D3
:101A9000570036971D8C2324E900E375F4FE224499
:101AA00003C51400B2409244024981454101170325
:101AB00003E0670043DEE37A85FAB707C0A8338402
:101AC0008740229565B7B2402244924402494101C1
:101AD0008280B727002003A787EDB75702009387BE
:101AE000079F83260709139656006358060083262E
:101AF00007091396660063440600FD17FDF3828014
:101B0000B72700203727002083A787B5032707B50D
:101B100001456313F700828083D6670081E683D690
:101B2000470036959C43F5B7B727002083A587BBB0
:101B300037270020938787BB13860522232CC7B441
:101B400003D74700938785FFB72600204111BA9736
:101B5000056523A8F6B406C61D05935637006374C1
:101B6000E500930600203307D60037250020232AFE
:101B7000E5B423A0E522E1162312D60023130600C4
:101B80001CC3998FE1172312F700231307008D3F21
:101B9000B240B72700202393A7B641018280B72720
:101BA00000203727002083A787B5832607B5014586
:101BB0006393F600828003D7670011E703D74700DD
:101BC0006373E5003A859C43E5B7B7270020B72645
:101BD000002083A787B503A606B52A87B305B540BD
:101BE0006314F6003A8529A8938687009C43E3692D
:101BF000D7FEE377F7FE2E85E3E4D5FEE3F2F5FEAC
:101C0000828023AC05FE1C4191E7010001000CC15C
:101C10008280BA8703A787FF6DFF23ACB7FE82805F
:101C20001DC18346E5FF1307F00F9147639EE60051
:101C3000411106C697E0FE1FE780004DB240814784
:101C40003E854101828095473E85828001E90145BC
:101C500082800145B2402244410182809565411154
:101C6000938505D022C4C98D2A842105C205420569
:101C7000C181418106C697E0FE1FE780A03C71D973
:101C8000FD5723200500231285002303F5002105BD
:101C9000D1B7411126C2B724002083A7C4B522C4FE
:101CA0004AC006C60144014989E7A1659D2F15C4B4
:101CB00001A803C7E7FF6319A70205CCA16589291D
:101CC00003A7C4B5832784FF6317E40223AEF4B4EB
:101CD000FD57232C04FE230FF4FE2285B24022443C
:101CE000924402494101828011E03E8983A787FF27
:101CF00065BF3E84E5BF232CF9FED9BFB1CDB72720
:101D0000002083C717B6411122C406C62A842E8537
:101D10006375F400894763E8870019370D45B240C1
:101D200022444101828083A785FF99E703C7E5FF2D
:101D30009307F00F6305F700E5351545CDB7372557
:101D40000020238F85FE1305C5B5653D22852244FD
:101D5000B240A16541016DAE15458280B7270020D4
:101D600023AE07B48280B727002083A747BB99E33F
:101D70003E85828003D727006316B70003C707009C
:101D8000E308A7FEDC47E5B7BDCD797122D406D6BE
:101D900026D24AD04ECE01444147B3D78540858BE9
:101DA000B1CF1205314722953305E502B727002050
:101DB00003A947BF8544B3948400C204C180BE898F
:101DC0002A990327090011C7032549002EC6029747
:101DD000B24531473304E40283A749BF3E941C4413
:101DE00089E72320090023220900B2502254A58D3F
:101DF00002599254F2492E85456182800504E31E02
:101E0000E4F88144DDB72E858280411113970501E6
:101E100022C406C626C24AC041872E84635E0700DC
:101E20008D3D11C1F53BA1673D8C2285B240224416
:101E30009244024941018280EDD9AA870147414677
:101E4000B356E440858A9DCA9207BA97B146B387D4
:101E5000D702B726002003A946BF8544B394E40007
:101E6000C204C1803E998327090003254900829757
:101E70002320090023220900258C45BF0507E31113
:101E8000C7FC8144D5BFB727002083A787BD411178
:101E900022C406C6372400201304049991C78297F0
:101EA0001C403E9508C031A0B727002083A7C7BFBC
:101EB000FDF70840B74703009387D73F3305F50286
:101EC000B7A72600938737ECB2403E9508C022445E
:101ED000410182800111680006CE22CC26CAEF3073
:101EE000B118FD57630BF50C37240020930684BB13
:101EF00083C756013247130484BB63F5E70AB7244E
:101F00000020938404B698483706C0A8630BC70224
:101F1000B727002083A7C7BF829732479C486373C7
:101F2000F700BA8703475401998F3E9583076401F0
:101F300063CE0700B707C0A8636AF500B70740572C
:101F40009DA88386660163D406061D8D3724002074
:101F5000930704E79C4F130404E799CBB7270020AD
:101F600083A687ED3707CDFF7D179C46F98F9CC66A
:101F700019E13705C0A8B727002083A7C7BD8297FE
:101F800019E51C4C85C3EFF08164EFE0D1431C4C94
:101F900091CBB727002003A787EDB70633001C4776
:101FA000D58F1CC7F2406244D24405618280E37E33
:101FB000F5F8B307F7403E9551BF372400201304CE
:101FC00004B61C48B704C0A8E38E97FCB7270020CE
:101FD00083A7C7BF829737270020130787BB834695
:101FE00057011C48958F3E9583076701E3C007F6AC
:101FF000E36E95F4A1B76DC53748F6A6130808C877
:1020000089476360C80E7971B727002022D45AC867
:1020100003A847BF3E8B06D626D24AD04ECE52CC1E
:1020200056CA5EC662C40144B148C147B30B14032B
:10203000137CF40F3303780103230300631D0308AB
:10204000AE8AC165AA84938505F041453A8AB6896E
:10205000328997E0FE1FE780E0FE05E9B727002000
:1020600083A787BE99EF8147B250225492540259F8
:10207000F249624AD24A424BB24B224C3E854561FC
:102080008280814511458297F9BFB726002003A7BA
:1020900046BB15EF23AAA6BA2300050083274BBF32
:1020A0000547331487002326050023242501231127
:1020B000850023224501DE9784C323A2570123A470
:1020C0004701E38209FA2380890171BF36875447AB
:1020D000F5FE48C7D1B70504E31AF4F4A14769B780
:1020E00089473E858280B727002083A787BF41119B
:1020F00022C406C637240020130404B689C7829779
:102100005C483E9548C84848B2402244410182801C
:10211000B727002083C717B66370F5023727002062
:1021200093171500032507BB3E9583570500DD8DEA
:102130002310B500014582800D458280B72700201D
:1021400083C717B66372F50237270020931715006F
:10215000032507BB93C5F5FF3E9583570500FD8D0D
:102160002310B500014582800D4582809307F0025F
:1021700063E7A70AB146B306D502B727002003A735
:1021800047BF89473697184341CF011122CC4EC62D
:102190000544935945003D893315A40013140501E6
:1021A000418026CA4E85AE84A2854AC806CE653EC9
:1021B0002A89814729CDA2854E854937B727002036
:1021C00083A7C7BF8297B727002083D787B82A8401
:1021D00013060064338797028146B3B7970213054D
:1021E0000732B335E500BE95EF80623DB72700208A
:1021F0008387E7BC229563C90700B707C0A863655A
:10220000F500B70740573E952324A9008147F240C7
:102210006244D2444249B2493E8505618280894781
:102220003E85828001114EC6B7290020938909B6E8
:1022300083C7190006CE22CC26CA4AC852C4636B93
:10224000F5000145F2406244D2444249B249224A73
:1022500005618280B727002083A4C7BFFDD02E8AE6
:1022600083D589022A843289B387C5028146B3B5F2
:10227000C50213850732B337F50013060064BE9517
:10228000EF80E233B747F6A6938707C8E3EBA7FAD8
:10229000829483D58902AA8413060064B387250338
:1022A0008146B3B5250313850732B337F500BE95D4
:1022B000EF80E230B7270020138787BB0307670151
:1022C000AA94138987BB63490700B707C0A863E5D1
:1022D000F400B7074057BE94D2852285693401C502
:1022E00004C5054585B7936504F0C205C181414524
:1022F00097E0FE1FE78000D501E983270903B1D3EA
:10230000A2851145829735BF37270020832747BB19
:102310008DE3232AA7BA85472326050004C5231188
:10232000450123008500A300F5002322050055BFC9
:10233000BA87D84775FFC8C7F9BF41C9797122D498
:1023400026D24AD04ECE52CC56CA5AC85EC662C4B5
:1023500006D6B689B28A2E8A2A899304000C414493
:10236000372B0020054C930B000383274BBFA69708
:102370009C43A1E79375F400B315BC00C2055686D3
:10238000C18113554400793D0DC983274BBF0145D9
:10239000BE9423A0240123A2440163840900238066
:1023A0008900B250225492540259F249624AD24AE8
:1023B000424BB24B224C4561828005041374F40FEA
:1023C000B104E31474FB2145E9BF09458280411142
:1023D00022C426C24AC006C62A842E89B2849935F0
:1023E000CA852285493205CDB727002083D587B815
:1023F0002A8413060064B38795028146B3B595021B
:1024000013850732B337F500BE95EF80421B48C0F5
:102410000145B24022449244024941018280214553
:10242000CDBF411122C426C24AC006C62A892E84C5
:102430001D3AAA8419C123110500A2854A85FD39D8
:10244000B727002083C707B663992701B727002065
:1024500003D7C7BA598C239687BA014591E019452D
:10246000B240224492440249410182809307F00223
:1024700063E8A7044111B14722C43304F50226C220
:10248000B724002083A744BF06C6A2979843894774
:1024900015C39377F5008545B395F500C205C18155
:1024A0001181413783A744BFA29723A0070023A22D
:1024B00007008147B240224492443E854101828018
:1024C00089473E858280411106C622C4693811E5DC
:1024D0000145B240224441018280B727002083A7F2
:1024E000C7BF00458297B72700208387E7BC63D822
:1024F0000702B747F6A63305A4409387F7C7E3E979
:10250000A7FC93070064B335F50237270020035674
:1025100087B881463305F502EF80620A5DBFE37A32
:10252000A4FCB707C0A83E94E9B74111B727002023
:1025300006C623ACA7BE0295B240B727002023AC45
:10254000A7B6014541018280994763E9B700B727E3
:1025500000208A05938707B9BE9588C18280B72776
:10256000002023AA07BA37250020B72700204111F1
:1025700023AC07BE7146B72700208145130505B976
:1025800006C623AE07BE22C426C23724002097E029
:10259000FE1FE78060C8130504B61306C00281451C
:1025A00097E0FE1FE78040C7EFF00FD8B727002065
:1025B00083C7F7BC130404B6854513D527008D8B5C
:1025C0003E958D473305F5029947B724002039051C
:1025D0001375F50F2301A4003305F5021305052437
:1025E00097E0FE1FE78000A623AAA4BE49C10346C8
:1025F0002400994781453306F6021306062497E026
:10260000FE1FE78060C183A744BF03472400B724AF
:102610000020938707240A0723A6F4B8BA97372720
:1026200000202328F7BAEFF06FF30D218347140041
:1026300083A6C4B8372601001397270036971306E0
:1026400086D810C3138717001377F70F0A073726AA
:10265000010036971306A6E010C3138737008907D9
:1026600093F7F70F8A07A300E400B69790C3B24030
:10267000224492444101828037270020130707B685
:10268000834717008346270063F0D702B726002050
:1026900083A6C6B813861700A300C70013972700A8
:1026A000369708C33E8582809307F00FE5BF1C4133
:1026B000638B071041777D8FB7060020894763152C
:1026C000D7100357450063010710411126C2194670
:1026D000AA849305F00F690506C622C497E0FE1F81
:1026E000E78080BD05478D476309E50C9C4491C791
:1026F000D858994779C3985C69C3372400201306DA
:10270000C0038145130584BB97E0FE1FE780C0B07E
:102710001306C003A685130584BB97E0FE1FE78060
:1027200020AC930784BB03D7C70009E71307001049
:102730002396E70003C7E70001E705472387E70083
:1027400003D7070101E76D472398E70003C7F700A8
:1027500001E71547A387E70003C7270101E70547FE
:102760002389E70003C7370109E703C7F700A389F7
:10277000E70003C7470101E73547238AE70003C79E
:10278000970109E713078002A38CE70003C75701ED
:1027900009E71307D002A38AE70003C7840109E70A
:1027A0001307C003238CE7009C5791C78297B72774
:1027B00000202394A7B665338147B2402244924457
:1027C0003E854101828089473E858280B72700206F
:1027D00083A7C7BF011106CE22CC26CA4AC84EC65F
:1027E000829793070064B335F5023729002013045C
:1027F00009B68359840281464E863305F502EF708F
:10280000125C004CAA84014563049402130909B6C2
:1028100033858440636C94004E868146370500B052
:102820009305E041EF70B259018D2695232C990054
:10283000F2406244D2444249B249056182800111AA
:1028400022CC2E84B7B503000A8541469385C5A0E6
:1028500006CEEF804210180806043A94B7270020ED
:10286000035504FF83D7A7B8F2406244AA973745BF
:102870000F00130505243355F50205618280B72743
:10288000002083D7A7B851471D45637CF7027947DD
:1028900019456378F7021307200315456373F702A0
:1028A0001307B0041145637EF700130740060D457A
:1028B0006379F7001307600909456374F70013B5DE
:1028C000B70F8280011122CC06CE2A842EC6EFF0EB
:1028D0008FDBB245F240818D33A5A502229562447B
:1028E0001375F50F05618280011122CC06CE2A8472
:1028F0002EC6EFF04FD9B245F240818D33A5A50227
:10290000229562444205418105618280011122CCF9
:1029100006CE2A842EC6EFF00FD7B245F240818D45
:1029200033B5A5022295624405618280B727002055
:10293000138787BB18572DC3411122C426C24AC032
:1029400006C6138987BB0297B7270020138707B6EF
:10295000035787002A84938407B60DCBBA87637325
:10296000A700AA87C207C183BA866373E400A28660
:10297000C206C182958F5147635AF7008327C90267
:1029800091C38297EFE0D13023948400B240224477
:1029900092440249410182808280B7270020138738
:1029A00087BB5857011122CC06CE138487BB01C7C1
:1029B0002AC602973245B7270020938707B63727E4
:1029C000002015C1B7863200938626A194D7232E06
:1029D000A7BE372501001305C57C813EF240624445
:1029E00001450561828083466401139686016186F4
:1029F00063550602B7863200938626A123AE0700F0
:102A000094D7B7C70040FD5623A4D726B7070020A8
:102A10009387C75D232EF7BE6DBF13F6160019CA44
:102A2000B7862003938606D094D7B70700209387F4
:102A3000E760CDB761762394C70291C69306003252
:102A40002395D702DDB793062003DDBF011122CC09
:102A500037240020930784BB884706CE26CA4AC87D
:102A600001E90545F2406244D24442490561828051
:102A7000130484BB5C58F5D7185C65D77000854596
:102A800082971844B247E30EF7FC0355C400930540
:102A9000E004B724002097D0FE1FE780A05A1387D8
:102AA00004B608D3938404B64DDD0356C4009305E1
:102AB000F00F014997D0FE1FE78000768347E400BE
:102AC0009050634DF900328597D0FE1FE780C063B8
:102AD000014523A0040223A2040269B78355C40060
:102AE0000844185CB3872503898105093E9508C20F
:102AF0000297E9B7411122C437240020930784BB11
:102B00009C4726C206C6B72400204AC0938404B658
:102B100091EB88503DE1B240224492440249014584
:102B200041018280130484BB1C5CE5D79C5091EB6F
:102B30000355C4009305E00497D0FE1FE780805042
:102B400088D0885079D50356C4009305F00F014909
:102B500097D0FE1FE780406C8347E4009050E35A13
:102B6000F9FA8355C4001C4433852503898105097E
:102B70003E951C5C08C28297C5B797D0FE1FE780C0
:102B8000A05823A0040223A2040271B701114EC66B
:102B9000B7290020938789BB9C4726CA4AC852C4DC
:102BA00006CE22CC56C25AC02A8AAE843289638CA1
:102BB000071E938989BB03A74903630207127D4758
:102BC0006361A71237240020130704B6832A070283
:102BD000130404B6639A0A0803D5C9009565938562
:102BE00015E097D0FE1FE780E04508D02A8665C92A
:102BF00083D5C90083A7490303A5890089818297EA
:102C000083A78900832A04025CD089476316FA08E7
:102C1000C1476396F40C83D5C9009147938505FCA1
:102C2000B3C5F5028A05D69503C705009307A0052D
:102C30006313F70A83C71500639F47094A852686F1
:102C4000910597D0FE1FE780A0591C5056856393CD
:102C500057130145F2406244D2444249B249224AE4
:102C6000924A024B056182805850E380E7FA03D50F
:102C7000C9009565938525E097D0FE1FE780803CCD
:102C8000AA8A31CD83D5C9002A8683A7490303A523
:102C900089008981829795BF8D47631BFA00C147E0
:102CA000639FF40283D5C900938545FDF199A5BFC3
:102CB00091476318FA006394440383D5C900A115B2
:102CC000F5B7C147631DFA00A14763EA970083D5B2
:102CD000C900C115E1BF1C5056856391570D2945A8
:102CE00095BF1307F006636CA708930A05FE194702
:102CF000B3CAEA0203D7C900372B0020B38AEA021D
:102D0000BE9A93070BB6DC53130B0BB663955701B2
:102D100003240B021DE003D5C9009305E00497D0FE
:102D2000FE1FE78020322A845DD983D5C90083A79E
:102D300049032A8689815685829791451307A00504
:102D4000898193972500A29783C607006393E604C1
:102D500083C61700639C460385058A052686A295CF
:102D60004A8597D0FE1FE780A04783270B02E382A6
:102D700087EE228597D0FE1FE7800039D9BD130763
:102D8000E007E36EA7F4930A05F9ADB783D52700F2
:102D900045BF83270B02E38487F4228597D0FE1F6B
:102DA000E78080362DBFB727002083A507B885D9D7
:102DB00091479306A0058983139727002E97034612
:102DC0000700E31ED6F003461700631C4601850783
:102DD0008A072686BE954A8597D0FE1FE780404029
:102DE0008DBD83572700C1BFB7270020938787BBBE
:102DF000984729C3985F1DCF8546631DD5024111B1
:102E000022C437240020130404B6105006C619CE7D
:102E100083D5C700485089810297085097D0FE1F7C
:102E2000E780802E2320040223220402B2402244A1
:102E3000410182808280011122CC37240020930737
:102E400084BB56C283AA870026CA4AC84EC606CE8D
:102E500052C42A89AE84B289130484BB638B0A1CD2
:102E60001C5C99EB2945F2406244D2444249B24984
:102E7000224A924A056182805C58EDD7FD4763E79C
:102E8000A70C372A002093070AB69C53130A0AB6E8
:102E9000B9C7084483274A02639FA7048947631779
:102EA000F906C147E390F4FC0355C40091471305AC
:102EB00005FC3345F5029317250003250A022686F3
:102EC000CE853E959307A0052300F500A3002501BC
:102ED000110597D0FE1FE780A030014569B7035563
:102EE000C4009305E00497D0FE1FE780A0152320BF
:102EF000AA0245F185BF8355C4005C5803260A0227
:102F0000898182971C442322FA0249BF8D47631CA2
:102F1000F900C147E398F4F40355C400130545FDD7
:102F20009377C5FF59BF91476318F900E39C24F3D9
:102F30000355C4002115EDB7C147E315F9F2A147C8
:102F4000E3E297F20355C4004115D9BF9307F00699
:102F500063E9A706930705FE1947B3C7E7020357BE
:102F6000C400372A0020B387E702BE9A93070AB647
:102F70009C53130A0AB6A9CF83274A0263965707C0
:102F800003250A0291461308A005FD5593D7260094
:102F9000C207C183139727002A97034607006314CB
:102FA00006078348170003562700639C2805B306CD
:102FB000D64063C6960485078A072686CE853E9549
:102FC00009BF9307E007E3EFA7E8930705F941BFBF
:102FD0000355C4009305E00497D0FE1FE7808006E8
:102FE0002320AA0251F9BDBD8355C4005C580326B5
:102FF0000A0289815685829723225A0351B7A3007A
:10300000B700B28661B70356C400B3859600910538
:10301000130606FCE3F8C5E4138634001376C60FE6
:103020001106B29623000701A30027012311D70040
:1030300059B7372A002093070AB69C53130A0AB6D9
:10304000A1C303250A0291461308A005FD5593D795
:103050002600C207C183139727002A97034607005B
:10306000631206058348170003562700639828015A
:10307000B306D640E3D196F4A300B700B286C1BF31
:103080000345E4008357C4009305E0043305F502CB
:103090004205418197D0FE1FE780C0FA2320AA0293
:1030A0004DF1C9B30356C4008345E400B385C5029E
:1030B000338696001106E3E7C5DAB9BF0145828081
:1030C00083C705002300F50083D72500A300F50082
:1030D00083D72500A1832301F50083C74500A30101
:1030E000F50011458280B727002023A6079CB7274B
:1030F000002023A4079C828029C1411126C206C654
:1031000022C4AA8401458DC52E84B7B5030022854B
:1031100041469385C5A197D0FE1FE780600C83C709
:10312000040005452306F40083C71400A306F40039
:10313000B2402244924441018280014582800111C3
:1031400022CC26CA06CE0947AA8432846381E504CC
:1031500041468147639BC500638FE6006397B600D5
:103160000DA841478147638EE600F2406244D24495
:103170003E85056182808A852285BD3F41468A85DC
:1031800019A88A85953F41468A85228531A0E39A10
:10319000B6FC2E86A285268597D0FE1FE780200DDF
:1031A000AA87E1B7B727002023A4A79C8280B7276E
:1031B000002023A6A79C8280011122CC0354650025
:1031C00006CE26CA4AC84EC641C083298500AE84B1
:1031D0002A8803C90900814713178901618763554C
:1031E0000702B147054563FA8704511442040355A9
:1031F0002800418033878900A2864E868545EFD01E
:10320000C065B337A00085077D14135569004204DB
:1032100005891379F90341802380F400A380A40079
:103220002381240123928400014719C013871900C8
:1032300098C409476383E7000145F2406244D244E1
:103240004249B249056182800545C5BFC167F9178A
:10325000630AF502D94763F7B702011122CC2EC6E3
:1032600006CE2A84EF90002AB2456368B500228515
:103270006244F24005616FA0D04AF24062440545C5
:103280000561828005458280C167F9176314F500E6
:103290006F904027411106C6EFA0703711E15D45E0
:1032A000B2404101828091476394F5028347050053
:1032B0002300F6008347250003471500A207D98F96
:1032C0002311F6008347350001452302F600828072
:1032D000114582804111814522C426C206C6AA84B6
:1032E00005252A8409E9B727002083A7879C81C781
:1032F000F945268582972285B240224492444101B5
:10330000828039714ED656D25AD006DE22DC26DAB9
:103310004AD852D4AA8A2E8BB28941EF36C6AD372D
:103320009145EF90E02FAA844D492DC9B246054A38
:10333000238034010544630A0B00B685138514000D
:10334000029B0505131405014180E20993D98941C7
:1033500063D30902C1455685EFA0B039654905E937
:1033600033868400A2852685EFD060102A8905E186
:1033700031044204418091472C085685231CF100FA
:1033800026CE231D8100EFA0A0402A8901C9630732
:103390000A00268597D0FE1FE78000D7F2506254BE
:1033A0004A85D2544259B259225A925A025B21613B
:1033B0008280BA84014AADBF011122CC26CA4AC814
:1033C0004EC606CE2A893284B689253FAA840DE1ED
:1033D000B727002083A7C79C81CF05476317E40068
:1033E00003C4090005041374F40FA2854A8582976B
:1033F000F240624426854249D244B2490561828046
:10340000AE86B7350100014705469385050C6DB7BB
:1034100083D705002300F50083D70500A183A3000F
:10342000F5000945828083D705002300F50083D786
:103430000500A183A300F50083D725002301F50033
:1034400083D72500A183A301F5001145828083D78E
:1034500005002300F50083D70500A183A300F50034
:1034600083D725002301F50083D72500A183A3017D
:10347000F50083C755002302F50083C76500A3024A
:10348000F50003D58500190542054181828083D767
:1034900005002300F50083D70500A183A300F500F4
:1034A0000945828083D705002300F50083D70500F6
:1034B000A183A300F50083D725002301F50083D75E
:1034C0002500A183A301F5001145828003D54500A5
:1034D000060542054181828083D705002300F5005F
:1034E00083D70500A183A300F50003D525000905B6
:1034F00042054181828083D705002300F50083D7F0
:103500000500A183A300F50083D725002301F50062
:1035100083D72500A183A301F50003D5450011053C
:1035200042054181828083C705002300F5000545DF
:10353000828083D70500411122C406C62300F5000E
:1035400083D705002E841105A183A30EF5FE83D732
:1035500025009505230FF5FE83D7D5FFA183A30F83
:10356000F5FE03C6F5FF97D0FE1FE78060C7034551
:103570004400B24022441105410182808947639C86
:10358000F50083471500034705000145A207D98FC1
:103590002310F60082801145828003D70500D947A9
:1035A00063FEE702011122CC06CE2EC62A84EF80EC
:1035B0007075B24683D70600636DF50022856244BC
:1035C000F240B73501000147094693850541056181
:1035D0000DBBF24062440945056182800945828045
:1035E00091479DC583460500FD15C2058547C181EC
:1035F0006392F60213D725008D89914791E991478F
:1036000001CB05052301D6002310E60048C28147FF
:103610003E85828009479147E39CE6FEC94733D740
:10362000F502B3F5F502D1BFAE86B735010001470B
:10363000114693856542F1B193F7350091EB89818D
:10364000914789C52310B60048C281473E858280D4
:103650009147EDBF03C745008947631AF70201117F
:1036600022CC2A84C84506CEAE86014719C52EC68F
:103670009D45EFE08FD5B2462A8722856244F2400D
:10368000B735010019469385E54405619DB90945A3
:10369000828099E111458280834705000547231107
:1036A000F600E379F7FEFD1593F5F50F33D7F50234
:1036B000B387E702E390F5FE050548C22310E60054
:1036C0000145828083C745000947AE866385E700D0
:1036D00041476399E700B7350100014721469385CB
:1036E000255305B1094582802310B60091E10145BB
:1036F00048C201458280AE86B735010001472946A0
:103700009385E548FDBE2310B60091E1014548C20E
:1037100001458280AE86B735010001473146938569
:10372000454AC5B62310B60091E1014548C201459E
:10373000828003D74500854763FDE702011122CC53
:103740002A84884106CE0DC12EC68545EFE0EFC71D
:103750002A8722856244B246F240B73501003946D5
:103760009385C54C056171BEF2406244094505610F
:1037700082800945828091479DC5034705008D469B
:10378000914763F2E602FD15C205C181B3C6E502A9
:103790003308D7026399050105052310D6002311CC
:1037A000E60048C281473E85828083C745000947BD
:1037B000AE866385E70041476399E700B7350100AE
:1037C00001474146938525532DBE09458280B33577
:1037D000B000139525008280011122CC26CA06CEA6
:1037E00003C785008547AA842E8449466310F702E3
:1037F000613C8357240049151306200963C8A700BC
:10380000F2406244D2440945056182800347940036
:1038100085476314F70013660604484011C58D45BB
:1038200032C6EFE08FBA3246A2866244F2402A875F
:103830002685D244B73501009385854D0561D1B405
:103840008D4763FFB7028347150003470500F11555
:10385000A207D98F2310F6008347350003472500C0
:10386000C205A207C181D98F2311F6002312B60029
:1038700089C5110508C60145828023240600E5BFDD
:1038800011458280011122CC2A84884506CEAE865D
:1038900011C52EC69545EFE04FB3B2462A87228563
:1038A0006244F240B735010059469385654F056182
:1038B00089BCB335B000139525008280AE86B7353C
:1038C0000100014761469385655225BC8547114536
:1038D00063F4D7028347160083450600A207CD8F05
:1038E0002310F7009387E6FF2311F70089476386CB
:1038F000F600090650C30145828023220700E5BF78
:103900000147814679468145EDBA83D705002300FA
:10391000F50083D70500A183A300F5000945828047
:1039200083C7250005472300F50003D505006397ED
:10393000E7000A050505420541818280C947330534
:10394000F502CDBF03D505000A05420541818280FD
:1039500083D725002300F50003D5050083D7250074
:103960003305F502050542054181828003D5050036
:10397000828003D50500828003D50500828083D72D
:1039800025002300F50003D5050083D72500330566
:10399000F502050542054181828083D70500230099
:1039A000F50083D70500A183A300F50083D7250088
:1039B0002301F50083D72500A183A301F50003D5DA
:1039C0004500110542054181828083D7050023000F
:1039D000F50083D70500A183A300F50003D52500DA
:1039E000090542054181828089471145639BF600A4
:1039F00083471600834606000145A207D58F231092
:103A0000F700828003D70500D947AE8663F9E70047
:103A1000B745010001470D469385A59071BA094548
:103A2000828011456393A6028347160083460600F1
:103A30000145A207D58F2310F70083473600834640
:103A40002600A207D58F2311F700828083C72500A7
:103A50000547FD1793F7F70F6361F70483D7050058
:103A60008DCF011122CC2A84C84106CE15C12EC6A5
:103A70008945EFE08F952A8722856244B246F2405D
:103A8000B745010015469385059205616FF0DF92F9
:103A9000F24062440945056182800945828095476C
:103AA000114563F9D706411122C426C24AC006C691
:103AB00083471600BA8403470600A2073284D98FD1
:103AC0002390F40083473600034726009305440003
:103AD000A207D98F2391F40089472382F400094675
:103AE00013855400368997C0FE1FE780606F9307E7
:103AF000A9FF2394F4009947631BF90023A604004F
:103B0000B240224492440249014541018280190495
:103B1000C0C4FDB7828083D705008DCF011122CCB0
:103B20002A84C84106CE15C12EC68545EFE0EF892F
:103B30002A8722856244B246F240B74501001D46FD
:103B40009385459405616FF03F87F24062440945D3
:103B5000056182800945828099476395F60489470B
:103B6000411106C62302F70083471600834606006C
:103B7000B285A207D58F2310F7008347360083460E
:103B8000260003464700A207D58F130557002311CF
:103B9000F700910597C0FE1FE7808064B2400145A1
:103BA00041018280D14711456394F600C1474DBF62
:103BB000828083D705008DCF011122CC2A84C84191
:103BC00006CE15C12EC68945EFE02F802A872285B3
:103BD0006244B246F240B7450100254693850595FB
:103BE00005616FF06FFDF240624409450561828016
:103BF0000945828089471145639BF600834716007B
:103C0000834606000145A207D58F2310F700828066
:103C1000011122CC2A84C84106CEAE86014719C5BF
:103C20002EC68545EFD07FFAB2462A8722856244A8
:103C3000F240B74501002D469385C59605616FF0AA
:103C4000AFF711456393A60283471600834606002B
:103C50000145A207D58F2310F7008347360083461E
:103C60002600A207D58F2311F7008280011122CCF4
:103C70002A84C84106CEAE8611C52EC68545EFD032
:103C8000DFF4B2462A8722856244F240B74501003C
:103C900035469385259705616FF00FF293F716006F
:103CA000114589EB89476387F60085822312D70087
:103CB00010C301458280011122CC2A84C84106CE5E
:103CC00015C12EC68545EFD05FF02A872285624454
:103CD000B246F240B74501003D46938585970561A0
:103CE0006FF08FEDF240624409450561828083D711
:103CF00005008DCF011122CC2A84C84106CE15C102
:103D00002EC68945EFD07FEC2A8722856244B246D1
:103D1000F240B745010045469385E59705616FF090
:103D2000AFE9F2406244094505618280094582801D
:103D3000854763FCD7022304A700A304B700834789
:103D4000160083450600A207CD8F2310F700938746
:103D5000E6FF2311F70089476386F600090650C382
:103D60000145828023220700E5BF1145828001477B
:103D700081464D4681456FF02FE48D47114563FB29
:103D8000D7028347160083450600A207CD8F231074
:103D9000F7008347360083452600A207CD8F231105
:103DA000F7009387C6FF2312F7006386A60011066B
:103DB00010C70145828023240700E5BF011122CCF2
:103DC0002A84884506CEAE8611C52EC69545EFD00D
:103DD000DFDFB2462A8722856244F240B745010000
:103DE0005D469385A59905616FF00FDD8547114507
:103DF0006397F6008347060001452300F7008280A1
:103E000001478146654681456FF00FDB011122CCE9
:103E10002A84C84106CEAE86014719C52EC68D45F7
:103E2000EFD0BFDAB2462A8722856244F240B74516
:103E300001006D469385A59C05616FF08FCC011143
:103E400022CC2A84C84106CEAE86014719C52EC6AB
:103E50008D45EFD09FD7B2462A8722856244F24033
:103E6000B745010075469385A59C05616FF06FC944
:103E7000011106CE2EC6EF90B07501C9B245F240D1
:103E80000355250005616FD09012F2404945056148
:103E90008280B7270020A38C079EB7270020238CA1
:103EA000079EB727002023A0079EB727002023A244
:103EB000079EB727002023A4079EB727002023A62C
:103EC000079EB727002023AE079CB727002023AC0E
:103ED000079CB7270020239007C21306403893871A
:103EE00007C22391C70271761307400B130606B869
:103EF0002391E7002392C70211671D469306000530
:103F00009305000A1305007D2392E7002393C7025F
:103F100041470546130810F82395E7002396E7006C
:103F20002399E700239AE700239BE700239CE700FF
:103F30002394E702239607032393B7002394B70043
:103F40002397D7002398D700239DA700239E07001F
:103F5000239F0700239007022395C7022397070298
:103F60001308F007239807022392E7042393E7043A
:103F7000239FE7042390E7062391E7062392E706B1
:103F8000239907031307C01C239AC702239BC70268
:103F9000239C0702239D0702239E0702239F0702FB
:103FA000239007042391C70423940704239507044F
:103FB0002396C7042397D7042398D7042399A704EB
:103FC000239A0704239B0704239C0704239DD704FB
:103FD000239ED7042393A706239407062395070659
:103FE000239607062397B7062398B7062399070653
:103FF000239AE7067D57239B0706239CE7068280CA
:10400000011126CAAA84214522CC06CE2E8432C6AE
:1040100036C43AC2EFD09FC31DC9A24612473246EA
:10402000930700FD2300F5009947A30095002301A5
:10403000F5002303D500A303E5002312C500AA85DC
:1040400022856244F240D24405616FD03FCBF240FA
:104050006244D24405618280B727002023A0A79E36
:104060008280B727002023A2A79E8280B727002046
:1040700023A4A79E8280B727002023A6A79E828024
:10408000011122CC4AC806CE26CA2A890144B304AB
:1040900089006368B400F2406244D2444249056139
:1040A00082802EC6EFD03FDE93170501C183A18326
:1040B000B2452380F4009307140093F7F70F8504AB
:1040C00063F9B700CA9709042380A7001374F40F9B
:1040D0007DBF3E847DBF411122C4372400201304DC
:1040E00004C003556400C16706C6FD17630FF500E1
:1040F000B727002003C687D2B72500209385059FE8
:10410000EF90102BFD572313F400B24022444101DD
:10411000828009C925151375F50F1335850E1345D2
:10412000150082800145828023900500C9C67971FF
:1041300022D426D24ECE52CC5AC806D64AD056CA1F
:104140005EC63684328AAE892A8B814463F3440783
:10415000B307940083C70700138914004209939A98
:10416000070193DA0A011359090163840A04CA9703
:104170006341FA04B307240183CB07005E85513FF6
:104180000DC99387FAFF2390F90063906B03130521
:1041900019002295B250225492540259F249624AAF
:1041A000D24A424BB24B45618280D694C204C18050
:1041B00071BF0145C5B701458280011122CC37246A
:1041C000002026CA4AC84EC6930704C006CE2E89D0
:1041D000D0CB8CCBC8C7AA8441469305F00F4A8543
:1041E00097C0FE1FE780400D8549130404C0631982
:1041F00035030848C145693541469305F00F2685CA
:1042000097C0FE1FE780400B05496315250348440E
:104210006244F240D2444249B249C14505618DB57C
:10422000414681454A8597C0FE1FE780E008E315B7
:1042300035FDC1B741468145268597C0FE1FE78001
:10424000A007E30625FDF2406244D2444249B24948
:1042500005618280411122C43724002026C24AC051
:10426000AE842A89130600028145130504C006C6E0
:1042700097C0FE1FE78040FA930704C0A38127017F
:10428000B7270020238697D2EFD0A054854719C1C5
:10429000814749452300F4C0B24022449244024978
:1042A00041018280814781CD19C98547631BF50093
:1042B00083C7550093E707FCA382F50085473E8539
:1042C000828089476317F50083C7550093F7F7038A
:1042D000E5B70D478547E314E5FE03C7550013779F
:1042E000F70313670704A382E500D1BF81478DC19F
:1042F00005C103C755009306000C85471377070CCB
:104300006308D700930600048D476303D7008947ED
:104310003E858280411122C4005D06C626C21DC8AA
:10432000AA84085009C597C0FE1FE780E0DD485009
:1043300009C597C0FE1FE78020DD085409C597C056
:10434000FE1FE78060DC228597C0FE1FE780C0DB90
:1043500023AC0402B240224492444101828019E914
:10436000B727002083C727C091C737250020130532
:10437000059D828037250020130585C18280B727DF
:10438000002003C527C08280B727002003A5C7C02F
:104390008280B727002003A507C18280B7270020AD
:1043A00083A747C188438280B7270020938707C02F
:1043B000D44B9842050798C203C537009307F00F06
:1043C0006305F50091656FD0BFD48280011122CCC6
:1043D00006CE2E8432C6EF9050309147B24563101E
:1043E000F502B727002083A7C79E95C303A3070044
:1043F000630F030022856244F24005610283B72700
:10440000002083A7479E81C703A34700D5B7F2408A
:104410006244054505618280011122CC2A8403553E
:10442000450006CE26CA4AC84EC6EF9030093DC99F
:104430002A89834405008349C500E93D4A85EFA0E8
:10444000500A03554400EF909024372900201309A7
:10445000899F83470900B9CB639A9704B727002047
:1044600083C5979F2685293419E123000900035548
:104470004400EF9090269147631FF500B727002076
:10448000938707C08356440003D767006395E6000F
:104490007D572393E700F2406244D2444249B24937
:1044A0000561828081499304F00F45B79307F00FAF
:1044B000E38FF4FA83466400035644000345240066
:1044C0004E87A685353E65B779715EC6AA8B2E8567
:1044D00052CC56CA5AC806D622D426D24AD04ECE7C
:1044E000AE8A328B368AEF90607D7DC1045D2A8969
:1044F000E5C09C50614599C3130540039C5481C796
:1045000051054205418163050A007105420541815B
:10451000DC5081C7590542054181EFD02FF32A8431
:1045200045C96146814597C0FE1FE780E0CEB727A9
:10453000002083C907C563940900834909009307D4
:1045400000FD2300F400A947A30074012301F40037
:10455000230364018C50231254011305840191C973
:1045600008C47146930A440397C0FE1FE78040C702
:1045700056858C5491C948C45146930A450197C049
:10458000FE1FE780E0C55685630C0A0008C8714627
:10459000D285930AC50197C0FE1FE78060C4568587
:1045A000CC5099C548C8594697C0FE1FE78040C304
:1045B000A2854E85EFD08FF42254B2509254F24926
:1045C000624AD24A424BB24B4A850259456199B37D
:1045D000B250225492540259F249624AD24A424B92
:1045E000B24B4561828001114EC6AA892E854AC808
:1045F00006CE22CC26CA2E89EF90406C21C9B7275F
:10460000002083C407C599E0834405001945EFD015
:10461000EFE32A8405CD8145194697C0FE1FE78048
:10462000A0BF930700FD2300F400B947A3003401A5
:104630002301F40023122401A2856244F24042497E
:10464000B2492685D24405616FD04FEBF2406244F7
:10465000D2444249B2490561828039715ECEAA8B4B
:104660002E8526DA4ED652D456D25AD006DE22DC19
:104670004AD8AE84328BB68A3A8ABE8942C6EF9057
:10468000E06321CD2A894145EFD04FDC2A8431C532
:104690004146814597C0FE1FE78000B8B72700203C
:1046A00003C507C519E103450900930700FD230071
:1046B000F400BD472301F400B247A30074012312A4
:1046C000940023046401A304540123054401A305B9
:1046D00034015CC4A285EFD06FE2F2506254D25430
:1046E0004259B259225A925A025BF24B216182809E
:1046F000797126D2AA8439454AD04ECE06D622D424
:104700002EC6B2893689EFD06FD421C1B245930746
:10471000000D2310F500B1472A842312B5002301B0
:10472000F500CE851905194697C0FE1FE78040ABFE
:1047300023062401A2852254B2500259F24913F5EE
:10474000F40F925445616FD06FDBB25022549254F3
:104750000259F24945618280411126C2B7240020E6
:10476000938404C003C7340006C622C44AC093071A
:10477000F00F630CF7042A893945EFD02FCD2A8436
:1047800029C5930700FDB72500202300F500A300ED
:10479000250123010500938585C10D05194697C0A4
:1047A000FE1FE780E0A383D78400A28503C5340001
:1047B0002315F40083C714002306F4002244B240FA
:1047C0009244024941016FD06FD3B24022449244D7
:1047D00002494101828001115AC02A8B314526CA03
:1047E0004EC652C456C206CE22CC4AC8AE84B28A45
:1047F000368ABA89EFD08FC53DCD2A842685EF90C1
:10480000E04B11C50347C500A1476314F704B72760
:10481000002003C937C0930700FD2300F4009D4723
:10482000A30064012301F400231294002313540114
:104830002314440123153401A2856244F240D2447A
:10484000B249224A924A024B4A85424905616FD0D9
:10485000EFCAB727002003C9D7D2E31E0BFAB72748
:10486000002083A787AB9C47DDD7CE865286D685AE
:10487000268582974DB7F2406244D2444249B249FC
:10488000224A924A024B05618280011122CC2A847D
:10489000214506CE2EC6EFD06FBB21C1B24593078E
:1048A00000FD2300F500C5472301F50083C735004F
:1048B000A301F50083D745002312F50083C76500E7
:1048C0002303F50083C77500AA85A303F50022859D
:1048D0006244F24005616FD06FC2F24062440561EC
:1048E0008280397162CC2A8C594526DA4AD84ED654
:1048F00052D456D25AD05ECE06DE22DCAE8432C608
:1049000036C4BA8B3E8BC28A468A83590104034956
:104910004104EFD0AFB325C93246930700FDA2464C
:104920002300F5009547A301C500A30085012301DD
:10493000F5002A8419461105A9C2B68597C0FE1F45
:10494000E780008A23066401230A240123157401E9
:10495000231754012318440123193401A2856254FA
:10496000F2504259B259225A925A025BF24B624CAF
:104970002685D25421616FD06FB8814597C0FE1F44
:10498000E7808089C1B7F2506254D2544259B2597B
:10499000225A925A025BF24B624C21618280411191
:1049A00022C437240020130404C08347240006C611
:1049B00026C28DCBB7240020AA8519461385049DF5
:1049C00097C0FE1FE780C081034524009385049DA6
:1049D000EFF05F8D2244B2401385049D9244410163
:1049E0006FC0F05FB2402244924401454101828091
:1049F000411126C2B7240020938704C006C622C4F2
:104A00004AC003C737009307F00F938404C06304C0
:104A1000F7042A892945EFD06FA32A840DCD930787
:104A200000FD2300F500A147A30025012301F500A7
:104A300083C72400B72500209385059DA301F500B9
:104A40001946110597B0FE1FE780807903C5340031
:104A5000A285EFD0AFAA03C724008D476311F702E8
:104A6000B727002083A7879E99CB03A387006308FD
:104A700003002244B2409244024941010283B24001
:104A800022449244024941018280797122D406D69F
:104A900026D24AD04ECE52CC56CA09445DCD2A8980
:104AA00003550500AE895144EF904021AA8455C5B5
:104AB00037270020930787D283C747008546BA8AE5
:104AC000FD1793F7F70F494463F9F6080347C5004C
:104AD000A1476314F700639209089C5C4544B5EF55
:104AE0009165938545711305C00297B0FE1FE7805D
:104AF000605588DC2A8A4D442DC11306C0028145C9
:104B000097B0FE1FE78040718357090093064A0063
:104B100036852311FA0071469305490036C697B0D1
:104B2000FE1FE780E06B89472300FA0003C5C4003D
:104B3000B2460356090083C58AD2611513351500A4
:104B4000EFB0B0442A8463860900CE852685EFA0A5
:104B5000604501C42685EFF0EFFB2285B250225458
:104B600092540259F249624AD24A45618280B7277B
:104B7000002083C7C7D20547FD1793F7F70F637A65
:104B8000F708894741CA011122CC26CA4AC84EC635
:104B900052C406CEAA89368AB2842E89EF900012BA
:104BA0002A84D14739C9485509C597B0FE1FE78007
:104BB000A055F145268597B0FE1FE780406848D490
:104BC000CD4705CD8346C40021478147639FE6005A
:104BD000630D0A000347A50103560501930625014D
:104BE000AA854E85EF907030AA8703474400630F73
:104BF0000900136767002302E400F2406244D244D4
:104C00004249B249224A3E850561828013674700C6
:104C1000DDB7C9473E8582809307B00363EBA700E9
:104C2000B7270020938707C206053E950355050068
:104C3000828041657D158280011122CC2A842E85D7
:104C400026CA06CEAE84EF9060071DCDB7470F0091
:104C50009387F723094563E4870281450A85414626
:104C600097B0FE1FE780405BA685231081000A8570
:104C7000418023018100A3010100EFB05012F240F6
:104C80006244D244056182804945D5BFB7270020E0
:104C90002385A7D282806FB07027797152CC2A8A7F
:104CA000328522D426D24AD04ECE56CA5AC85EC6C3
:104CB00006D662C4AE8BB28A368BBA843E89C2896C
:104CC0004684EF80B07F15C92A8C63140A021377DB
:104CD0004B008347450015CF93E727012302FC00D3
:104CE0008DEC631C0902639A090205E8ED9B23021F
:104CF000FC00832B8C0363910B08B2502254925416
:104D00000259F249624AD24A424BB24B224C4561A7
:104D10008280F59B93E70701D1B793E74700230211
:104D2000FC0001CC1C484146A2852324FC0213054B
:104D30008C0197B0FE1FE780A04A63930B02D5D881
:104D40000325CC0209C597B0FE1FE780E03BF14583
:104D5000268597B0FE1FE780804E2326AC0251BF08
:104D6000E30909F80325CC0209C597B0FE1FE780C7
:104D7000A039F1454A85F1BF9DC483A70B0299EB89
:104D8000916593853571714597B0FE1FE780802B43
:104D900023A0AB0203A50B0219C57146A68597B0E7
:104DA000FE1FE780E0436388090283A74B0299EB6B
:104DB000916593852571594597B0FE1FE78080283E
:104DC00023A2AB0203A54B0219C55946CE8597B065
:104DD000FE1FE780E0401DC483A78B0299EB91651D
:104DE00093851571514597B0FE1FE780A02523A438
:104DF000AB0203A58B0219C55146A28597B0FE1FD1
:104E0000E780003E2254B2509254F249B24B224CF9
:104E1000CA865A860259424BD6855285D24A624A80
:104E200045616FF06FEA011126CA52C406CE22CC4A
:104E30004AC84EC62A8AAE84EF80506825C5AA8922
:104E40003945EFC0BFE02A8431CDB727002003C920
:104E500007C56314090003C909009307000D231057
:104E6000F400AD472301F400938569001305340075
:104E7000194697B0FE1FE780A03693F7140085808F
:104E800085882306F400A306940023154401A28517
:104E90006244F240D244B249224A4A8542490561FD
:104EA0006FC0DFE5F2406244D2444249B249224A2F
:104EB00005618280411122C4372400201304849D9F
:104EC000084006C619C597B0FE1FE780E0232320DF
:104ED0000400B240224441018280011106CE22CC5E
:104EE00026CA4AC82EC6EF80705D39CDB245B727B5
:104EF000002003C907C50CD5AA846314090003491F
:104F000005004145EFC09FD42A841DCD9307000DB5
:104F10002310F500A5472301F50083C754009385AE
:104F200064001105A30FF5FE194697B0FE1FE78038
:104F3000202B9C54A285F2405CC46244D2444A8532
:104F4000424905616FC09FDBF2406244D24442494E
:104F500005618280797122D406D62A842EC6EF801C
:104F6000F0550DCD8346C5001147AA874945639387
:104F7000E6029C5FB24599C383C567010808EFA0AC
:104F8000800BB70602009386869310088945228518
:104F9000EF90C07AB2502254456182805145DDBF06
:104FA000B727002083C7C7D20547FD1793F7F70F30
:104FB000637AF704894721CA411122C426C24AC034
:104FC00006C6B2842E89EF80704F2A84D14705C56A
:104FD000630809008347450093E727002302F50093
:104FE0004146A6851305840197B0FE1FE780401F48
:104FF0009C481CD48147B2402244924402493E85D9
:1050000041018280C9473E858280797122D406D6CB
:105010002A842EC6EF80904A01CDB2452285230E08
:10502000B1006C08EF909074B250225445618280B8
:105030005145DDBF6F80305FC1671387E7FF639520
:10504000E502B727002083A7479E91EB4945828060
:105050004945B2402244924402494101828003A35F
:105060000700E30503FE0283411122C426C24AC0A1
:1050700006C6FD172A892E84B284639AF502B727E3
:10508000002083A7479E91CF9C4381CF829711E94F
:10509000B7270020238C279FB7270020A38C979E3B
:1050A0004DBFA6854A85EFE0BFDC45F5D5B72E8517
:1050B000EF80D04051DD834705000D45E39B27F984
:1050C00022852244B2400249A685924441016FC024
:1050D000006E1307B0036360A7064111C16722C4C5
:1050E00006C626C2FD172A8409456382F502C54714
:1050F000AE846313F4022E85EFC0207337250020A1
:10510000130505C206042A94231094000145B240F9
:1051100022449244410182809307A0036316F40065
:105120002E85EFC08069D9BFE31AE4FC13F5F50FB3
:10513000EFC0E068E1B709458280011106CE2AC6BA
:10514000EFE03FD5EF208075EF10B01EEF40B24981
:10515000B7270020938707C0130700F02391E700CB
:1051600023820700B72700203245138787D2FD56D8
:105170002301D700F2402384A7D2954505616F70C3
:105180008044597193970501CAD086D6A2D4A6D27D
:10519000CECED2CCD6CADAC8DEC6E2C4E6C2EAC0F7
:1051A0006EDEC1872E8963DC0754B724002003C557
:1051B00084D2B7290020372B0020EFC09FAD2A846E
:1051C00026CEB72A0020372C0020938409C0B72CA4
:1051D00000201DE021653345A900B65026549654A1
:1051E0000659F649664AD64A464BB64B264C964C6B
:1051F000064DF25D65618280834704001307200A33
:10520000639CE70003CA340003552400C16522866D
:10521000FD15EFF0AF9B8DA27247130787D2034AAB
:105220002700130710096395E716834714001547F5
:10523000639FE7002285EFF02F9E2285EFC05F9EDF
:10524000F24703C587D2EFC0DFA42A8459B7394794
:105250006398E716035544008567A5076315F504B1
:105260000C4483CB0500639D0B00850591C9372550
:1052700000201946130585C197B0FE1FE78040F650
:1052800003C709C085476315F71063880B002380A7
:1052900009C05E85EFF04FCC4DB789472380F9C038
:1052A000EFC0A05359BF896713872700631CE5042B
:1052B000832B8400638E0B0C83C70B0089EF83C79D
:1052C0002B0003C71B00A207D98F2394F40083C7C8
:1052D0003B00A380F40003C709C08947631AF70A9B
:1052E00083C70B0091C7238009C003C50B005DB7BE
:1052F00083C5140003D584008D472380F9C0EF7067
:10530000802FE5B795076318F5001C4403C5070017
:10531000EFF00FEE1DB7F9771387A7FF2A97420723
:105320004183914663F1E6049387A7FCAA97C207DD
:10533000C18371476371F70289671387B7006310F0
:10534000E50483A70A9EE38A07EE9C43A285E386D1
:1053500007EE829715A0370700181307F770B357A9
:10536000F700858BA1CB83278B9EE38807EC9C43BA
:10537000E38507EC22858297E31105EC11A81387DA
:10538000C7006310E5021C4483C70700E38707EAF0
:105390009307F00FE303FAEAA2855285EFC01F9648
:1053A00045B5B9076318F50083A74C9EE38707E866
:1053B000DC4369BF896793871704E304F5F8C9BF25
:1053C0003D476399E7040355440089671387D70075
:1053D000E30CE5FC13879701E308E5FCCD07E3192F
:1053E000F5FA03D76400C167FD17631DF70083A7B3
:1053F0004C9EE38407E4DC43E38107E40965A2856E
:105400004D0581BFB727002083A7C79EE38707E22A
:105410009C43DDB71307E003E39CE7F683472400D2
:1054200005476398E70E8347640037270020930DF4
:10543000879DE1E783A70D00D5CF83CB0700214AE5
:1054400003457400130D8400EA85EFE03FEA8347CB
:105450004401A303A400835804010358E400035744
:1054600044002A86034534003EC283572401EA865D
:10547000DE853EC0D287EFF0CFC68347340095E784
:10548000DD47835804010358E400834674008355C4
:1054900044003EC2835724013EC06A87D287054636
:1054A0005E85EF80903AA301A40083A70D0081C719
:1054B0001145EFF03FA0930B8C9F03C50B00E30E4B
:1054C00005D6B727002083C5979FEFE07F9AE306B4
:1054D00005D68346340093071003638AF60003560B
:1054E000440083C50B0052873685EFE07FB1230C63
:1054F0000C9EA1B383CB340099B783278B9E83CBBB
:105500003400114A95DFDC4385DF814501458297F0
:1055100005BF29476390E70A8347640037270020C7
:10552000930D879DA5EF83A70D00B5C783CB07001B
:10553000214A03457400130D8400937725001376E8
:10554000150089E7EA85EFE07FDA2A8683470402BF
:10555000A303C4008358C4010358A40103574400A3
:10556000034534003EC28357E401EA86DE853EC02F
:10557000D287EFF00FB78347340085FBDD478358B0
:10558000C4010358A40183467400835544003EC2FD
:105590008357E40111B783CB340059BF83278B9E17
:1055A00083CB3400114AD1D7DC43C1D781450145B3
:1055B000829741B70947639CE70083A70A9EE38E61
:1055C00007C6DC43E38B07C622858297BDB12D4712
:1055D0006398E70083A70A9EE38107C69C47DDB76F
:1055E0000D476397E70022868D450355440015B1AA
:1055F00019476395E7069305610213051031EF40E3
:1056000032072C1013052031EF4092060356640038
:10561000835781020355440063E8C7008356840022
:105620000357610263F7E60093050002EFC0E01E36
:1056300029B16374E6002313E40063F4D700231454
:10564000F4000357C4008356A40003568400835516
:10565000640001488147EFC0001CC5B61D47E389BF
:10566000E7D231476395E7002286B145BDBF354794
:105670006398E70083A70A9EE38107BCDC4799B7DC
:1056800039476396E7002285EF0030077DB63D4736
:105690006398E70083A70A9EE38107BA9C4B1DB776
:1056A00041476396E7002285EF00501079B64547E1
:1056B0006396E7000145EF00D01F41B64947639D5F
:1056C000E70083278B9EE38507CCDC43E38207CC8E
:1056D0008145054582976DB94D47639CE700832757
:1056E0008B9EE38707CADC43E38407CAA28509458A
:1056F000D5B76147E39EE7C82286E145FDB593F73C
:10570000150089CFB727002083A7079E89C7DC43F0
:1057100099C30145829713451900C1B493F7250039
:1057200091CFB727002083A7879E91C7DC4381C70D
:105730008145054582971345290045B493F74500F7
:105740000145E38C07A8B727002083A7C79D37240E
:105750000020130404C091CF85472302F400B7272B
:10576000002083A7879E91C7DC4381C781450545FB
:10577000829748442C10EFA0504A2810EFF02FA237
:10578000B727002083D727C481CF13060064338650
:10579000C702B727002003C587D29145EFC09FA855
:1057A000134549001DBC011122CC2A84554506CE63
:1057B00026CAEFF06FC6AA8413054002EFF0CFC5EA
:1057C0002AC613055002EFF02FC5AA86228562442F
:1057D0003246F240B3359000D24405616FC0400AB2
:1057E000797122D406D68D472E84631FF50003D726
:1057F000A50083D6850003D665000345340083D514
:105800004500EFE05FFD09A889671387D7006311A2
:10581000E50403C5250019E58547B25022543E85AD
:1058200045618280B727002083A6879DF5D603C6F1
:10583000360083C50600814802C202C00148814784
:1058400001479106EFF0EF890545EFF0AFE6E9B7C4
:105850001387E700E302E5FC13873701631AE500CD
:1058600003C5250055D9014781460146814551BFF1
:10587000E507E303F5FAB1476319F500B727002000
:1058800003C537C0EFF06F8041BF41677D17814787
:10589000E315E5F803C75500C947E31FF7F683D6BC
:1058A000E50003D6C5000355840083D5A500EFC0ED
:1058B000200351C15D45EFF02FB63335A000231C06
:1058C000A10083454400035524003008EF80A02F39
:1058D00083578101B1F36C0813051031EF40425931
:1058E0009305E10113052031EF4082588357C10130
:1058F000035784006374F7002314F4008357E10115
:105900000357A40063F4E7002315F40083558400D3
:105910008357A40063F4B7002315B4000357E400D1
:105920008356C4000356A400035524000148814750
:10593000EFB0306CD5B58547231CF10059B7B727B8
:105940000020138787D2834677001307F00F638CFC
:10595000E60851C9411122C426C24AC006C6AA841B
:105960000345A500138987D24105EFC02FAE2A84D5
:105970002DC59307000D2310F500D9472301F5002D
:1059800083D744002312F50083C764002303F50086
:1059900083C77400A303F50083C784002304F500C4
:1059A00083C79400A304F50003C6A4002305C50023
:1059B00015C2CC44410548C497B0FE1FE780408221
:1059C000A285224403457900B24092440249410134
:1059D0006FC0CFB223260500E5B7B24022449244FF
:1059E0000249410182808280C1671387E7FF639E7D
:1059F000E500B727002083A7879D9DC383C70700C5
:105A00000D47639DA7006FB0105EFD174947639770
:105A1000F500B727002083A7879DF5F73A85828098
:105A20004947EDBF397122DC06DE26DA4AD84ED668
:105A300052D456D25AD05ECE62CC03470500854779
:105A40002A84630DF70403468500930695009305A9
:105A5000E1000545EFE04FED814719C1834705009F
:105A60008346040011476383E60437270020032799
:105A7000C79F8D4603471700630AD70285CB1DC712
:105A80000DE10145F2506254D2544259B259225AA2
:105A9000925A025BF24B624C216182808147014540
:105AA000C1B785466314D70A8D8BE1DF0345140027
:105AB000130A2400D285EFE07F8337290020A3005A
:105AC000A400832709A02A8B130909A08149C1C713
:105AD000B72A00209304F00F83C7AA9F138CAA9FB4
