:020000024000BC
:100000006F807215000000000018011800280128F8
:100010000228032800290129022903290429052986
:10002000062907290829002A012A022A032A042A64
:10003000052AA62A809106004A270400DC03002036
:100040002004002098030020860300205203002093
:10005000B0280400D8280400A6290400962B040028
:10006000402C0400D625040068250400020200206C
:1000700094250400AC3004001605002086280400F6
:10008000D42D04007C3606005A380600C438060019
:10009000FAF305000EF4050092570500DE4905004D
:1000A000BE300600042E040052FC0500FAD90400FC
:1000B0008ADA0400E4DA04001C3904005A39040026
:1000C000DA370400869C0400AC9704005407002033
:1000D000D6A804003CAC0400CA8A04006C8A040060
:1000E000308E0400168B04004A8A0400C28A040081
:1000F000008A0400908B0400E88B0400988B0400B5
:100100009C8B0400328C0400F08B0400208C0400D3
:10011000E4900400EC9004008C8B0400948B0400A9
:10012000308C0400E8900400DE8C04004692040049
:1001300088B90400FCB9040036BA0400D29E040059
:10014000E89E0400209F0400A88404008685040023
:10015000EA8504001E560400C0500400B87A04006A
:100160003C51040000760400406B0600486806001D
:10017000BA720600AA83060076820600D4860600BC
:1001800090860600CC8606007E8706002E58060064
:100190000E870600007A0600267A0600467A0600D8
:1001A000EE87060074800600128006005E88060056
:1001B000785A06000C5B06002C5B0600DE5A06002F
:1001C000E4140600A4010600EC0406006C0206001C
:1001D0000C0B0600523106004C3006006258060037
:1001E000783204001EF4050032FC05002AFD0500EB
:1001F000BC28060056290600B82A0600A8A204005A
:1002000098140600800B06005A110600040E060022
:1002100054010600F4060020C2F40500FA86060028
:1002200094860600C8860600C48606003C2B04009F
:1002300012A0040002870600DC1606002E18060035
:100240009A18060018730600FE8606000687060048
:100250006A4905000A870600AA1A0020061F002026
:10026000F87206009677060000000000000000000B
:10027000000000000000000000000000000000007E
:100280006373B60082801C419105110523AEF5FE13
:10029000C5BFB7270020373700209387873513075E
:1002A000C78D6373F700828023A007009107D5BF35
:1002B0005DC5AA870145D5C58D07C207C183F19BDE
:1002C000C207C18313074003636CF702372700207E
:1002D0000325474E372700208326C74D6397A60284
:1002E0003727002003274757014525CF4111C20773
:1002F00006C60545DD8D0297B24001454101828069
:10030000372700200325074EF1B77A2139E75A2114
:100310006365F704B72600203306F740214893862B
:10032000C64E6375C8028328050003D8660013868D
:1003300087001D8F2A9661175AA2232016012313C6
:10034000060010C15EA1130788FFFAA26EA1EE227B
:100350002105B387F540FEA28280084141B70145DF
:100360008280828009CDB727002003A3474EB7279C
:10037000002083A8C74D81469A8763E317018280D6
:1003800003A80700636BF5086369A8081387870053
:10039000E367E5FEF223216705076319E6003726C8
:1003A00000200347C63E05072306E63E3726002009
:1003B0001305C64ECE237A21239307001306C64E9B
:1003C0002E97420741837AA1638367023725002075
:1003D0000325054E630DF500EA2211E9DE2223A074
:1003E00006012107BE95A105CEA27AA2B687984341
:1003F000E30717F9B726002083A6064EE301D7F8D6
:100400007623B5FED6234E231843A106AE96D6A377
:1004100098C37E22A1077EA28280BE86C287B1BF1A
:10042000B7270020B726002083A7474E03A6C64D56
:100430002A87B305B5406314F6003A8529A8938648
:1004400087009C43E369D7FEE377F7FE2E85E3E45C
:10045000D5FEE3F2F5FE828023AC05FE1C4181E768
:100460000CC18280BA8703A787FF6DFF23ACB7FE5C
:100470008280411126C2B724002083A7844E22C463
:100480004AC006C60144014981EBA165973004E0EA
:10049000E780A0970DC819A803C7E7FF631CA70250
:1004A0001DCCA165972004E0E780C06703A7844EB8
:1004B000832784FF6317E40223A4F44EFD57232C03
:1004C00004FE230FF4FE2285B240224492440249E6
:1004D0004101828011E03E8983A787FF75B73E8482
:1004E000E5BF232CF9FED9BFB727002083A7C75348
:1004F00099E33E858280BA236315B7009823E30A07
:10050000A7FEDC47F5B70111680006CE22CC975054
:1005100005E0E7800039FD576307F508324741C31E
:10052000372400201304C44E1848630DF700B72782
:10053000002083A78758829732471C486373F700CF
:10054000BA873E95373400209307C4819C4F13042B
:10055000C48199CBB737002083A647883707CDFFE2
:100560007D179C46F98F9CC6B727002083A7875626
:10057000829719E91C4C85C7970006E0E780A0B573
:1005800097F005E0E78000121C4C91CBB7370020B4
:1005900003A74788B70633001C47D58F1CC7F24016
:1005A000624405618280372400201304C44E1C4835
:1005B000E387A7FEB727002083A7875882971C48A8
:1005C00049B709CD81CD19CA81473387F500142376
:1005D0003307F500850714A3E319F6FE828019C9D5
:1005E00091C909CA910583A7C5FF11057D16232E60
:1005F000F5FEC5BF828001C919C62A960505A30F5D
:10060000B5FEE31DA6FE828081473307F500030790
:10061000070019E33E8582808507C5BF01112E863C
:1006200026CAAA84131506019305F004418122CC41
:1006300006CE32C6B5392A8401C53246A685513761
:100640002285F2406244D24405618280854705C11B
:1006500099CD11CE8147B306F5003387F50094227A
:1006600018236398E6008507E317F6FE85473E8565
:1006700082808147EDBF9307F6FFBE952A966313EC
:10068000C5008280FD159C310505A30FF5FEC5BF91
:10069000AA87014581CF09CE3E96850703C7F7FF9C
:1006A0006317B700E39BC7FE054582808280014542
:1006B000828079714AD03729002022D40324C9537B
:1006C00006D626D24ECE52CC56CA5AC85EC63DCCAD
:1006D00037CAC901B72A0020B72900208144372B27
:1006E0000020130AFA37938A0A549389C94E3E2090
:1006F00099EB5C44BDE4232EF952832BC400228580
:1007000095315E840DA883278B5882971C4433074C
:10071000F540636AEA0423A809002E2008209720E8
:1007200004E0E780204054405C44E9D61844A284A9
:10073000369718C43E8445FCB72700209387C74EE0
:10074000984B894663FEE602791798CBB250225443
:1007500092540259F249624AD24A424BB24B456125
:100760008280DCC459BF03A78A0201CB03A7090119
:10077000898F63F4E70023A8F900A284404465BF91
:1007800023A80700E1B701114AC8372900208327B1
:10079000895106CE22CC26CA4EC652C456C25AC071
:1007A00081C78297232C095093078951DC43372452
:1007B00000201304845191C3829783278951639940
:1007C0000714B73400209387C481DC339384C48139
:1007D000858B99CFF830A3820400954763FAE70030
:1007E000EF106060FC30F5178A07A2979C43829750
:1007F000373A00209307CA85DC27130ACA85918BF4
:1008000099C3EF1050401C4491C3829737240020B5
:10081000B72900209307C44E03A789539033930A46
:10082000C44E8347C44E93961700BA969622B5CA13
:100830008347C44E63EFC706832789512306044EBE
:10084000E1EB9C3489CBFC3099E7A384040097F05A
:1008500005E0E780E035B727002083A78758CDCB98
:10086000FD5723A8FA00B135B727002083A7875684
:10087000C5C3F830954763EDE7088347CA00918BFD
:10088000C1EB83C61A0003A6895363CDD70862441F
:10089000F240D2444249B249224A924A024B05618F
:1008A0009DB1850793F7F70F2306F44EE3EBC7F6E8
:1008B00041B786073E970E23231007000345C44E19
:1008C000B727002083A7475113172500372B002097
:1008D000BA979C43231A0B52829783574B53034773
:1008E000C44E93C7F7FF7D8D9317170003A7895355
:1008F0003E971E235D8D0AA38347C44E81C785079B
:100900002306F44E0347C44E83C71A00E376F7F27A
:10091000F2406244D2444249B249224A924A024BCE
:10092000056182801397170032971A2375F38507A4
:10093000A9BFAD6737470240BD072326F720010056
:100940000100B72700209387C74EC84F832787260B
:10095000BD66BD0693C7F7FF99836A052326D72096
:100960005D8D82808280B727002003C6C76DB727C0
:10097000002003A7C73B81476315F60081463685F3
:100980008280BA8613078702835587FDE389A5FE17
:10099000850793F7F70FCDB7B727002003C6D76DAC
:1009A000B727002083A7873D01476365C7008146BD
:1009B00036858280BE86990783D5A7FFE38AA5FE88
:1009C0000507E5B7B727002003A7073D19E3014650
:1009D00015A81C4703D8A700636B0501835847007F
:1009E000B38608016355D500814663941601184308
:1009F000F1BF3E86C10703D3A7FF6317A30099C1C8
:100A000023900501328582808506C206C182F1BF2E
:100A1000B727002003C6C76DB727002003A7876844
:100A200081476315F600814636858280BA861307B2
:100A3000C703835567FCE389A5FE850793F7F70F86
:100A4000CDB7032785117DC7411122C406C65C2599
:100A50008345C5042A8493F7C70F5CA51437522732
:100A600013958601618563F6C50663500506082760
:100A700093F6F60714B7054693E627006314C500FE
:100A800093E6170054A45C4389075CC34CB8032564
:100A900004112E864C4309052D36832784115038C6
:100AA000D443DA27B296118FD4C3DAA789473CBC66
:100AB000B72700200347440383C727556371F70412
:100AC0005C2493E707015CA41DA893E717005CA4CE
:100AD00075BF9376F60F635905020827854513E61F
:100AE00027006314B50013E6170050A454B8A304FC
:100AF000070085473CBC832784119C43D5FBB2404B
:100B0000224401454101828093E717005CA454B858
:100B1000A3040700032504114C4309055D34832712
:100B200084115038D443DA27B296118FD4C3DAA790
:100B30008D47C9B705458280B737002083A7478016
:100B4000411122C406C6858B2A84D5E3416513056D
:100B500025F5976005E0E78020BE51C93C253EA5FC
:100B600083270412ADE32320A4122322A412854775
:100B70002310F404232005007C2854415EA558343A
:100B800018A5054718B53737002003274783138575
:100B9000170215811C437D151375F50F9CC25C432C
:100BA000DCC21C479CC65C47DCC61C4B9CCA5C4B29
:100BB000DCCA1C4F9CCE5C4FDCCE19CD938606025E
:100BC00013070702C1BF8327441288C38357040455
:100BD0002322A412850769BFB72700209387876E59
:100BE0009A2705079AA7B2402244410182805C24DB
:100BF00023090400054593C747005CA4EDB71C2DED
:100C000093F7E70FD5E71C3DC5E73029542509CAFE
:100C100037270020834545030347375563E7E50041
:100C200013F7060159C7014709C6C18A0357251C96
:100C300081C68356651C36972DCF411122C43724B7
:100C40000020130404546A2C1307C71237460F0000
:100C5000B335A70213060624814626C206C633050D
:100C6000A702978006E0E78000007C387D54B384BB
:100C7000A700B727002003A787778327070963F317
:100C800087003E84184375FBB727002083A7875849
:100C9000829781476364A400B307A440B240224412
:100CA000B3B7970093C7170092443E8541018280F5
:100CB00081473E858280B72600209387866E83A772
:100CC000070963850744797126D29386866EB72417
:100CD00000201387045403A586090353E70137470F
:100CE0000F0006D622D44AD04ECE52CC56CA5AC88D
:100CF0005EC662C40148FD5893840454130EF72362
:100D00001306072403D7470883A50709330767029B
:100D100072973357C7023387E540637517013E85E5
:100D2000BA8805489C43F9FF6304080023ACA60871
:100D300003A48609B7490F00938BF92337290020B4
:100D4000930A0032130B204E054A93890924832706
:100D50008958032C04098297637B852DF62C035751
:100D60004408FC38330CAC403307D7025E97335746
:100D700037033E97636B87237E3CA30F04002285D5
:100D800085077EBC83470414C5C72D212285975053
:100D900005E0E780C0DD49E1EA2C83574408374786
:100DA0000F009306F723B387A702130707248329AD
:100DB0000409230A0402B697B3D7E7020547B387AD
:100DC000F9402324F4088327C408BE993C3423281F
:100DD00034096391E7060357E407363C63ECE60405
:100DE00014286399F60483278411A9E78327440A0A
:100DF000B1E374349D47639FF6021E3CB387E7025C
:100E00001307204EB387E70203274409B3D7E7024D
:100E1000F828BA972312F408B25022549254025977
:100E2000F249624AD24A424BB24B224C456182801F
:100E3000F92CA9BF1E308DCF763C5A3037460F00B3
:100E400056B03387E640B387E7023A3013060624EC
:100E500081468145BA97C207C1833385A7023EB058
:100E6000978006E0E78020E001C5AA99232834098D
:100E7000832789588297AA89832789588297E30D07
:100E800035FF832789588329840882973385A940B1
:100E900075C18327C408637FF50C37490F00130918
:100EA0000924B3352503F22C8146330525039780A9
:100EB00006E0E78040DB3E3037370020832687831B
:100EC0003E95B567BD07DCC6010001008327878317
:100ED00009678359240298C7E62C37370020130787
:100EE000C781930600F854A30605E8D33385990219
:100EF0003D673D0737460F00D8C7130606248146D5
:100F00008145978006E0E78000D60DC1B337250301
:100F100026868146B305B9023305A902BE9597809E
:100F200006E0E78040D43385A9402AB097F005E079
:100F3000E780C0C597F005E0E78000D038348547EA
:100F40008145631EF70037E505001305A577972057
:100F500004E0E78020FD930700FD7CA475BD378584
:100F600005001305E511972004E0E780A0FB930737
:100F700010FCE5B73834854703A344036317F70033
:100F80009545E30B03E8154529A0E30703E89545DC
:100F900019452254B25092540259F249624AD24A37
:100FA000424BB24B224C4561028363580C047E3C99
:100FB00085077EBC8347041499E32285892A22850C
:100FC000975005E0E780A0BA832704090327C408E7
:100FD000BA972328F4083C3463974701228597D0B9
:100FE00005E0E78080447C3C854585077CBCDC5877
:100FF000E38F07D41545829799BB5E3C13070032F7
:101000008E07B387D70293870719B3D7E702E3F5B3
:1010100087E1A1452285975005E0E78020AD2305B3
:10102000A40203A344038945E31F03F4F5B35E3C24
:10103000FA2C330C85418E07B387E7029387071993
:10104000B3D757036374FC0A8327895882977E3C81
:101050002A8C85077EBC8347041499E322854528A2
:101060002285975005E0E78080B0E31705DA8327F3
:1010700004090327C408BA972328F4087C3C13F713
:10108000070F21CF2285974005E0E780C064A30FBA
:10109000040083270409E379FCFA8356E4071E3C25
:1010A00003274409B387D702B3876703B3D7E7029F
:1010B000F8280607BA972312F4083C3463924703D2
:1010C0003E3CE3F6D7C8228597D005E0E780E035BF
:1010D000DC58E38E07C68D4531BF85077CBC55BF04
:1010E000DC58E38607C68D45194531B7E3460CD277
:1010F000A1452285975005E0E780409F2305A40283
:1011000003A34403E30A03D09145B5BD82807971FE
:1011100026D206D622D44AD04ECE52CC56CA5AC86F
:101120005EC68347350303447513AA843E94137443
:10113000F40F9307400263F687001304B4FD1374A1
:10114000F40F03AA841383AAC413A38B84122286E8
:101150005285D685978006E0E78060AB058915E566
:1011600003CBD41201498149337B6403930B5002B2
:101170004A865285D685978006E0E78040A9058992
:1011800015C5639169031374F90F238B8412B25050
:10119000225492540259F249624AD24A424BB24B0B
:1011A000456182808509E20993D989410509E311E6
:1011B00079FDE1BF83278509723D797193D60701D7
:1011C000BD8EC206C182358E135776409357564066
:1011D000898B058B5D8F93573640918B5D8F93572D
:1011E0001640A18B5D8F93171600C18B5D8F9317EF
:1011F000360093F707025D8F9317560093558600CC
:1012000093F707041E065D8F1376F60F518F93D761
:10121000554013D63540118A898BD18F13D675402E
:10122000D18F13D61540218AD18F13961500418A8C
:10123000D18F1396350013760602D18F1396550081
:10124000137606049E05D18F93F5F50FCD8FA20777
:1012500045465D8F3307C70222D42A8426D252CC5A
:1012600056CA032A8413832AC4135AC806D636974B
:101270004207418393577740135557400989858B1F
:10128000C98F135537401189C98F135517402189CC
:10129000C98F131517004189C98F131537001375AE
:1012A0000502C98F13155700935587001375050460
:1012B0001E07C98F1377F70FD98F13D5354013D772
:1012C00055401189098B498F13D57540498F13D526
:1012D00015402189498F139515004189498F139530
:1012E000350013750502498F1395550013750504D4
:1012F0009E05498F93F5F50F4D8F2207D98FB38740
:10130000C7024AD04ECE5EC662C4B697C207C1833A
:1013100013D7774013D557400989058B498F13D5CB
:1013200037401189498F13D517402189498F13956B
:1013300017004189498F1395370013750502498FAE
:101340001395570093D58700137505049E07498FA1
:1013500093F7F70FD98F13D5354013D7554011891F
:10136000098B498F13D57540498F13D515402189B5
:10137000498F139515004189498F139535001375D1
:101380000502498F13955500137505049E05498F75
:1013900093F5F50F4D8F2207D98FB387C702130638
:1013A00050025285D685B697BD8E93940601C180B2
:1013B00033F6C402137BF60F978006E0E7802085A2
:1013C00005890DED8347D41201498149B384970201
:1013D000130C5002C1804A865285D685978006E05C
:1013E000E780E0820589937BF90F11C5638634039A
:1013F000850993F9F90F0509E31F89FD230B641390
:10140000B250225492540259F249624AD24A424B93
:10141000B24B224C456182805E8BCDB78327C508D5
:1014200003568508797193D60701BD8EC206C18225
:10143000358E1357764093575640898B058B5D8FB9
:1014400093573640918B5D8F93571640A18B5D8FDC
:1014500093171600C18B5D8F9317360093F7070221
:101460005D8F931756009355860093F707041E0669
:101470005D8F1376F60F518F93D7554013D63540B5
:10148000118A898BD18F13D67540D18F13D6154011
:10149000218AD18F13961500418AD18F139635007A
:1014A00013760602D18F13965500137606049E0517
:1014B000D18F93F5F50FCD8FA20745465D8F33078A
:1014C000C70222D42A8426D252CC56CA032A8409BF
:1014D000832AC4095AC806D63697420741839357D0
:1014E0007740135557400989858BC98F135537406D
:1014F0001189C98F135517402189C98F13151700FA
:101500004189C98F1315370013750502C98F13154B
:10151000570093558700137505041E07C98F13776D
:10152000F70FD98F13D5354013D755401189098B43
:10153000498F13D57540498F13D515402189498F9F
:10154000139515004189498F1395350013750502D0
:10155000498F13955500137505049E05498F93F522
:10156000F50F4D8F2207D98FB387C7024AD04ECED1
:101570005EC662C4B697C207C18313D7774013D53E
:1015800057400989058B498F13D537401189498FF9
:1015900013D517402189498F139517004189498F29
:1015A0001395370013750502498F1395570093D58E
:1015B0008700137505049E07498F93F7F70FD98F9E
:1015C00013D5354013D755401189098B498F13D551
:1015D0007540498F13D515402189498F1395150002
:1015E0004189498F1395350013750502498F13956D
:1015F0005500137505049E05498F93F5F50F4D8F22
:101600002207D98FB387C702130650025285D685A9
:10161000B697BD8E93940601C18033F6C402137B46
:10162000F60F977006E0E780805E05890DED834731
:10163000140801498149B3849702130C5002C180F8
:101640004A865285D685977006E0E780405C05891A
:10165000937BF90F11C563863403850993F9F90F5C
:101660000509E31F89FD230F6407B25022549254E9
:101670000259F249624AD24A424BB24B224C45616E
:1016800082805E8BCDB78327450903568508797123
:1016900093D60701BD8EC206C182358E13577640A0
:1016A00093575640898B058B5D8F93573640918BAE
:1016B0005D8F93571640A18B5D8F93171600C18BDA
:1016C0005D8F9317360093F707025D8F93175600CF
:1016D0009355860093F707041E065D8F1376F60F69
:1016E000518F93D7554013D63540118A898BD18FAE
:1016F00013D67540D18F13D61540218AD18F1396FA
:101700001500418AD18F1396350013760602D18FCA
:1017100013965500137606049E05D18F93F5F50FA9
:10172000CD8FA20745465D8F3307C70222D42A8496
:1017300026D252CC56CA032A840A832AC40A5AC81B
:1017400006D6369742074183935777401355574043
:101750000989858BC98F135537401189C98F135556
:1017600017402189C98F131517004189C98F131597
:10177000370013750502C98F13155700935587005D
:10178000137505041E07C98F1377F70FD98F13D56B
:10179000354013D755401189098B498F13D57540B2
:1017A000498F13D515402189498F1395150041891B
:1017B000498F1395350013750502498F1395550010
:1017C000137505049E05498F93F5F50F4D8F22077C
:1017D000D98FB387C7024AD04ECE5EC662C4B697D1
:1017E000C207C18313D7774013D557400989058BAA
:1017F000498F13D537401189498F13D51740218957
:10180000498F139517004189498F13953700137538
:101810000502498F1395570093D58700137505046A
:101820009E07498F93F7F70FD98F13D5354013D7FC
:1018300055401189098B498F13D57540498F13D5B0
:1018400015402189498F139515004189498F1395BA
:10185000350013750502498F13955500137505045E
:101860009E05498F93F5F50F4D8F2207D98FB387CA
:10187000C702130650025285D685B697BD8E939443
:101880000601C18033F6C402137BF60F977006E0A1
:10189000E780E03705890DED8347F4080149814968
:1018A000B3849702130C5002C1804A865285D685B4
:1018B000977006E0E780A0350589937BF90F11C585
:1018C00063863403850993F9F90F0509E31F89FD40
:1018D000230F6407B250225492540259F249624ACB
:1018E000D24A424BB24B224C456182805E8BCDB7CF
:1018F0000111B727002022CC03A4477A26CA4AC880
:101900004EC606CEAA8413092500854905C09C3021
:101910003830858B6304F700405CCDBF19469305D2
:1019200044004A85EFE09FD2E31835FF2285F2405C
:101930006244D2444249B249056182804111B727CD
:10194000002022C403A4477A26C24AC006C69304D4
:101950002500054901E82285B2402244924402490B
:1019600041018280A6851305A40297A005E0E780C7
:1019700040CDE30225FF405CF1BF4111B7270020B5
:1019800022C403A4477A26C24AC006C6930425008F
:10199000054901E82285B2402244924402494101AE
:1019A0008280A6851305A40197A005E0E78060C9A1
:1019B000E30225FF405CF1BF011122CC604126CA41
:1019C0004AC84EC652C406CEAA841D4A13096505EC
:1019D0008549BC446364F400054591A0D8345C207B
:1019E0006317470503C784026304F7000040D5B7B7
:1019F000583083C75405E31BF7FE1946CA85130503
:101A00006400EFE0BFC4E31335FF582483C794029A
:101A1000E31EF7FC7A24BE34E31AF7FC0145F240DA
:101A20006244D2444249B249224A05618280E31F9E
:101A3000F7FA583083C75405E31AF7FA1946CA85EE
:101A400013056400EFE09FC0E31235FBC1BF011135
:101A5000B727002022CC03A4C77926CA06CE2AC401
:101A60002EC6854419E40145F2406244D244056122
:101A700082809C841830858B6304F7000044DDB7B6
:101A800019469305A10013052400EFE03FBCE317BE
:101A900095FE0545D1BFB737002003A78783011105
:101AA0002AC62EC432C206CE3C4B93E707083CCB75
:101AB00097E005E0E780800DB736002083A7C68059
:101AC0003245A24523A0070018310348250022070C
:101AD00042084297034805004297034835006208D0
:101AE000429798D758310348650022074208429729
:101AF0000348450042970348750062084297D8D7CB
:101B000018350348A500220742084297034885007C
:101B100042970348B5006208429798DB583503485E
:101B2000E5002207420842970348C50068354297FE
:101B300062052A97D8DB9831A821220742052A9707
:101B400088212A97A83162052A9798CFD831E821B1
:101B5000220742052A97C8212A97E83162052A9769
:101B6000D8CF9835A825220742052A9788252A9795
:101B7000A83562052A9798D3D835E825220742056B
:101B80002A97C825EC352A97E2052E97D8D3D84353
:101B9000759BD8C3D84313671700D8C398431367FE
:101BA000170098C3124603A7C6805C43858BADEB34
:101BB0001C4F01451CA283A7C6809C4FA1831CB269
:101BC00083A7C6809C4FC1833CA283A7C6809C4F3D
:101BD000E1833CB283A7C680D84F58A2D84F218357
:101BE00058B2D84F418378A2D84F618378B29853C6
:101BF00018A69853218318B69853418338A6985352
:101C0000618338B6D85358A6D853218358B6D853D1
:101C1000418378A6DC53E1837CB6F2400561828083
:101C2000010051B7B737002003A787831605136556
:101C300005083C4B93E707083CCBB737002083A748
:101C4000C78003A7450E88C398CB03A7850E01451F
:101C5000D8CB03A7C50B98CF03A7050CD8CF03A7F4
:101C6000450C98D303A7850CD8D303A7C50C98D7E8
:101C700003A7050DD8D703A7450D98DB03A7850D4E
:101C8000D8DB03A7C50D98C703A7050ED8C798438F
:101C90001367070498C38280B737002003A78783A0
:101CA0001605136505083C4B93E707083CCBB7378F
:101CB000002083A7C78003A7C50E88C398CB03A7BE
:101CC000050F0145D8CB03A7C50B98CF03A7050C7B
:101CD000D8CF03A7450C98D303A7850CD8D303A767
:101CE000C50C98D703A7050DD8D703A7450D98DBDA
:101CF00003A7850DD8DB03A7C50D98C703A7050E5D
:101D0000D8C798431367070498C3B7370020938751
:101D1000C781130700F8F8A3828037370020832695
:101D20000781411126C29C5E06C622C499834AC01F
:101D3000858BBA84B1CB93070006373900209CDE2F
:101D40008347C9811304C98193F7070489CFB72753
:101D5000002083A78758829708C88347C98193F7D3
:101D6000F70B230EF9805C2093F7070491EF85476A
:101D70005CB0B737002083A78783096798C713072C
:101D800000FC58A05844F8D303A704811C5F91833A
:101D9000858B89CBC1471CDFB73700209387C7816C
:101DA0008546D4A31C5F9D83858B91CB9307000848
:101DB0001CDFB73700209387C7810547D8A3B73703
:101DC000002083A7C780D8430583058B19C7D84354
:101DD000759BD8C3D843799BD8C3B2402244924460
:101DE000024941018280B7370020B736002003A6A0
:101DF00087839387C68103C7C681058B11C723825A
:101E00000700A382070082809833058B6DFB785210
:101E10007DF3D833FDB737380020032708811C5FD6
:101E20009583858BBDE701C61C5BBD831CA29DC647
:101E300083270881985B460793576701635607001D
:101E400093E707C0C207C18303970600C207C18793
:101E500009C7BA970947B3C7E7029EA285C11C31DB
:101E600091CF3E951C350547194593F6F7066393C8
:101E7000E602E207E187394563CE07008327088140
:101E80003737002001459C5FED838D8BA303F782DC
:101E9000828005458280411122C406C63734002065
:101EA00026C2032784833DE5AE877453FDFEB73415
:101EB00000209384C4813E85B2852381040097E08D
:101EC00005E0E780E0A3B737002083A70781B706C6
:101ED00080009843558F98C3D857719BD8D78327D4
:101EE0008483A3820400A3800400094798C3832647
:101EF0008483B73700209387C781B823058B11E708
:101F0000B833058B51C723820700B2402244924464
:101F1000410182808D47631FF500B737002083A7FA
:101F20000781B70680009843558F98C3D857719B97
:101F3000D8D775BF8547E31CF5FAB567BD075CC701
:101F400001000100832784830967930600F898C77E
:101F5000373700201307C78154A337370020832663
:101F600007810946984231830D8B6319C700130717
:101F7000E043F8D33D673D07D8C795BF984231830A
:101F80000D8B01E713076019EDB71307E01BD5B7F9
:101F9000F85225F79DBF5D7152DC373A00200327C8
:101FA0000A8186C6A2C4A6C2CAC04EDE1C43B73987
:101FB00000203739002093F7F7E793E707081CC3A1
:101FC00083A649883707CEFF7D179C4613068002FB
:101FD0002A84F98F9CC6832789832800AE8423A88E
:101FE000070493051008EFE00FE197E005E0E780B4
:101FF000E0B997E005E0E78020C483270A81937663
:10200000F41F3706330023A40700984B370FFCFF5B
:102010004E881367F70398CBF84FCA88130510F85A
:10202000137707E0558FF8CF9843F576FD16758F37
:1020300098C337370020832689831307C781A302FB
:102040000700A3000700054798C29843D285B7024E
:1020500004001377F7E798C398439303401F11498F
:102060001377F7E71367071098C303A749887D1F05
:1020700085491C47930F8002D18F1CC79307900599
:10208000BCCA01473400135337002693834703002B
:1020900013767700B3D7C740858BE1C383A705814B
:1020A000832E4888239C07042390070603AECE02A4
:1020B000137EDEFF23A6CE0383AE0700137EF70751
:1020C00093FE0EF833EECE0123A0C70103AE470204
:1020D000336E5E0023A2C70383AE8883014E23A222
:1020E0007E0603DA070663074E0303AE0703038A7F
:1020F0000600135EFE00620E135E8E416358CA0135
:1021000003AE0703135EFE002380C60103DE07064D
:10211000137EFE0F03AA4E0663060A0003DA870544
:10212000E37F49FB03AE4702337EEE0123A2C703E0
:1021300083870600635CF400034E03003396C900F6
:102140001346F6FF3376C6012300C3003E8663D3F1
:10215000A7002A8613158601618505071377F70FF7
:102160008506E312F7F3B640264496440649F25931
:10217000625A616182803736002083278683D84780
:102180009316170163D2060298479316170163DD71
:1021900006007D57B8D7372700201307C74E544F86
:1021A000850654CF116798C798470D83058B11CFCB
:1021B000373700201307C781342393E6160034A372
:1021C000930600F854A3214798C79847058B19CB6D
:1021D000373700201307C781143393E6160014B372
:1021E000054798C798470983058B09E798470583F2
:1021F000058B31CB94473737002037350020898253
:10220000858AE5CE832605819442B1828D8AFDE2DE
:10221000AC4B9306C781944E93F505029432CDC51D
:10222000F9E69306D005D4CF8346C78193E616001E
:10223000230ED780114798C7032705815C57F19B70
:1022400093E717005CD7032786831C4793963701D3
:1022500063D40602B72700209386876E03C646071D
:102260009387876E418A55C283C7460793E7070263
:10227000238AF60685671CC71C479396270163DFF0
:102280000600B73700209387C781D423E206E18692
:1022900063D406008546D4A389671CC71C47939660
:1022A000070163D20602B72700209387876E83C693
:1022B0005707858ABDCA83C6570793E62600A38AB7
:1022C000D706A1671CC78280A9DE85456395B60045
:1022D0009306100689BF89456395B600930650069C
:1022E00099B78D456395B600930690062DBF93066A
:1022F000B00615BF9306C0063DB71307C781343338
:1023000093E6160034B309473DB783C6470709462D
:10231000BD8A6388C60083C647070D46BD8AE39B16
:10232000C6F49146238AD706B1B783C65707918A68
:10233000C9DA83C6570793E6860051B737370020BE
:10234000B73600201386C6831307C7855C372C3E3B
:10235000484AAE97FD8BB355F5001CB25CB7858932
:102360008DE9183B814613080002B3F7E7020147E5
:10237000B355E50085899378F70F89C96395D70030
:10238000A30016018280850693F6F60F0507E31178
:1023900007FF8280B727002083A78758011122CC2E
:1023A00026CA4EC606CE4AC88297B7340020938705
:1023B000C485804781496300A40437370020930710
:1023C000C783BC2F018D135455009384C485937922
:1023D000F5011309C783636DF4008D370347A90125
:1023E000944493175700BE96198C94C4E377E4FE87
:1023F0001604B3693401F24062444E85D244424926
:10240000B24905618280B727002083A78758411110
:1024100022C44AC006C626C28297373900209307D5
:10242000C98580476307A404B73400209387C48319
:10243000BC2F018D135455001309C9859384C4839F
:102440006369F402E53DBC2C03278900939657008D
:1024500036971D8C2324E900E376F4FE224488306D
:10246000B240924402498145410117E305E067000B
:1024700043CAB24022449244024941018280B737A4
:10248000002003A74788B75702009387079F83263A
:10249000070913965600635806008326070913960A
:0C24A000660063440600FD17FDF3828017
:1024AC00B72700203727002083A7474E0327C74DA7
:1024BC0001456313F7008280F62399E2D623369503
:1024CC009C43C5BFB727002083A50754372700209E
:1024DC0093870754138605222322C74EDA2393874A
:1024EC0085FFB72600204111BA97056523AEF64C3F
:1024FC0006C61D05935637006374E500930600204D
:10250C003307D600372500202320E54E23A0E522F3
:10251C00E11656A2231306001CC3998FE1175EA384
:10252C0023130700B53FB240B72700202399A74ECD
:10253C0041018280B72700203727002083A7474E10
:10254C008326C74D01456393F6008280FA2309E781
:10255C00DA236373E5003A859C43F5B71DC18346C6
:10256C00E5FF1307F00F9147639EE600411106C685
:10257C0097E0FB1FE78080B7B24081473E85410161
:10258C00828095473E85828001E901458280014524
:10259C00B24022444101828095654111938505D05A
:1025AC0022C4C98D2A842105C2054205C1814181FD
:1025BC0006C697E0FB1FE78020A871D9FD572320A2
:1025CC00050042A17CA12105E1B7ADC1B7270020D0
:1025DC0083C7D74E411122C406C62A842E85637543
:1025EC00F400894763E88700953F0D45B2402244CB
:1025FC004101828083A785FF99E703C7E5FF930715
:10260C00F00F6305F700993F1545CDB7372500202E
:10261C00238F85FE1305854E97E0FB1FE78040BC9A
:10262C0022852244B240A1654101ADAC15458280A2
:10263C00B727002023A4074E8280BDCD797122D408
:10264C0006D626D24AD04ECE01444147B3D7854058
:10265C00858BB1CF1205314722953305E502B7279B
:10266C00002003A907588544B3948400C204C18098
:10267C00BE892A990327090011C7032549002EC6D4
:10268C000297B24531473304E40283A709583E94BC
:10269C001C4489E72320090023220900B25022544C
:1026AC00A58D02599254F2492E854561828005040C
:1026BC00E31EE4F88144DDB72E8582804111139727
:1026CC00050122C406C626C24AC041872E84635126
:1026DC00070297E0FB1FE78040B211C14135A167AB
:1026EC003D8C2285B24022449244024941018280B1
:1026FC00EDD9AA8701474146B356E440858A9DCA65
:10270C009207BA97B146B387D702B726002003A920
:10271C0006588544B394E400C204C1803E998327D3
:10272C000900032549008297232009002322090070
:10273C00258C45BF0507E311C7FC8144D5BFB727DE
:10274C00002083A74756411122C406C63724002017
:10275C001304843291C782971C403E9508C031A067
:10276C00B727002083A78758FDF70840B747030019
:10277C009387D73F3305F502B7A72600938737EC2D
:10278C00B2403E9508C022444101828065C537485D
:10279C0036FE1308F8C78947636FC80C7971B727E1
:1027AC00002022D45AC803A807583E8B06D626D23E
:1027BC004AD04ECE52CC56CA5EC662C40144B14811
:1027CC00C147B30B1403137CF40F330378010323B9
:1027DC000300631C0308AE8AC165AA84938505F0C7
:1027EC0041453A8AB689328997E0FB1FE780C0845D
:1027FC0005E9B727002083A7475799EF8147B250C7
:10280C00225492540259F249624AD24A424BB24B78
:10281C00224C3E8545618280814511458297F9BFE6
:10282C00B726002003A7C6530DEF23AEA6522300F4
:10283C00050083270B580547331487002326050012
:10284C002324250122A123224501DE9784C323A240
:10285C00570123A44701E38309FA2380890179BF37
:10286C0036875447F5FE48C7D9B70504E31BF4F483
:10287C00A14771B789473E858280B727002083A77F
:10288C004758411122C406C6372400201304C44EF5
:10289C0089C782975C483E9548C84848B240224454
:1028AC0041018280B727002083C7D74E637EF50095
:1028BC003727002093171500032587533E951E21BB
:1028CC00DD8D0EA1014582800D458280B727002049
:1028DC0083C7D74E6370F502372700209317150076
:1028EC000325875393C5F5FF3E951E21FD8D0EA143
:1028FC00014582800D45828001114AC806CE22CC4A
:10290C0026CA4EC652C49307F002094963EEA706C5
:10291C00B146B306D502B727002003A707580949CB
:10292C0036971C43B5C3135A450005443D893315EE
:10293C00A400131405014180AE845285A28597E052
:10294C00FB1FE780E092AA8901491DCDA285528523
:10295C00B53FB727002083A787588297B727002059
:10296C0083D7E7552A841306006433879702814680
:10297C00B3B7970213050732B335E500BE95EF6088
:10298C008206229523A4A900F24062444A85D244CF
:10299C004249B249224A05618280B727002083C789
:1029AC00D74E6364F500014582800111B7270020E2
:1029BC0052C403AA875806CE22CC26CA4AC84EC691
:1029CC00630D0A083729002013090954AE89835571
:1029DC00E9012A84B284B387C5028146B3B5C50226
:1029EC0013850732B337F50013060064BE95EF501C
:1029FC00927FB74736FE9387F7C763E0A706029A24
:102A0C008355E9012A8A13060064B387950281462F
:102A1C00B3B5950213850732B337F500BE95EF5069
:102A2C00927C2A9ACE85228597E0FB1FE780408412
:102A3C0009C523244501054515A0936504F0C2057D
:102A4C00C181414597D0FB1FE780005F05E18327DB
:102A5C00490381C7A285114582970145F240624422
:102A6C00D2444249B249224A05618280372700206C
:102A7C008327C75385E3232EA752854723260500BA
:102A8C00232445012311350100A11CB1232205008B
:102A9C005DB7BA87D84775FFC8C7C5B741C9797143
:102AAC0022D426D24AD04ECE52CC56CA5AC85EC672
:102ABC0062C406D6B689B28A2E8A2A899304000C7F
:102ACC004144372B0020054C930B000383270B58F4
:102ADC00A6979C43A1E79375F400B315BC00C205FF
:102AEC005686C181135544004D3D0DC983270B58A3
:102AFC000145BE9423A0240123A244016384090050
:102B0C0023808900B250225492540259F249624AED
:102B1C00D24A424BB24B224C45618280050413745D
:102B2C00F40FB104E31474FB2145E9BF094582801D
:102B3C00411122C426C24AC006C62A842E89B284F8
:102B4C00A93DCA85228597D0FB1FE780607205CD11
:102B5C00B727002083D5E7552A8413060064B38772
:102B6C0095028146B3B5950213850732B337F5004C
:102B7C00BE95EF50526748C00145B2402244924482
:102B8C000249410182802145CDBF411122C426C298
:102B9C004AC006C62A892E8497D0FB1FE780406D59
:102BAC00AA8419C123110500A2854A850533B727CC
:102BBC00002083C7C74E63992701B727002003D78E
:102BCC004753598C239A8752014591E01945B240DD
:102BDC00224492440249410182809307F00263E847
:102BEC00A7044111B14722C43304F50226C2B7240D
:102BFC00002083A7045806C6A2979843894715C39B
:102C0C009377F5008545B395F500C205C181118117
:102C1C00AD3F83A70458A29723A0070023A2070067
:102C2C008147B240224492443E85410182808947CB
:102C3C003E858280411106C622C497D0FB1FE780D7
:102C4C00206311E50145B240224441018280B7273F
:102C5C00002083A7875800458297B74736FE330577
:102C6C00A4409387E7C7E3EFA7FC93070064B33551
:102C7C00F502372700200356E75581463305F50248
:102C8C00EF507256C9B74111B727002006C623A2D0
:102C9C00A7580295B240B727002023A2A7500145A0
:102CAC0041018280994763E9B700B72700208A0564
:102CBC0093878751BE9588C18280B727002023AEA9
:102CCC00075237250020B7270020411123A20758AF
:102CDC007146B727002081451305855106C623A4EC
:102CEC00075822C426C23724002097D0FB1FE78048
:102CFC0000691305C44E13068002814597D0FB1F53
:102D0C00E780E067EFF00FFCB727002083C757552B
:102D1C001304C44E854513D527008D8B3E958D47E6
:102D2C003305F5029947B724002039051375F50FC3
:102D3C0028A03305F5021305052497D0FB1FE78067
:102D4C00A02F23A0A45825CD3020994781453306C8
:102D5C00F6021306062497D0FB1FE780406283A778
:102D6C0004583820B7240020938707240A0723AA85
:102D7C00F450BA9737270020232CF75255387D2E64
:102D8C001C3083A64451372604001397270036972E
:102D9C001306666410C3138717001377F70F0A071F
:102DAC003726040036971306866C10C3138737003A
:102DBC00890793F7F70F8A0718B0B69790C3B240FC
:102DCC002244924441018280372700201307C74ECA
:102DDC001C33342363FFD700B726002083A646514B
:102DEC001386170010B313972700369708C33E8538
:102DFC0082809307F00FE5BF1C41E9CB41777D8FB3
:102E0C00B706002089476314D70C5A2169C34111B6
:102E1C0026C21946AA849305F00F610506C622C482
:102E2C0097D0FB1FE780405F05478D47630AE50895
:102E3C009C4491C7985C994741C7D85C51C33724CF
:102E4C0000201306000481451305045497D0FB1F82
:102E5C00E780E05213060004A6851305045497D0AE
:102E6C00FB1FE780804E93070454DA2701E7130712
:102E7C000010DAA7F82719E30547F8A79A2B19E3EE
:102E8C006D479AABF83719E31547F8B7B82B19E328
:102E9C000547B8ABB83B19E3F837B8BBD82B19E3E7
:102EAC002547D8ABF82801E71307C003F8ABDC576C
:102EBC0091C78297B7270020239AA74EFD3B8147E5
:102ECC00B240224492443E854101828089473E852E
:102EDC008280B727002083A78758011106CE22CC09
:102EEC0026CA4EC64AC88297B727002083D9E75511
:102EFC0093070064B335F5024E8681463305F5021F
:102F0C00EF50722EB72700201387C74E004FAA84AC
:102F1C000145630494021389C74E33858440636C66
:102F2C0094004E8681461305009C9305F063EF5088
:102F3C00922B018D2695232C9900F2406244D244A9
:102F4C004249B24905618280011122CC2E84B79589
:102F5C0006000A854146938585E306CEEF50D26183
:102F6C00180806043A94B7270020035504FF83D7AA
:102F7C000756F2406244AA9737450F001305052403
:102F8C003355F50205618280B727002083D7075699
:102F9C0051471D45637CF702794719456378F70261
:102FAC001307200315456373F7021307B00411458B
:102FBC00637EF700130740060D456379F70013078E
:102FCC00600909456374F70013B5B70F82800111CE
:102FDC0022CC06CE2A842EC6EFF06FF6B245F24014
:102FEC00818D33A5A502229562441375F50F0561F9
:102FFC008280011122CC06CE2A842EC6EFF02FF44B
:10300C00B245F240818D33A5A5022295624442055A
:10301C00418105618280011122CC06CE2A842EC604
:10302C00EFF0EFF1B245F240818D33B5A502229558
:10303C00624405618280B7270020138707545857D4
:10304C0039CF411122C426C24AC006C6138907547F
:10305C000297B72700201387C74E1A272A84938418
:10306C00C74E05CBBA876373A700AA87C207C18373
:10307C00BA866373E400A286C206C182958F51475B
:10308C006359F7008327090391C38297EFC0314935
:10309C0082A4B2402244924402494101828082803F
:1030AC00011122CC37240020930704549C5B06CEDC
:1030BC001304045481C72AC68297324529C57A2C39
:1030CC0085470DCF1A301DCBB727002023A4A75856
:1030DC007C3899EF6A2C9307805737460F003305DD
:1030EC00F5021306062481468145EF50D20F68B8CD
:1030FC00373504001305E5ED79368147F24062441B
:10310C003E8505618280B72700209387C74E23AE8A
:10311C000700E17793C727A17EAC930720031EB06D
:10312C007D57B747024023A4E726B707002037276F
:10313C0000209387276C2324F75859BF011122CC08
:10314C003724002093070454884706CE26CA4AC861
:10315C0001E90545F2406244D2444249056182804E
:10316C00130404541C5CF5D7585C65D77000854576
:10317C0082971844B247E30EF7FC4A249305E00407
:10318C00B724002097D0FB1FE78000EB1387C44EB9
:10319C0008D39384C44E55DD52249305F00F014996
:1031AC0097D0FB1FE780A01D7C249050634DF90045
:1031BC00328597D0FB1FE78060F3014523A0040202
:1031CC0023A2040241BF4E240844585CB387250354
:1031DC00898105093E9508C20297F9B7411122C4AD
:1031EC0037240020930704549C4726C206C6B724F4
:1031FC0000204AC09384C44E91EB885039EDB24004
:10320C002244924402490145410182801304045432
:10321C005C5CE5D79C5089EB4A249305E00497D07D
:10322C00FB1FE78060E188D0885061D95224930558
:10323C00F00F014997D0FB1FE78060147C2490505D
:10324C00E35DF9FA4E241C44338525038981050975
:10325C003E955C5C08C28297D5B797D0FB1FE78080
:10326C00E0E823A0040223A2040251BF01114EC6C0
:10327C00B7290020938709549C4726CA4AC852C4D0
:10328C0006CE22CC56C25AC02A8AAE8432896388B2
:10329C00071E9389095403A78903630207121307B6
:1032AC00F01F6360A712372400201307C44E832A33
:1032BC0007021304C44E63980A0803D5C900956528
:1032CC00938515E097D0FB1FE78000D708D02A869E
:1032DC007DC583D5C90083A7890303A5890089818E
:1032EC00829783A78900832A04025CD089476314E0
:1032FC00FA08C1476395F40C83D5C90091479385AF
:10330C0005FCB3C5F5028A05D695B8219307A0052F
:10331C006313F70A9E216390470B4A852686910515
:10332C0097D0FB1FE78060021C50568563915713A2
:10333C000145F2406244D2444249B249224A924A7F
:10334C00024B056182805850E382E7FA03D5C9002D
:10335C009565938525E097D0FB1FE780E0CDAA8A81
:10336C0039CD83D5C9002A8683A7890303A5890093
:10337C0089818297A5BF8D47631BFA00C147639073
:10338C00F40483D5C900938545FDF199B5BF9147E8
:10339C006318FA006395440383D5C900A115F5B7EA
:1033AC0093070010631DFA00A14763EA970083D5C9
:1033BC00C900C115D9BF1C505685639D570B2945B3
:1033CC008DBF9D6A637A5509930A05E01947B3CA04
:1033DC00EA0203D7C900372B0020B38AEA02BE9A4F
:1033EC009307CB4EDC53130BCB4E63955701032441
:1033FC000B021DE003D5C9009305E00497D0FB1F19
:10340C00E78080C32A8445DD83D5C90083A789035F
:10341C002A8689815685829791451307A005898153
:10342C0093972500A297B4236391E6049623639C9B
:10343C00460385058A052686A2954A8597D0FB1FEB
:10344C00E780A0F083270B02E38487EE228597D0D8
:10345C00FB1FE780A0C9E9BD21677917E361A7F6D7
:10346C00B30A5541BDB7AC335DBF83270B02E3886C
:10347C0087F4228597D0FB1FE78040C789B7B72711
:10348C00002083A5C75085DD91479306A00589834D
:10349C00139727002E973023E313D6F21223631CC5
:1034AC00460185078A072686BE954A8597D0FB1F5D
:1034BC00E780A0E9B5BD3C33D9BFB727002093877F
:1034CC000754984721C3D85F15CF8546631CD50296
:1034DC00411122C4372400201304C44E105006C6D8
:1034EC0011CECE27485089810297085097D0FB1FE8
:1034FC00E780C0BF2320040223220402B2402244EE
:10350C00410182808280011122CC37240020930754
:10351C00045456C283AA870026CA4AC84EC606CE91
:10352C0052C42A89AE84B28913040454638D0A1AD6
:10353C005C5C99EB2945F2406244D2444249B24961
:10354C00224A924A056182801C5CEDD79307F01FDA
:10355C0063E1A70C372A00209307CA4E9C53130A29
:10356C00CA4EA9C7084483274A02639CA70489470B
:10357C006313F906C147E39FF4FA4A2491471305F4
:10358C0005FC3345F5029317250003250A02268610
:10359C00CE853E959307A0053CA12310250111056E
:1035AC0097D0FB1FE78060DA014571B74A24930579
:1035BC00E00497D0FB1FE78020A82320AA025DF12E
:1035CC0095BF4E241C5C03260A02898182971C44F9
:1035DC002322FA0269BF8D47631BF900C147E39BA5
:1035EC00F4F44A24130545FD9377C5FF79BF914741
:1035FC006317F900E39024F54A242115F5B79307D6
:10360C000010E319F9F2A147E3E697F24A244115B9
:10361C00E1BF9D676375F506930705E01947B3C7CE
:10362C00E7025A24372A0020B387E702BE9A930791
:10363C00CA4E9C53130ACA4EB1CB83274A026392DB
:10364C00570703250A0291461308A0059305F00FAE
:10365C0093D72600139727002A9730236312060767
:10366C0083580700303363992805B306D64063C4EA
:10367C00960485078A072686CE853E9515B7216761
:10368C007917E369A7EAB307F54061BF4A249305AC
:10369C00E00497D0FB1FE780209A2320AA0251FD5B
:1036AC0051BD4E241C5C03260A02898156858297E3
:1036BC0023225A0379B70EA393160601C18249BF80
:1036CC005224B38596009105130606FCE3F4C5E677
:1036DC0013863400719A1106B29623010701231048
:1036EC00270134B379B7372A00209307CA4E9C536D
:1036FC00130ACA4E95CF03250A0291461308A0055A
:10370C009305F00F93D72600139727002A973023A1
:10371C006310060583580700303363972801B306FE
:10372C00D640E3D896F40EA393160601C182D9BFF6
:10373C0068245E249305E0043305F50242054181BB
:10374C0097D0FB1FE780408F2320AA024DF5DDB3F5
:10375C0052246C24B385C502338696001106E3EB24
:10376C00C5DCBDB7014582809C211CA1BE211CB1CA
:10377C00BE21A1833CA1DC213CB111458280B7273D
:10378C00002023AE0734B727002023AC07348280F7
:10379C000DCD411126C206C622C4AA8401458DC195
:1037AC002E84B795060022854146938585E497D0F3
:1037BC00FB1FE78080B99C2005455CA49C305CB461
:1037CC00B240224492444101828001458280011121
:1037DC0022CC26CA06CE0947AA8432846381E5042A
:1037EC0041468147639BC500638FE6006397B60033
:1037FC000DA841478147638EE600F2406244D244F3
:10380C003E85056182808A852285593741468A85A5
:10381C0019A88A85B53F41468A85228531A0E39A4D
:10382C00B6FC2E86A285268597D0FB1FE78080BA32
:10383C00AA87E1B7B727002023ACA7348280B7272B
:10384C00002023AEA7348280011122CC622106CE47
:10385C0026CA4AC84EC62DCC83298500AE842A8838
:10386C0003C9090081471317890161876355070252
:10387C00B147054563F787045114420403552800EA
:10388C00418033878900A2864E868545EFB0402C57
:10389C00B337A00085077D141355690042040589D0
:1038AC001379F90341809CA088B023812401C2A024
:1038BC00014719C01387190098C409476383E700AF
:1038CC000145F2406244D2444249B24905618280CA
:1038DC000545C5BFC167F917630AF502D94763F7F8
:1038EC00B702011122CC2EC606CE2A84EF80702C92
:1038FC00B2456368B50022856244F24005616FA051
:10390C00201BF2406244054505618280054582809A
:10391C00C167F9176314F5006F80B029411106C611
:10392C00EFA0800711E15D45B240410182809147D3
:10393C00639DF5001C211CA23C211831A207D98FD4
:10394C003EA23C3101455CA282801145828041112E
:10395C00814522C426C206C6AA84BD232A8409E94D
:10396C00B727002083A7873581C7F945268582971D
:10397C002285B240224492444101828039714ED654
:10398C0056D25AD006DE22DC26DA4AD852D4AA8A7B
:10399C002E8BB28951EB36C6A53F9145EF80103086
:1039AC00AA844D493DC5B246054A238034010544DD
:1039BC00630A0B00B68513851400029B05051314CE
:1039CC0005014180E20993D9894163D30902C145BC
:1039DC005685EFA0C00A654915E533868400A2859B
:1039EC002685EFA0505E2A8911ED310442044180F6
:1039FC0091472C085685FC8426CEE085EF909021CB
:103A0C002A8901C963070A00268597C0FB1FE78036
:103A1C00E06DF25062544A85D2544259B259225A3E
:103A2C00925A025B21618280BA84014ABDBF0111A6
:103A3C0022CC26CA4AC84EC606CE2A893284B689FA
:103A4C00353FAA840DE1B727002083A7C73581CF66
:103A5C0005476317E40003C4090005041374F40F4D
:103A6C00A2854A858297F240624426854249D24417
:103A7C00B24905618280AE86B73504000147054620
:103A8C00938545776DB79E211CA19E21A1831CB106
:103A9C00094582809E211CA19E21A1831CB1BE21BF
:103AAC003CA1BE21A1833CB1114582809E211CA169
:103ABC009E21A1831CB1BE213CA1BE21A1833CB19E
:103ACC00DC315CA1FC215CB18A25190542054181E0
:103ADC0082809E211CA19E21A1831CB1094582805C
:103AEC009E211CA19E21A1831CB1BE213CA1BE2103
:103AFC00A1833CB111458280CA2106054205418152
:103B0C0082809E211CA19E21A1831CB1AA210905A2
:103B1C004205418182809E211CA19E21A1831CB162
:103B2C00BE213CA1BE21A1833CB1CA211105420595
:103B3C00418182809C211CA1054582809E214111DE
:103B4C0022C406C61CA19E212E841105A183A30E9E
:103B5C00F5FEBE219505230FF5FE83D7D5FFA18376
:103B6C00A30FF5FE03C6F5FF97C0FB1FE780E07DB2
:103B7C004820B24022441105410182808947639953
:103B8C00F5001C3118210145A207D98F1EA2828095
:103B9C00114582809A21D94763FDE702011122CC9D
:103BAC0006CE2EC62A84EF80D000B2469E22636DCC
:103BBC00F50022856244F240B745040001470946EE
:103BCC00938525A905615DBBF240624409450561F9
:103BDC00828009458280914785C51421FD15C20557
:103BEC008547C1816390F60213D725008D899147D3
:103BFC0081E9914711C7050534A21AA248C2814731
:103C0C003E85828009479147E39CE6FEC94733D73E
:103C1C00F502B3F5F502E1BFAE86B74504000147E6
:103C2C001146938505AA99BB93F7350089EB8981D9
:103C3C00914781C50EA248C281473E85828091473B
:103C4C00EDBFD8218947631CF702011122CC2A84CD
:103C5C00C84506CEAE86014709C92EC69D4597C0FC
:103C6C00FB1FE7806054B2462A8722856244F240EB
:103C7C00B74504001946938585AB056101B3094529
:103C8C00828099E1114582801C2105473EA2E37B8D
:103C9C00F7FEFD1593F5F50F33D7F502B387E70261
:103CAC00E392F5FE050548C21AA201458280DC218B
:103CBC000947AE866385E70041476399E700B7453E
:103CCC00040001472146938585B44DB9094582808E
:103CDC000EA291E1014548C201458280AE86B745EE
:103CEC000400014729469385E5AD49B90EA291E13F
:103CFC00014548C201458280AE86B74504000147A4
:103D0C0031469385C5AE9DB90EA291E1014548C2DD
:103D1C0001458280DA21854763FFE702011122CC3D
:103D2C002A84884106CE1DC12EC6854597C0FB1F2F
:103D3C00E78080472A8722856244B246F240B74525
:103D4C0004003946938545B005610DB9F2406244D3
:103D5C0009450561828009458280914785C51821F6
:103D6C008D46914763F0E602FD15C205C181B3C6CD
:103D7C00E5023308D70263970501050516A23AA29E
:103D8C0048C281473E858280DC210947AE86638527
:103D9C00E70041476399E700B745040001474146F6
:103DAC00938585B4E1BE09458280B335B000139587
:103DBC0025008280011122CC26CA06CE9825854783
:103DCC00AA842E844946631FF70099363E20491574
:103DDC001306200963C8A700F2406244D244094587
:103DEC0005618280183485476314F7001366060456
:103DFC00484001C98D4532C697C0FB1FE780C03AC9
:103E0C003246A2866244F2402A872685D244B745C0
:103E1C0004009385E5B0056195B68D4763F8B7024C
:103E2C001C311821F115A207D98F1EA23C31382163
:103E3C00C205A207C181D98F3EA24EA289C5110528
:103E4C0008C60145828023240600E5BF1145828007
:103E5C00011122CC2A84884506CEAE8601C92EC615
:103E6C00954597C0FB1FE7802034B2462A872285F0
:103E7C006244F240B74504005946938525B205616A
:103E8C00F5BCB335B000139525008280AE86B745DE
:103E9C00040001476146938505B4CDB485471145AF
:103EAC0063F0D7021C320C22A207CD8F1EA393877E
:103EBC00E6FF3EA389476386F600090650C3014519
:103ECC00828023220700E5BF014781467946814560
:103EDC0075B49E211CA19E21A1831CB10945828031
:103EEC00BC2105471CA18A216397E7000A0505053B
:103EFC00420541818280C9473305F502CDBF8A2135
:103F0C000A05420541818280BE211CA18A21BE2165
:103F1C003305F50205054205418182808A218280A4
:103F2C008A2182808A218280BE211CA18A21BE2105
:103F3C003305F50205054205418182809E211CA1B5
:103F4C009E21A1831CB1BE213CA1BE21A1833CB109
:103F5C00CA2111054205418182809E211CA19E210E
:103F6C00A1831CB1AA2109054205418182808947A0
:103F7C0011456398F6001C3214220145A207D58F17
:103F8C001EA382809A21D947AE8663F9E700B74514
:103F9C00040001470D469385E5ED51BC094582802F
:103FAC001145639DA6001C3214220145A207D58F32
:103FBC001EA33C323422A207D58F3EA38280BC21A3
:103FCC000547FD1793F7F70F6361F7049E2195CF13
:103FDC00011122CC2A84C84106CE1DC12EC68945AA
:103FEC0097C0FB1FE780401C2A8722856244B2469B
:103FFC00F240B745040015469385C5EE056105BC36
:10400C00F2406244094505618280094582809547EA
:10401C00114563F1D706411122C426C24AC006C617
:10402C001C32BA841822A2073284D98F9EA03C324B
:10403C00382293054400A207D98FBEA08947DCA083
:10404C00094613855400368997C0FB1FE780E02F83
:10405C009307A9FF9EA49947631BF90023A60400AC
:10406C00B240224492440249014541018280190424
:10407C00C0C4FDB782809E2195CF011122CC2A8429
:10408C00C84106CE1DC12EC6854597C0FB1FE780D3
:10409C00A0112A8722856244B246F240B74504003B
:1040AC001D469385A5F0056159B2F240624409455D
:1040BC0005618280094582809947639DF602894794
:1040CC00411106C65CA31C321422B285A207D58FFF
:1040DC001EA33C3234225023A207D58F1305570060
:1040EC003EA3910597C0FB1FE7802026B2400145F7
:1040FC0041018280D14711456394F600C147C9B78D
:10410C0082809E219DCF011122CC2A84C84106CEEB
:10411C0005C52EC6894597C0FB1FE780E0082A8796
:10412C0022856244B246F240B74504002546938589
:10413C0045F105616FF0BF8FF2406244094505619E
:10414C00828009458280894711456398F6001C32AC
:10415C0014220145A207D58F1EA38280011122CC07
:10416C002A84C84106CEAE86014709C92EC68545AC
:10417C0097C0FB1FE7804003B2462A872285624422
:10418C00F240B74504002D46938585F205616FF02A
:10419C001F8A1145639DA6001C3214220145A207FB
:1041AC00D58F1EA33C323422A207D58F3EA382802A
:1041BC00011122CC2A84C84106CEAE8601C92EC676
:1041CC00854597C0FB1FE78020FEB2462A872285D3
:1041DC006244F240B745040035469385C5F205614B
:1041EC006FF0FF8493F71600114581EB89476386C6
:1041FC00F600858256A310C301458280011122CCA2
:10420C002A84C84106CE05C52EC6854597C0FB1F1E
:10421C00E78080F92A8722856244B246F240B7458E
:10422C0004003D46938505F305616FF05F80F24015
:10423C0062440945056182809E219DCF011122CCEB
:10424C002A84C84106CE05C52EC6894597C0FB1FDA
:10425C00E78080F52A8722856244B246F240B74552
:10426C0004004546938545F305616FF04FFCF24021
:10427C00624409450561828009458280854763F661
:10428C00D70208A70CB71C320C22A207CD8F1EA395
:10429C009387E6FF3EA389476386F600090650C361
:1042AC000145828023220700E5BF1145828001472A
:1042BC0081464D4681456FF08FF78D47114563F46C
:1042CC00D7021C320C22A207CD8F1EA33C322C220B
:1042DC00A207CD8F3EA39387C6FF5EA36386A6007D
:1042EC00110610C70145828023240700E5BF011188
:1042FC0022CC2A84884506CEAE8601C92EC69545A9
:10430C0097C0FB1FE78040EAB2462A8722856244A9
:10431C00F240B74504005D46938585F405616FF066
:10432C000FF1854711456395F6001C2201451CA32E
:10433C00828001478146654681456FF04FEF011140
:10434C0022CC2A84C84106CEAE86014709C92EC6A6
:10435C008D4597C0FB1FE78020E5B2462A87228552
:10436C006244F240B74504006D46938565F60561DD
:10437C006FF0CFE0011122CC2A84C84106CEAE8664
:10438C00014709C92EC68D4597C0FB1FE780C0E1C8
:10439C00B2462A8722856244F240B745040075462E
:1043AC00938565F605616FF06FDD011106CE2EC6A3
:1043BC00EF90A05A19C5B245F2402A2105616FD081
:1043CC00A067F240494505618280B7270020A3848D
:1043DC000738B727002023840738B727002023A8E5
:1043EC000736B727002023AA0736B727002023ACAF
:1043FC000736B727002023AE0736B727002023A6A1
:10440C000736B727002023A40736B72700202396AA
:10441C00075A930640389387C75AB6B3F1761307F9
:10442C00400B938606B8BAA3D6B311679D46130604
:10443C0000059305000A1305007DDAA3F6B3414786
:10444C008546130810F8BAA7DAA7BAABDAABFAAB01
:10445C009AAF9AB723960703EEA38EA7F2A792AB57
:10446C00AAAF239E0700239F070023900702B6B72D
:10447C00239707021308F007239807022392E704F7
:10448C002393E704239FE7042390E7062391E70691
:10449C002392E706239907031307C01CD6BBF6BB70
:1044AC00239C0702239D0702239E0702239F0702DA
:1044BC00239007042391D70423940704239507041E
:1044CC002396D7042397C7042398C7042399A704DA
:1044DC00239A0704239B0704239C0704239DC704EA
:1044EC00239EC7042393A706239407062395070648
:1044FC00239607062397B7062398B7062399070632
:10450C00239AE7065147239DE7067D57239B070611
:10451C00239C0706239ED706239F07062390E708B4
:10452C008280011126CAAA84214522CC06CE2E8473
:10453C0032C636C43AC2EFE02F850DC5A2461247EB
:10454C003246930700FD1CA1994704B13CA174A10C
:10455C0078B152A1AA8522856244F240D244056109
:10456C006FE0AF86F2406244D24405618280B72787
:10457C00002023A8A7368280B727002023AAA736BD
:10458C008280B727002023ACA7368280B727002073
:10459C0023AEA7368280011122CC4AC806CE26CA89
:1045AC002A890144B30489006368B400F240624470
:1045BC00D2444249056182802EC6EFE04F98931792
:1045CC000501C183A183B2459CA09307140093F706
:1045DC00F70F850463F8B700CA97090488A313740E
:1045EC00F40FC9B73E84C9B7411122C43724002047
:1045FC001304C4586A20C16706C6FD17630EF50084
:10460C00B727002003C6476DB725002093850538D2
:10461C00EF90C016FD577EA0B2402244410182802B
:10462C0009C925151375F50F1335850E134515009E
:10463C0082800145828023900500C1C6797122D405
:10464C0026D24ECE52CC5AC806D64AD056CA5EC6D0
:10465C003684328AAE892A8B814463F24407B307CD
:10466C0094009C23138914004209939A070193DA4E
:10467C000A011359090163840A04CA976341FA04B5
:10468C00B307240183CB07005E85593F0DC993877F
:10469C00FAFF2390F90063906B0313051900229520
:1046AC00B250225492540259F249624AD24A424BB5
:1046BC00B24B45618280D694C204C18079BF01455A
:1046CC00C5B701458280011122CC3724002026CAAF
:1046DC004AC84EC69307C45806CE2E89D0CB8CCB75
:1046EC00C8C7AA8441469305F00F4A8597C0FB1FA3
:1046FC00E78080D285491304C458631935030848F0
:10470C00C145513D41469305F00F268597C0FB1FCF
:10471C00E78080D005496315250348446244F24084
:10472C00D2444249B249C1450561B5B541468145BE
:10473C004A8597C0FB1FE78020CEE31535FDC1B736
:10474C0041468145268597C0FB1FE780E0CCE306F8
:10475C0025FDF2406244D2444249B249056182804F
:10476C00411122C43724002026C24AC0AE842A89B3
:10477C001306000281451305C45806C697C0FB1FDB
:10478C00E780E0BF9307C458A3812701B727002017
:10479C00238C976CEFD0802C854719C181474945F4
:1047AC002306F458B24022449244024941018280CB
:1047BC00814791C909C985476319F500DC3193E735
:1047CC0007FCDCB185473E85828089476316F5007E
:1047DC00DC3193F7F703F5B70D478547E315E5FE95
:1047EC00D8311377F70313670704D8B1E9BF8147B2
:1047FC0085C119CDD8319306000C85471377070C6A
:10480C006308D700930600048D476303D7008947DC
:10481C003E858280411122C4005D06C626C21DC899
:10482C00AA84085009C597C0FB1FE780208C48500C
:10483C0009C597C0FB1FE780608B085409C597C05A
:10484C00FB1FE780A08A228597C0FB1FE780008AA8
:10485C0023AC0402B240224492444101828019E903
:10486C00B727002083C7E75891C7372500201305C9
:10487C0005368280372500201305455A8280B727DC
:10488C00002003C5E7588280B727002003A587596D
:10489C008280B727002003A5C7598280B727002044
:1048AC0083A7075A88438280B72700209387C7586D
:1048BC00D44B9842050798C2A8339307F00F6305B1
:1048CC00F50091656FD01FFE8280011122CC06CEBF
:1048DC002E8432C6EF9000199147B2456310F50251
:1048EC00B727002083A7C73795C303A30700630F1F
:1048FC00030022856244F24005610283B727002041
:10490C0083A7473781C703A34700D5B7F24062445A
:10491C00054505618280011122CC2A844A2106CEEC
:10492C0026CA4AC84EC697C0FB1FE780E0E62DC5D5
:10493C002A8904218349C500F13D4A85EF90C05076
:10494C004A20EF90600D37290020130989388347DE
:10495C000900B9C763969704B727002083C5973819
:10496C002685A13419E1230009004A20EF90800F1D
:10497C009147631CF500B72700209387C758562032
:10498C00FA236394E6007D57FAA3F2406244D244C2
:10499C004249B2490561828081499304F00F65B7A1
:1049AC009307F00FE383F4FC7420522028204E87E9
:1049BC00A685853E5DBF79715EC6AA8B2E8552CCCD
:1049CC0056CA5AC806D622D426D24AD04ECEAE8A61
:1049DC00328B368A97C0FB1FE78000DC6DC1045D0B
:1049EC002A89F1CC9C50614599C3130540039C5412
:1049FC0081C751054205418163050A0071054205D5
:104A0C004181DC5081C7590542054181EFD0DFB7A8
:104A1C002A8455C56146814597C0FB1FE7802096C7
:104A2C00B727002083C9C75D639409008349090037
:104A3C00930700FD1CA0A947A30074013CA023030D
:104A4C0064018C50231254011305840191C908C4CC
:104A5C007146930A440397C0FB1FE780008F56856D
:104A6C008C5491C948C45146930A450197C0FB1F09
:104A7C00E780A08D5685630C0A0008C87146D28564
:104A8C00930AC50197C0FB1FE780208C5685CC503C
:104A9C0099C548C8594697C0FB1FE780008BA28573
:104AAC004E85EFD09FB22254B2509254F249624AD2
:104ABC00D24A424BB24B4A8502594561A1BBB25016
:104ACC00225492540259F249624AD24A424BB24B96
:104ADC004561828001114EC6AA892E854AC806CE30
:104AEC0022CC26CA2E8997C0FB1FE780E0CA29C5B5
:104AFC00B727002083C4C75D91E004211945EFD08E
:104B0C00BFA82A8415C98145194697C0FB1FE780A9
:104B1C000087930700FD1CA0B947A30034013CA0FB
:104B2C0023122401A2856244F2404249B2492685EF
:104B3C00D24405616FD07FA9F2406244D24442490D
:104B4C00B2490561828039715ECEAA8B2E8526DA38
:104B5C004ED652D456D25AD006DE22DC4AD8AE8477
:104B6C00328BB68A3A8ABE8942C697C0FB1FE78051
:104B7C00A0C229C92A894145EFD01FA12A8439C175
:104B8C004146814597B0FB1FE780607FB727002027
:104B9C0003C5C75D19E103450900930700FD1CA07F
:104BAC00BD473CA0B247A300740146A02304640196
:104BBC00A304540123054401A30534015CC4A2855C
:104BCC00EFD0BFA0F2506254D2544259B259225A7B
:104BDC00925A025BF24B21618280797126D2AA84AF
:104BEC0039454AD04ECE06D622D42EC6B289368945
:104BFC00EFD09F990DCDB2459307000D1EA1B14783
:104C0C002A844EA13CA1CE851905194697B0FB1FED
:104C1C00E780A07323062401A2852254B2500259C6
:104C2C00F24913F5F40F925445616FD01F9AB250AC
:104C3C00225492540259F24945618280411126C294
:104C4C00B72400209384C458B83006C622C44AC086
:104C5C009307F00F6306F7042A893945EFD0DF92EA
:104C6C002A841DCD930700FDB72500201CA1A300AD
:104C7C002501230105009385455A0D05194697B06A
:104C8C00FB1FE780806C9E24A285A8303EA49C303C
:104C9C005CA42244B2409244024941016FD0FF927D
:104CAC00B2402244924402494101828001115AC00F
:104CBC002A8B314526CA4EC652C456C206CE22CCC9
:104CCC004AC8AE84B28A368ABA89EFD0FF8B2DCD12
:104CDC002A84268597C0FB1FE78000AC09C55825A0
:104CEC00A1476311F704B727002003C9F7589307AE
:104CFC0000FD1CA09D47A30064013CA046A023130B
:104D0C0054012314440123153401A2856244F2405A
:104D1C00D244B249224A924A024B4A854249056121
:104D2C006FD0BF8AB727002003C9976DE3110BFC26
:104D3C00B727002083A747449C47D5DBCE865286F5
:104D4C00D6852685829765B7F2406244D2444249A3
:104D5C00B249224A924A024B05618280011122CC4F
:104D6C002A84214506CE2EC6EFD01F8215C5B2452A
:104D7C00930700FD1CA1C5473CA1BC313CB1DE2111
:104D8C005EA1FC217CA1FC31AA857CB12285624408
:104D9C00F24005616FD07F83F240624405618280EE
:104DAC00397162CC2A8C594526DA4AD84ED652D45F
:104DBC0056D25AD05ECE06DE22DCAE8432C636C463
:104DCC00BA8B3E8BC28A468A83590104034941043B
:104DDC00EFD08FFB2DC53246930700FDA2461CA1D8
:104DEC00954730B1A30085013CA12A8419461105D1
:104DFC00A9C2B68597B0FB1FE78020552306640136
:104E0C00230A240123157401231754012318440188
:104E1C0023193401A2856254F2504259B259225AD4
:104E2C00925A025BF24B624C2685D25421616FD0B0
:104E3C00CFF9814597B0FB1FE7806054C1B7F250A2
:104E4C006254D2544259B259225A925A025BF24BD2
:104E5C00624C21618280411122C43724002013044A
:104E6C00C4583C2006C626C285CBB7240020AA8590
:104E7C0019461385043697B0FB1FE780004D282098
:104E8C0093850436EFF0DF922244B240138504364A
:104E9C00924441016FC0503DB240224492440145BE
:104EAC0041018280411126C2B72400209387C45847
:104EBC0006C622C44AC0B8339307F00F9384C45873
:104ECC00630FF7022A892945EFD00FEC2A8405C914
:104EDC00930700FD1CA1A147A30025013CA1BC2008
:104EEC00B7250020938505363CB11946110597B0BE
:104EFC00FB1FE7808045A830A285EFD00FEDB820CE
:104F0C008D476311F702B727002083A7873799CB0A
:104F1C0003A38700630803002244B2409244024971
:104F2C0041010283B24022449244024941018280F1
:104F3C00797122D406D626D24AD04ECE52CC56CA3D
:104F4C0009444DCD2A890A21AE89514497C0FB1FD3
:104F5C00E7808084AA845DC1372700209307476DC2
:104F6C00DC238546BA8AFD1793F7F70F494463F79C
:104F7C00F6085825A1476314F700639109089C5C57
:104F8C004544ADEF9165938545711305C00297B00B
:104F9C00FB1FE780600A88DC2A8A4D4425C1130672
:104FAC00C002814597B0FB1FE780603D8357090025
:104FBC0093064A0036852311FA0071469305490081
:104FCC0036C697B0FB1FE780403889472300FA00AC
:104FDC00C824B2460356090083C54A6D61151335C2
:104FEC001500EF90902A2A8463860900CE852685C9
:104FFC00EF90601301C42685EFF0DF812285B2505B
:10500C00225492540259F249624AD24A4561828032
:10501C00B727002083C7876D0547FD1793F7F70F58
:10502C006377F708894749C6011122CC26CA4AC8BA
:10503C004EC652C406CEAA89368AB2842E8997B03F
:10504C00FB1FE78060752A84D14731C5485509C5D7
:10505C0097B0FB1FE7808009F145268597B0FB1FB1
:10506C00E780403448D4CD471DC55424214781479F
:10507C00639DE600630B0A00382D12299306250167
:10508C00AA854E85EF908010AA875820630E0900E0
:10509C001367670058A0F2406244D2444249B249B7
:1050AC00224A3E850561828013674700E5B7C947F0
:1050BC003E8582809307F00363EAA700B7270020A0
:1050CC009387C75A06053E950A21828041657D1556
:1050DC008280011122CC2A842E8526CA06CEAE846B
:1050EC0097B0FB1FE780406B0DCDB7470F00938740
:1050FC00F723094563E2870281450A85414697B04B
:10510C00FB1FE780C027A68560800A85418040810F
:10511C00A3010100EF908079F2406244D244056112
:10512C0082804945D5BFB7270020238BA76C82808E
:10513C006F901010797152CC2A8A328522D426D2E3
:10514C004AD04ECE56CA5AC85EC606D662C4AE8B7C
:10515C00B28A368BBA843E89C289468497B0FB1FCB
:10516C00E78080630DC92A8C63130A0213774B0006
:10517C005C2115CF93E727012302FC008DEC631C07
:10518C000902639A090205E8ED9B2302FC00832BBC
:10519C008C0363910B08B250225492540259F24979
:1051AC00624AD24A424BB24B224C45618280F59BFB
:1051BC0093E70701D1B793E747002302FC0001CC2A
:1051CC001C484146A2852324FC0213058C0197B090
:1051DC00FB1FE780801763930B02D5D80325CC0205
:1051EC0009C597B0FB1FE78060F0F145268597B0A5
:1051FC00FB1FE780201B2326AC0251BFE30909F8F3
:10520C000325CC0209C597B0FB1FE78020EEF145C2
:10521C004A85F1BF9DC483A70B0299EB91659385D9
:10522C003571714597B0FB1FE78000E123A0AB02FD
:10523C0003A50B0219C57146A68597B0FB1FE78025
:10524C00C0106388090283A74B0299EB9165938583
:10525C002571594597B0FB1FE78000DE23A2AB02F6
:10526C0003A54B0219C55946CE8597B0FB1FE780A5
:10527C00C00D1DC483A78B0299EB916593851571A5
:10528C00514597B0FB1FE78020DB23A4AB0203A59D
:10529C008B0219C55146A28597B0FB1FE780E00A27
:1052AC002254B2509254F249B24B224CCA865A86BE
:1052BC000259424BD6855285D24A624A45616FF0FB
:1052CC008FEF011126CA52C406CE22CC4AC84EC654
:1052DC002A8AAE8497B0FB1FE780004C25C1AA89AF
:1052EC003945EFD06FAA2A8431C9B727002003C9EA
:1052FC00C75D6314090003C909009307000D1EA0C4
:10530C00AD473CA09385690013053400194697B04E
:10531C00FB1FE780800393F71400858085885CA4CD
:10532C0044B423154401A2856244F240D244B249EC
:10533C00224A4A85424905616FD02FA9F240624446
:10534C00D2444249B249224A0561828001114EC6BB
:10535C0052C456C206CE22CC26CA4AC8AA8A2E8A63
:10536C00B28997B0FB1FE78020433DC92A891305FA
:10537C00C002EFD06FA12A8425C5B727002083C4B3
:10538C00C75D99E0834409009307000D1EA0E9470F
:10539C003CA09305690013053400194697B0FB1F18
:1053AC00E780A0FAD285231554011305C4004146A9
:1053BC0097B0FB1FE78060F9CE851305C401414609
:1053CC0097B0FB1FE78060F8A2856244F240424927
:1053DC00B249224A924A2685D24405616FD0EF9E8B
:1053EC00F2406244D2444249B249224A924A05618F
:1053FC008280411122C437240020130484360840D3
:10540C0006C619C597B0FB1FE78040CE23200400C9
:10541C00B240224441018280011106CE22CC26CA20
:10542C004AC82EC697B0FB1FE780003721CDB24586
:10543C00B727002003C9C75D0CD5AA8463140900E3
:10544C00034905004145EFD02F942A8405CD9307DD
:10545C00000D1EA1A5473CA1DC309385640011050D
:10546C00A30FF5FE194697B0FB1FE78000EE9C5486
:10547C00A285F2405CC46244D2444A85424905612B
:10548C006FD0AF94F2406244D244424905618280AD
:10549C001D71A2CC86CE2A842EC697B0FB1FE78046
:1054AC00A02F15C954251147AA8749456391E602D7
:1054BC009C5FB24591C3EC2BB70605002308B100E5
:1054CC009386E693100889452285EF80F03CF640E0
:1054DC006644256182805145DDBFB727002083C714
:1054EC00876D0547FD1793F7F70F637AF704894724
:1054FC0021CA411122C426C24AC006C6B2842E89D2
:10550C0097B0FB1FE78040292A84D14715C1630659
:10551C0009005C2193E727005CA14146A685130591
:10552C00840197B0FB1FE78040E29C481CD4814764
:10553C00B2402244924402493E8541018280C947CF
:10554C003E858280797122D406D62A842EC697B0E5
:10555C00FB1FE780602401CDB2452285230EB100EC
:10556C006C08EF80F038B25022544561828051456E
:10557C00DDBF6F800044C1671387E7FF6395E502C9
:10558C00B727002083A7473791EB494582804945CF
:10559C00B2402244924402494101828003A3070095
:1055AC00E30503FE0283411122C426C24AC006C68B
:1055BC00FD172A892E84B284639AF502B72700203E
:1055CC0083A7473791CF9C4381CF829711E9B727A7
:1055DC00002023842739B7270020A38497384DBF98
:1055EC00A6854A85EFE07FDC45F5D5B72E8597B0CB
:1055FC00FB1FE780601A41DD1C210D45E39A27F95A
:10560C0022852244B2400249A685924441016FC0D2
:10561C00A0429307F00363E1A7064111C16722C4BE
:10562C0006C626C2FD172A8409456381F502C547C3
:10563C00AE846312F4022E85EFC08047372500201C
:10564C001305C55A06042A9406A00145B24022440B
:10565C009244410182809307A0036316F4002E85C7
:10566C00EFC0403EE1BF9307B003E319F4FC13F520
:10567C00F50FEFC0603DD9B709458280011106CE08
:10568C002AC6EFE09FD4EF20A057EF107001EF2057
:10569C007235B72700209387C758130700F0BAA3B9
:1056AC0023820700B727002032451387476DFD562C
:1056BC0034A3F240238AA76C954505616F60B058FE
:1056CC00597193970501CAD086D6A2D4A6D2CECE54
:1056DC00D2CCD6CADAC8DEC6E2C4E6C2EAC06EDEF6
:1056EC00C1872E8963D10750B724002003C5446DB0
:1056FC00B7290020372B002097B0FB1FE780E0AFC5
:10570C002A8426CEB72A0020372C00209384C9582F
:10571C00B72C00201DE021653345A900B650265456
:10572C0096540659F649664AD64A464BB64B264C11
:10573C00964C064DF25D656182801C201307200A91
:10574C00639BE70003CA34002A20C1652286FD153D
:10575C00EFF0AF97A1AA72471307476D034A2700D2
:10576C0013071009639FE7141C3015476391E70278
:10577C002285EFF04F9A2285EFC05FDEF24703C51A
:10578C00476D97B0FB1FE78040A72A8461B7394764
:10579C006391E7164A208567A5076315F5040C4449
:1057AC0083CB0500639D0B00850591C9372500202F
:1057BC0019461305455A97B0FB1FE78000B903C77C
:1057CC00C9588547631FF70E63880B002386095859
:1057DC005E85EFF0AFC645B789472386F958EFC011
:1057EC00602851BF8967138727006318E504832B52
:1057FC00840063880B0C83C70B0099EB83C72B00C9
:10580C0003C71B00A207D98F9EA483C73B009CB083
:10581C0003C7C95889476316F70A83C70B0091C79A
:10582C002386095803C50B006DB78C308A248D472D
:10583C002386F958EF60F043F5B795076317F50029
:10584C001C448823EFF00FE63DB7F9771387A7FFC9
:10585C002A9742074183914663F1E6049387A7FC9C
:10586C00AA97C207C18371476371F70289671387CF
:10587C00B7006310E50483A70A37E38E07EE9C4359
:10588C00A285E38A07EE829715A037070018130745
:10589C00F770B357F700858BB9C783278B37E38C29
:1058AC0007EC9C43E38907EC22858297E31505EC12
:1058BC0009A81387C700631FE5001C449C23E38CD5
:1058CC0007EA9307F00FE308FAEAA2855285EFC0C6
:1058DC00DFCF6DB5B9076318F50083A74C37E38CA0
:1058EC0007E8DC4371BF896793871704E305F5F874
:1058FC00C9BF3D476397E7044A2089671387D700E0
:10590C00E30DE5FC13879701E309E5FCCD07E31AEA
:10591C00F5FAFA20C167FD17631DF70083A74C3712
:10592C00E38B07E4DC43E38807E40965A2854D05B6
:10593C0099BFB727002083A7C737E38E07E29C43A4
:10594C00DDB71307E003E39EE7F63C200547639AB7
:10595C00E70C7C2037270020930D8736DDE783A7E3
:10596C000D00CDC383CB0700214A6830130D840092
:10597C00EA85EFE0DFE75C2868B083580401035840
:10598C00E4005A202A8628303EC23E28EA86DE856C
:10599C003EC0D287EFF0CFC03C3095E3DD47835853
:1059AC0004010358E40074304E203EC23E283EC031
:1059BC006A87D28705465E85EF80A02128B083A731
:1059CC000D0081C71145EFF0DFA2930B8C3803C596
:1059DC000B00E30205DAB727002083C59738EFE008
:1059EC00DF9CE30A05D83430930710036389F60073
:1059FC00522083C50B0052873685EFE09FB22304FB
:105A0C000C3895BB83CB340085B783278B3783CB7E
:105A1C003400114AB9DBDC43A9DB8145014582978F
:105A2C00A9B729476396E7087C2037270020930DF8
:105A3C008736BDE383A70D00A9CF83CB0700214A8E
:105A4C006830130D8400937725001376150089E7D1
:105A5C00EA85EFE0DFD92A868347040270B08358C9
:105A6C00C4010358A4015A2028303EC27E2CEA8679
:105A7C00DE853EC0D287EFF0AFB23C30A9F3DD47F4
:105A8C008358C4010358A40174304E203EC27E2CAE
:105A9C0039BF83CB340065B783278B3783CB340076
:105AAC00114AD9DFDC43C9DF81450145829749BFE3
:105ABC000947639CE70083A70A37E38E07CADC43D8
:105ACC00E38B07CA228582977DB12D476398E70047
