:020000024000BC
:100000006FC0A26800000000001801180028012835
:100010000228032800290129022903290429052986
:10002000062907290829002A012A022A032A042A64
:10003000052AA62ABCCE0600B81E04002003002014
:100040009E030020A80200207A0200201002002057
:100050005C200400A0200400B42104002224040039
:1000600000250400021D0400D61B04008C1C0400A3
:10007000241C0400F82A0400280500203220040073
:10008000E62704002A6E0600227006009A70060019
:10009000D6200600E6200600E06905000E5B05009C
:1000A000FA6706001C280400FA2A060050E1040042
:1000B000DEE1040036E2040080330400CC330400A7
:1000C00036320400449D0400FE970400E2A60400BA
:1000D000B2AA04005EAE0400208A0400BE890400B7
:1000E000A88D04006C8A040094890400188A040016
:1000F00046890400F08A0400488B0400F88A040052
:10010000FC8A0400968B0400508B0400828B040050
:10011000A4900400AC900400EC8A0400F48A04006B
:10012000948B0400A8900400448C04001A920400EC
:10013000BCBC04003ABD040078BD0400A89F0400C4
:10014000C09F0400FC9F0400C0830400A48404003A
:100150000C85040082520400244D0400C878040079
:10016000A24D0400F47304007CAB060094A30600C7
:100170009EA80600C0C0060086BF06000AC406008E
:10018000C2C3060002C40600B2C406007A9206008A
:1001900042C40600C6B60600ECB6060014B7060058
:1001A00022C5060080BD060016BD060092C50600E9
:1001B000DC94060078950600A0950600429506009E
:1001C000D24B06003A360600C039060098370600C2
:1001D000E0410600A268060098670600AE9206009D
:1001E0007E2C0400FE210600DA2A0600D22B06002F
:1001F0002C5E0600D05E060098600600ACA30400EA
:10020000044B0600844206000034060068450600E0
:10021000EA350600540C0020C82206002EC4060051
:10022000C6C30600FEC30600FAC30600B2230400DC
:10023000FAA0040036C40600A84C0600764D06005D
:10024000F04D0600FCA8060032C406003AC40600C1
:100250009A5A05003EC406005A110020EC170020EF
:10026000DCA8060082AA06000000000000000000D2
:10027000000000000000000000000000000000007E
:100280006373B60082801C419105110523AEF5FE13
:10029000C5BFB7270020372700209387079413078F
:1002A00007EF6373F700828023A007009107D5BF93
:1002B000411122C4B7C7004006C603A4C72023A625
:1002C00007200F10000011C199E5B7C7004023A611
:1002D0008720014545A893073500C207C183F19BDC
:1002E000C207C183130740036366F7023727002064
:1002F000032547AB372700208326C7AA6391A602B0
:10030000372700200327C7B369D3C207DD8D054512
:10031000029765BF37270020032507ABE1BF0357CE
:1003200065002DE7035745006362F706B7260020F6
:100330003306F74021489386C6AB6378C80283280A
:10034000050003D86600138687001D8F2A96611763
:100350002312E600232016012313060010C12312E6
:10036000F500130788FF2393E6002313B50083D518
:1003700066002105B387F5402393F600B7C7004018
:1003800023A68720B2402244410182800841BDB7A4
:10039000B7C7004003A8C72023A607200F100000FE
:1003A00001E523A607218280B727002003AE47ABD3
:1003B000B727002003A3C7AA8146F28763FC670A18
:1003C00083A80700636BF50A63E9A80A138787000F
:1003D0006362E50A03D66700216705076319E60033
:1003E000372600200347469D0507230AE69C37264B
:1003F00000201305C6AB83D5470003576500239340
:1004000007001306C6AB2E97420741832313E5006E
:100410006387C70337250020032505AB6301F50279
:1004200003D5660009ED83D7460023A016012107F6
:10043000BE95A1052392B6002313E600B687984324
:10044000630A6702B726002083A606AB6304D702BF
:100450008356670085E283D64700835547001843DB
:10046000A106AE962392D70098C383576600A107D2
:100470002313F600B7C700402DB7BE86C6873DBF21
:10048000B7C7004003A7C72023A607200F1000000E
:1004900001C599C1814711E6B7C7004023A6E720EF
:1004A0008280B386F50003C80600B306F500850711
:1004B00023800601E317F6FEC5B737C70040832740
:1004C000C720232607200F10000019C191C111E693
:1004D00037C700402326F7208280910503A7C5FF78
:1004E00011057D16232EE5FEDDB737C700408327B3
:1004F000C720232607200F10000001C53307C500C1
:1005000011E637C700402326F72082800505A30F98
:10051000B5FEE31DE5FEF5B7B7C7004083A6C720CB
:1005200023A607200F10000081473307F5000307BB
:10053000070019E737C700402326D7203E85828071
:100540008507E5B7011126CA4AC8B7C7004006CEDD
:1005500022CC83A4C7202A892E8623A607200F1029
:100560000000131506019305F004418132C689335A
:100570002A8401C53246CA8521372285F240624469
:10058000B7C7004023A697204249D2440561828024
:10059000B7C7004003A7C72023A607200F100000FD
:1005A00001C599C1814711EAB7C7004023A6E720DA
:1005B000054582808507E309F6FE3308F500B3861A
:1005C000F5000348080083C60600E305D8FEB7C758
:1005D000004023A6E72001458280B7C7004003A75B
:1005E000C72023A607200F1000009307F6FFBE9533
:1005F0002A966317C500B7C7004023A6E72082806C
:10060000FD1583C715000505A30FF5FEDDB737C738
:1006100000408327C720232607200F10000001C5B4
:100620003307C50019E637C700402326F7200145E8
:10063000828005058346F5FFE397B6FEE31BE5FEE2
:1006400037C700402326F72005458280797126D2DE
:10065000B724002022D403A484B006D64AD04ECEBC
:1006600052CC56CA5AC85EC662C44DC4372A00204E
:1006700037290020B7290020814BB72A002037CB2B
:10068000C901130ACAB01309C9AB938949B5835785
:10069000240099EF5C44639A0B0023A4F4B0032C6C
:1006A000C4002285F531628499A823A6FB00C5BF4A
:1006B00083A70AB082971C443307F5406376F500A0
:1006C00003A749001D8F2A979306FB3763E8E606C8
:1006D000232809008355240003450400972004E0E3
:1006E000E78000BF5C405844B1C31444B69783A66A
:1006F000490063E3D700958F1CC4A28B3A8441F86C
:10070000B72700209387C7AB984B854663FCE60468
:100710007D1798CBB250225492540259F249624A42
:10072000D24A424BB24B224C4561828063950B000A
:1007300023A4E4B0ADB723A6EB0095B703274A0284
:1007400019CB63EDA7003385A740832709016374A4
:10075000F5002328A900A28B404455B703A7490000
:10076000BA97D5B723A8070075B7B727002003A706
:10077000C7B4411122C406C63E8411C30297B727ED
:10078000002083C7E7AF93F7F70F99E3232604B45C
:10079000B24022444101828001114AC83729002019
:1007A000832789AE06CE22CC26CA4EC652C456C274
:1007B0005AC081C78297232409AE930789AEDC43D0
:1007C000B7240020938484AE91C38297832789AE97
:1007D0006394071A37240020930704E283C7770045
:1007E0001547130404E26309F718372A002093071A
:1007F0004AB583C7C700130A4AB585E38347540047
:10080000858B81CF8347740019476312F70EA302CB
:100810000400EF00D04ADC4482979C4491C3829745
:10082000B7240020B72900209387C4AB03A749B0A1
:1008300003C61700938AC4AB83C7C4AB9396170053
:10084000BA9683D60600DDCE83C7C4AB63E4C70C7B
:10085000832789AE238E04AA63900712834774000E
:100860001547630BF7108347940081CF83477400CB
:1008700093F7F70F99E7A3040400972006E0E780B9
:100880004000B727002083A707B0FDC783274A0091
:1008900023A8FA00653BB727002083A707B3E9CF59
:1008A0008347740015476369F70CB72700209387C7
:1008B00007E683C7C700918BE1E3B727002083C712
:1008C000E7AF93F7F70FCDEB83C61A0003A649B045
:1008D00063CED70A6244F240D2444249B249224A26
:1008E000924A024B0561172304E0670063F08347D7
:1008F00074001D47E313F7F2A3020400EF00303C3D
:100900009C4819BF850793F7F70F238EF4AAE3E5F8
:10091000C7F21DBF86073E978355070023100700C7
:1009200003C5C4ABB727002083A747AE1317250024
:10093000372B0020BA979C43231E0BAE8297835718
:10094000CBAF03C7C4AB93C7F7FF7D8D93171700D9
:1009500003A749B03E97835707005D8D2310A7007A
:1009600083C7C4AB81C78507238EF4AA03C7C4AB72
:1009700083C71A00E37EF7ECF2406244D244424956
:10098000B249224A924A024B0561828013971700AE
:100990003297035707006DF385071DBF37C7004027
:1009A0008326C720B707FCFFFD17F58F2326F72006
:1009B0000F100000B72700209387C7ABC84F8327CD
:1009C00087262326D7206A0593C7F7FF99835D8D75
:1009D00082800327851163000712411122C406C6D5
:1009E0008347C5008345E5042A8493F7C70F230690
:1009F000F500834697000356C7001395860161856D
:100A000063F1C508635A05060345870093F6F607A8
:100A1000A304D700054693E627006314C50093E6B8
:100A200017002306D4005C4389075CC3A30AB40003
:100A3000032504112E864C4309059934832784111C
:100A400003465401D44303D7C700B296118FD4C3D1
:100A50002396E7008947A30DF400B727002003473A
:100A6000640383C7E7B16378F7048347C40093E75F
:100A700007012306F40081A093E717002306F40082
:100A800075B79376F60F635D0502034587008545CC
:100A900013E627006314B50013E617002306C4000D
:100AA000A30AD400A30407008547A30DF4008327FD
:100AB00084119C43DDF3B240224401454101828010
:100AC00093E717002306F400A30AD400A304070049
:100AD000032504114C43090565328327841103461D
:100AE0005401D44303D7C700B296118FD4C32396C1
:100AF000E7008D475DBF05458280B727002083A7AB
:100B000047DF411122C406C6858B2A84DDEB41658F
:100B1000130525F5977005E0E78020725DC18347D6
:100B2000A5002315F50083270412B5E72320A4129E
:100B30002322A41285472311F404232005008347B0
:100B4000640154412316F5000347D4002304E50053
:100B50000547A304E50037270020032787E3138513
:100B6000170215811C437D151375F50F9CC25C435C
:100B7000DCC21C479CC65C47DCC61C4B9CCA5C4B59
:100B8000DCCA1C4F9CCE5C4FDCCE19CD938606028E
:100B900013070702C1BF8327441288C38357240465
:100BA0002322A412850741BFB7270020938707CDD2
:100BB00003D7870005072394E700B2402244410190
:100BC00082808347C40023090400054593C747007A
:100BD0002306F400DDB78347850193F7E70FDDEBCC
:100BE00083479501C5EB034625018346C50009CA25
:100BF00037270020834565030347F7B163E7E50026
:100C000013F7060149CB014709C6C18A0357651C82
:100C100081C68356A51C36973DCFB727002003D544
:100C2000C7B51307C71237460F00B335A7024111E6
:100C300013060624814622C426C206C67D54330507
:100C4000A70297C006E0E78040D5B727002083C7FA
:100C500037B2B384A700B727002003A707D683279E
:100C6000070963F387003E84184375FBB72700200C
:100C700083A707B0829781476364A400B307A440A9
:100C8000B2402244B3B7970093C7170092443E8501
:100C90004101828081473E858280B727002003A7DB
:100CA000C7E33C5BFDFF828001114AC83729002061
:100CB000930709CD22CC03A4870906CE26CA4EC6C7
:100CC00052C4630C041A83570404A30F04001309CD
:100CD00009CD85072310F404834704142285638615
:100CE000071AC9242285976005E0E7806011631622
:100CF0000518B7290020938649B503D58600835788
:100D0000640837470F001306F723B387A7021307BA
:100D1000072483240409230B040203AA46009389B1
:100D200049B5B297B3D7E70263E3F416B387F4404B
:100D30002324F4088327C408BE9463E44401B384E5
:100D400044418357040223289408B1C783560404FE
:100D50000357440237460F002312D4023387E6407C
:100D6000B387E70203572402130606248146814510
:100D7000BA97C207C1833385A7022311F40297C033
:100D800006E0E78080C101C9AA9463E44401B3840A
:100D9000444123289408372A002083270AB08297E9
:100DA000AA8483270AB08297E30D95FE83270AB0B1
:100DB00083248408829763E1A40E3385A44075C917
:100DC0008327C4086377F50EB7440F009384042487
:100DD000B335950203DA890003592402814652860D
:100DE0003305950297C006E0E78020BBB309A90050
:100DF0003305490337460F00130606248146814513
:100E000097C006E0E78060B915C1B33795025286F6
:100E10008146B385B4023385A402BE9597C006E02F
:100E2000E780A0B73305A9402311A40229459720E4
:100E300006E0E78000B70347B40085476312F70672
:100E4000930700FD2307F400B727002003A5C7E0A0
:100E5000972004E0E78060ACB7270020938707E283
:100E60001547A383E700B727002083A7C7E3370709
:100E70001000860998C723A83707F2406244D2447D
:100E80004249B249224A056182809528A1BD338733
:100E90004401B307F74069BD83A74900BE9431BF41
:100EA000930710FC2307F400B727002003A547E0B1
:100EB00045B7232C0908B7E700E03707001023A047
:100EC000E72065BFB727002083C707B69DC3B727B4
:100ED000002083A787D685C3B7270020238F07AEBE
:100EE000B727002083A7C7E337071000D8C70547F7
:100EF000B8DB05458280177305E06700C3AA7971E6
:100F000026D206D622D44AD04ECE52CC56CA5AC881
:100F10005EC68347550303447513AA843E94137435
:100F2000F40F9307400263F687001304B4FD1374B3
:100F3000F40F03AA841383AAC413A38B84122286FA
:100F40005285D68597C006E0E780A09F058915E504
:100F500003CBD41201498149337B6403930B5002C4
:100F60004A865285D68597C006E0E780809D058930
:100F700015C5639169031374F90F238B8412B25062
:100F8000225492540259F249624AD24A424BB24B1D
:100F9000456182808509E20993D989410509E311F8
:100FA00079FDE1BF8327850903560504797193D63E
:100FB0000701BD8EC206C182358E13577640935706
:100FC0005640898B058B5D8F93573640918B5D8F93
:100FD00093571640A18B5D8F93171600C18B5D8FC1
:100FE0009317360093F707025D8F931756009355BA
:100FF000860093F707041E065D8F1376F60F518F58
:1010000093D7554013D63540118A898BD18F13D68B
:101010007540D18F13D61540218AD18F13961500B4
:10102000418AD18F1396350013760602D18F13961D
:101030005500137606049E05D18F93F5F50FCD8FDD
:10104000A20745465D8F3307C70222D42A8426D2E1
:1010500052CC56CA032A8413832AC4135AC806D60C
:101060003697420741839357774013555740098974
:10107000858BC98F135537401189C98F1355174078
:101080002189C98F131517004189C98F131537009E
:1010900013750502C98F13155700935587001375F3
:1010A00005041E07C98F1377F70FD98F13D5354065
:1010B00013D755401189098B498F13D57540498F36
:1010C00013D515402189498F139515004189498F02
:1010D0001395350013750502498F13955500137547
:1010E00005049E05498F93F5F50F4D8F2207D98F83
:1010F000B387C7024AD04ECE5EC662C4B697C20757
:10110000C18313D7774013D557400989058B498F81
:1011100013D537401189498F13D517402189498F3D
:10112000139517004189498F1395370013750502F0
:10113000498F1395570093D58700137505049E07B3
:10114000498F93F7F70FD98F13D5354013D75540F3
:101150001189098B498F13D57540498F13D51540D7
:101160002189498F139515004189498F13953500C1
:1011700013750502498F13955500137505049E05D7
:10118000498F93F5F50F4D8F2207D98FB387C7028B
:10119000130650025285D685B697BD8E93940601EC
:1011A000C18033F6C402137BF60F97B006E0E780E8
:1011B000407905890DED8347D41201498149B384F3
:1011C0009702130C5002C1804A865285D68597B08B
:1011D00006E0E78000770589937BF90F11C56386E8
:1011E0003403850993F9F90F0509E31F89FD230BE2
:1011F0006413B250225492540259F249624AD24ABC
:10120000424BB24B224C456182805E8BCDB70111BF
:10121000B727002022CC03A407D926CA4AC84EC645
:1012200006CEAA8413092500854915C083C714007A
:1012300003473400858B6304F700405CFDB7194613
:10124000930544004A85EFF0AFB4E31835FF2285DB
:10125000F2406244D2444249B24905618280411160
:10126000B727002022C403A407D926C24AC006C655
:1012700093042500054901E82285B24022449244A6
:10128000024941018280A6851305A40297D005E09A
:10129000E78000B1E30225FF405CF1BF4111B727B1
:1012A000002022C403A407D926C24AC006C693045C
:1012B0002500054901E82285B240224492440249B2
:1012C00041018280A6851305A40197D005E0E7803F
:1012D00020ADE30225FF405CF1BF011122CC60414B
:1012E00026CA4AC84EC652C406CEAA841D4A13094D
:1012F00065058549BC446364F400054581A803C7BE
:10130000D40083474400631B470503C7840263047A
:10131000F7000040C5B70347540083C75405E31ADC
:10132000F7FE1946CA8513056400EFF06FA6E312B5
:1013300035FF0347C40083C79402E31CF7FC03573F
:10134000E40083D7A402E316F7FC0145F2406244AF
:10135000D2444249B249224A05618280E31BF7FA2E
:101360000347540083C75405E315F7FA1946CA85A5
:1013700013056400EFF0CFA1E31D35F9F9B70111B2
:10138000B727002022CC03A487D826CA06CE2AC4B9
:101390002EC6854419E40145F2406244D2440561F9
:1013A00082808347910003471400858B6304F70014
:1013B0000044CDB719469305A10013052400EFF0B2
:1013C0002F9DE31795FE0545C1BFB726002003A753
:1013D00046E101114AC81C5F4EC606CE998322CC55
:1013E00026CA858B3689B7290020ADCF9307000622
:1013F000372400201CDF930704E283C7670013072C
:101400000008930404E26319F70083A709E19C43F1
:1014100093F707042383F400834704E293F7070458
:1014200089CFB727002083A707B0829788C8834752
:1014300004E293F7F70B2300F4E283C7440093F729
:1014400007048DE38547A382F400B727002083A714
:10145000C7E33707020098C7130700FC2382E400A4
:10146000D844F8D3032749E11C5F9183858B95C34A
:101470001C5F93E707011CDFB727002083A7C7E3A2
:10148000054723A20706B7270020938707E2238298
:10149000E70083A709E1D8430583058B19C7D84323
:1014A000759BD8C3D843799BD8C3F2406244D244D9
:1014B0004249B24905618280093F73002030B72755
:1014C0000020B726002003A6C7E3938706E203C7E0
:1014D00006E2058B11C723820700A38207008280E2
:1014E00003C71700058B65FB785275F303C75700D8
:1014F000EDB737270020032847E18327880395832A
:10150000858BC1E311C683270803BD832300F60042
:1015100085CA832747E1985B46079357670163565F
:10152000070093E707C0C207C18303970600C207FD
:10153000C18709C7BA970947B3C7E7022390F600E6
:101540009DCD8345150085CDB7270020938707E201
:1015500083C7670013879500894593F7070485C300
:101560003A95834705000547994593F6F706639832
:10157000E600E207E187814563D30700B9452E8580
:1015800082808545EDBF411122C406C63724002064
:1015900026C20327C4E359E5AE877453FDFEB72482
:1015A0000020938404E23E85B285238104009710D5
:1015B00006E0E780E014B727002083A747E1B706DD
:1015C00080009843558F98C3D857719BD8D78327ED
:1015D000C4E3A3820400A3800400094798C3B7F7BB
:1015E00000E003A707D16D9B23A8E7D003A707D18D
:1015F0005D9B23A8E7D0730050108326C4E3B72770
:101600000020938707E203C72700058B19E703C76C
:101610003700058B41C323820700B2402244924425
:10162000410182808D47631FF500B727002083A703
:1016300047E1B70680009843558F98C3D857719BF0
:10164000D8D765BF8547E31AF5FA54478177FD1768
:10165000F58F5CC70F1000000327C4E3B707020033
:10166000130600F81CC7B7270020938707E22382E0
:10167000C700B727002083A747E19C439D83858B44
:101680006397A700930760197CD354C7BDB793072E
:10169000E01BDDBFF85225FB49B7411122C43724B6
:1016A00000208327C4E306C6D8479316D70063D328
:1016B000060298479316D70063DE06007D57B8D719
:1016C000372700201307C7AB544F850654CF370781
:1016D000040098C798470D83058B0DC3372700205A
:1016E000130707E28346270093E616002301D7007D
:1016F000930600F82302D700214798C79847058B27
:1017000009CF37270020130707E28346170093E627
:101710001600A300D700054798C798470983058B93
:1017200009E798470583058B05CF372600209306E8
:1017300006E2A382060098470983058B75CB034711
:1017400006E2136717002300E6E2114798C7372720
:101750000020832647E1D856719B13671700D8D61F
:1017600098479316F70063D40602372700209306A4
:1017700007CD03C64607130707CD418A71C203C7C9
:10178000460713670702238AE606416798C798470A
:101790009316E70063D2060237270020130707E2FB
:1017A00083464700E206E18663D5060085462302AC
:1017B000D7003707020098C798479316C70063D32E
:1017C000060237270020130707CD83465707858A6F
:1017D000C1CA8346570793E62600A30AD7063707F0
:1017E000080098C798479316B70063DF06023707CB
:1017F000100098C7B727002083C707B695C7B7273B
:101800000020938707E283C777001547630EF70030
:10181000B727002083A7C7DF91C382970327C4E3BC
:10182000B7071F00BD075CC7B24022444101828058
:1018300003C7360013671700A381E600094739B7CD
:10184000834647070946BD8A6388C6008346470723
:101850000D46BD8AE39BC6F29146230AD70635B7EB
:1018600083465707918AA5DE8346570793E686008D
:10187000ADB737270020B7260020138606E41307EC
:1018800007E68347D7008345B601484AAE97FD8BEC
:10189000B355F500A300F600A306F700858995E986
:1018A00003471701814613080002B3F7E702014717
:1018B000B355E50085899378F70F89C96395D700FB
:1018C000A30016018280850693F6F60F0507E31143
:1018D00007FF8280B7270020938707E283C757005E
:1018E00093F7F70FD1EBB727002083A707B041117B
:1018F00022C44AC006C626C2829737290020930711
:1019000009E68047130909E66302A40663688504B3
:10191000018DB7240020938704E483C7A7011354E3
:101920005500938404E46363F404A13783C7A401DE
:10193000032789009396570036971D8C2324E900CE
:10194000E375F4FE224403C51400B24092440249F8
:1019500081454101171306E06700636AB72700203D
:1019600083A787B533848740229565B7B240224468
:1019700092440249410182808280B727002083A7D8
:1019800007B0011122CC26CA52C406CE4AC84EC6A0
:101990008297B7240020938704E68047014A630CAE
:1019A000A404938404E663618506018D3727002033
:1019B000930707E483C7A70113545500137AF50171
:1019C000130907E46366F402B7290020938949B537
:1019D0004D358346A9019C4403A649001397560040
:1019E0003E97158C6363C700118F98C4E372D4FED1
:1019F0001604336A4401F24062445285D24442499B
:101A0000B249224A05618280B727002083A787B5A3
:101A100033848740229559BFB727002003A7C7E327
:101A20008967938707F47CD3B727002083A707E94A
:101A300083A60709139656006358060083A6070974
:101A400013966600634406007453FDF28280000022
:101A5000EFE0BFD17300000000000000970200001B
:101A6000938222310383020023800200630F03006C
:101A7000F32510342EC0970500009385A5FD7390C3
:101A80001534EFF09FC17300203086DCEFF0FFC00B
:081A9000E65082800000000016
:101A9800B72700203727002083A747AB0327C7AA0B
:101AA80001456313F700828083D6670081E683D6F9
:101AB800470036959C43F5B7B727002083A5C7B0E4
:101AC800372700209387C7B013860522232AC7AA81
:101AD80003D74700938785FFB72600204111BA979F
:101AE800056523A6F6AA06C61D0593563700637436
:101AF800E500930600203307D60037250020232869
:101B0800E5AA23A0E522E1162312D6002313060036
:101B18001CC3998FE1172312F700231307008D3F89
:101B2800B240B72700202391A7AC41018280B72794
:101B380000203727002083A747AB8326C7AA014583
:101B48006393F600828003D7670011E703D7470045
:101B58006373E5003A859C43E5B7B7270020B726AD
:101B6800002083A747AB03A6C6AA2A87B305B540BA
:101B78006314F6003A8529A8938687009C43E36995
:101B8800D7FEE377F7FE2E85E3E4D5FEE3F2F5FE14
:101B9800828023AC05FE1C4191E7010001000CC1C5
:101BA8008280BA8703A787FF6DFF23ACB7FE8280C8
:101BB800184183A785FF6319B7001CC1FD5723ACE3
:101BC80005FE238FF5FE8280232CF6FEC5BF41114A
:101BD80022C426C237C4004006C68324C420232654
:101BE80004200F10000009E9232694201545B2406F
:101BF80022449244410182800347E5FF9307F00F96
:101C08006306F700232694201145D5B797E0FB1FFC
:101C1800E780C050014523269420D1BF411126C238
:101C28004AC0B7C4004006C622C403A9C42023A6DC
:101C380004200F10000009E923A62421B240224401
:101C480092440249410182809565938505D0C98DEA
:101C58002A842105C2054205C181418197E0FB1F05
:101C6800E780C03D01CDFD572320050023128500E4
:101C78002303F50023A624212105C9B723A624217F
:101C880001456DBF01114AC84EC6B7C7004006CE10
:101C980022CC26CA83A9C7202A8923A607200F1089
:101CA800000037250020032485AB8144014611E458
:101CB80091E8A1654A85952731A88347E4FF639792
:101CC800270395C8A685130585ABDD357DD0A165AD
:101CD8004A854926F2406244B7C7004023A6372107
:101CE80026854249D244B2490561828091E0228624
:101CF800032484FF6DBFA284E5BF411126C24AC0F8
:101D0800B7C4004006C622C403A9C42023A60420E1
:101D18000F10000089E523A62421154515A0B72733
:101D2800002083C7D7AB2A842E856375F4008947C2
:101D380063EE8700693DB7C7004023A627210D45FC
:101D4800B2402244924402494101828083A785FF20
:101D580099E703C7E5FF9307F00F6308F700853D90
:101D6800B7C7004023A627214DBF37250020238F62
:101D780085FE130585AB313DA1652285E12C014522
:101D880023A6242175BFB727002023AC07AA828089
:101D9800B727002083A787B099E33E85828003D7C1
:101DA80027006316B70003C70700E308A7FEDC4750
:101DB800E5B7BDCD797122D406D626D24AD04ECE0B
:101DC80001444147B3D78540858BB1CF12053147D0
:101DD80022953305E502B727002003A987B4854477
:101DE800B3948400C204C180BE892A9903270900DC
:101DF80011C7032549002EC60297B245314733045F
:101E0800E40283A789B43E941C4489E7232009008F
:101E180023220900B2502254A58D02599254F24946
:101E28002E85456182800504E31EE4F88144DDB710
:101E38002E85828041111397050122C406C626C249
:101E48004AC041872E84635E07002D3D11C141338E
:101E5800A1673D8C2285B240224492440249410147
:101E68008280EDD9AA8701474146B356E440858A66
:101E78009DCA9207BA97B146B387D702B726002002
:101E880003A986B48544B394E400C204C1803E9992
:101E9800832709000325490082972320090023226C
:101EA8000900258C45BF0507E311C7FC8144D5BF50
:101EB800411126C2B7C7004006C622C483A4C72062
:101EC80023A607200F100000B727002083A7C7B25A
:101ED800372400201304049191C782971C403E9533
:101EE80008C031A0B727002083A707B0FDF71C4022
:101EF800374703001307D73FB387E70237A7260002
:101F0800130737ECB240BA971CC0B7C7004023A6E6
:101F1800972008402244924441018280797126D258
:101F2800B7C7004006D622D44AD04ECE52CC56CAA5
:101F38005AC85EC662C483A4C72023A607200F1010
:101F4800000005E123A697200945B2502254925477
:101F58000259F249624AD24A424BB24B224C45617D
:101F68008280B727002083A707B0BA8A368AB28B47
:101F78002E8BAA898297B727002003A787B43E89AA
:101F88000144B146C147330CD402330687011042DD
:101F980041E6C165938505F0414597E0FB1FE78061
:101FA800E00919EDB727002083A7C7B381C781458A
:101FB80011458297B7C7004023A697202D4571B7D2
:101FC800B727002003A787B021E723A4A7B02300E1
:101FD8000500832789B405473317870023260500A2
:101FE800232475012311E50023225501E29723A03C
:101FF800370123A2670123A4570163040A002300C1
:102008008A00B7C7004023A6972001453DBF3E87F9
:102018005C47F5FF48C765BF0504E316F4F6B7C784
:10202800004023A6972021450DB7B727002083A796
:1020380007B5411122C406C6372400201304C4ABD7
:1020480089C782975C483E9548C84848B2402244B0
:1020580041018280B7C7004083A6C72023A6072076
:102068000F100000372700200347D7AB6372E50243
:102078003726002013171500032546B03A95035755
:102088000500D98D2310B50023A6D72001458280ED
:1020980023A6D7200D458280B7C7004083A6C72056
:1020A80023A607200F100000372700200347D7ABCF
:1020B8006374E5023726002013171500032546B080
:1020C80093C5F5FF3A9503570500F98D2310B50020
:1020D80023A6D7200145828023A6D7200D458280DC
:1020E80001114AC837C7004006CE22CC26CA4EC6C0
:1020F80052C40329C720232607200F100000130706
:1021080005FF1377F70FFD4763ECE708B146B30601
:10211800D502B727002003A787B436971C43C9C345
:102128009354450005443D893315A4001314050153
:102138004180AE892685A285A1392A8A29C5A2852A
:102148002685993FB727002083A707B0B72400202A
:10215800938444B5829783D784002A841306006445
:10216800B38537038146B3B7370313850532B335D3
:10217800B500BE95EFA0A25ADC4022956363F50036
:102188001D8D2324AA00B7C7004023A62721014597
:10219800F2406244D2444249B249224A05618280EF
:1021A800B7C7004023A627210945DDB7797126D294
:1021B80052CCB7C4004006D622D44AD04ECE56CA16
:1021C8005AC85EC603AAC42023A604200F10000024
:1021D800B727002083C7D7AB6378F500B72700205F
:1021E80083AB07B063970B00B7C7004023A647210E
:1021F80099A037290020130949B5AE8A032B490055
:1022080083558900B74736FE938707C83E9BB38737
:10221800C5022A84B2898146B3B5C502138507323F
:10222800B337F50013060064BE95EFA0424F637004
:10223800AB0223A644210145B250225492540259BC
:10224800F249624AD24A424BB24B45618280829B34
:1022580083558900AA8413060064B3873503814631
:10226800B3B5350313850732B337F500BE95EFA034
:10227800024B83274900AA9463E3F4009D8CD6851A
:102288002285393601C904C5B7C7004023A64721AE
:1022980005455DB7936504F0C205C181414597E0E6
:1022A800FB1FE780A0D911E9B727002083A7C7B390
:1022B80085DFA2851145829705BF37270020832730
:1022C80087B08DE32324A7B085472326050004C5DE
:1022D8002311550123008500A300F50023220500E2
:1022E80065B7BA87D84775FFC8C7F9BF79714ECEA9
:1022F800B7C7004006D622D426D24AD052CC56CAF6
:102308005AC85EC662C466C26AC083A9C72023A62B
:1023180007200F10000025C141443689B28A2E8A51
:10232800AA84B14C372B0020054D130C0003B30BC6
:10233800940303278BB45E971C43B9EF9375F4009D
:10234800B315BD0013554440C2055686C1811375A7
:10235800F50FA93D31C183278BB4DE9784C323A22F
:1023680047016304090023008900B7C7004023A67A
:102378003721014521A023A637210945B25022540F
:1023880092540259F249624AD24A424BB24B224C09
:10239800924C024D456182800504E31A84F9B7C75F
:1023A800004023A637212145D1BF011122CC26CADE
:1023B8004AC84EC6B7C7004006CE03A9C7202A841C
:1023C800AE89B28423A607200F100000C5332285EA
:1023D800CE857D3A2A8405C5B727002083D5C7B5A1
:1023E800130600648146B3879502B3B59502138539
:1023F8000732B337F500BE95EFA0623248C01335F7
:102408001400F2406244B7C7004023A62721D244F3
:102418004249B2490E0505618280011122CC4AC8A1
:102428004EC6B7C7004006CE26CA83A9C7202A8948
:102438002E8423A607200F100000993AAA8419C1F8
:1024480023110500A2854A858139B727002083C753
:10245800C7AB63992701B727002003D7C7AF598CAB
:10246800239E87AEB7C7004023A63721014591E0D8
:102478001945F2406244D2444249B249056182801A
:10248800011126CA4AC8B7C4004006CE22CC4EC69F
:1024980003A9C42023A604200F1000009307F0020C
:1024A80063E6A704B1473304F502B729002083A7E0
:1024B80089B4A2979C439DCB9377F5008545B39546
:1024C800F500C205C1811181893F83A789B40145FF
:1024D800A29723A0070023A2070023A62421F240E5
:1024E8006244D2444249B24905618280B7C700407C
:1024F80023A627210945E5B7411126C206C622C4ED
:10250800B7C7004083A4C72023A607200F100000E8
:10251800EFF01F8819E90145B2402244B7C70040CF
:1025280023A69720924441018280B727002083A7E1
:1025380007B000458297B7270020938747B563689F
:10254800A402D843B74636FE938606C83305A4408E
:102558003697E372E5FC13070064B335E50203D64A
:10256800870081463305E502EFA0621B75B7D843A3
:102578003A94C1BF0111680006CE22CC26CAEF40AA
:10258800612AFD576302F504B247E1CBB727002063
:10259800B72400209384C4AB138747B594485843A5
:1025A800138447B5638DE604B727002083A707B0D7
:1025B800829732479C486373F700BA873E955C4020
:1025C800636FF5021D8D25A8B7240020372400204D
:1025D8009384C4AB130444B594485840B7270020EB
:1025E80083A707B06390E60882975840B74736FE3E
:1025F800938707C8BA973E956363E500198D37241A
:102608000020930704E29C4F130404E299CBB727F8
:10261800002083A607E93707CDFF7D179C46F98F71
:102628009CC609E5B727002003A587B5B727002072
:1026380083A707B3829719E51C4C85C3EF00426F47
:10264800EFF0913C1C4C91CBB727002003A707E97A
:10265800B70633001C47D58F1CC7F2406244D244EA
:102668000561828082979C4891BF4111B72700205D
:1026780006C623A8A7B40295B240B727002023AA0C
:10268800A7AC014541018280914763E9B700B727AC
:1026980000208A05938787AEBE9588C18280B727B8
:1026A800002023A6A7B411C5B72700200547238F0C
:1026B800E7AE8280B727002023A407B0B727002001
:1026C80023A807B4B727002023A007B03725002088
:1026D800B72700204111238F07AE5146B7270020A6
:1026E8008145130585AE06C623A607B422C426C2B3
:1026F8003724002097E0FB1FE780E0B71305C4AB41
:1027080013068002814597E0FB1FE780C0B6EFF013
:10271800AFBAB727002083C717B21304C4AB8545E7
:1027280013D527008D8B3E958D473305F5029947C4
:10273800B724002039051375F50F2301A4003305CC
:10274800F5021305052497E0FB1FE780208F23A4DB
:10275800A4B449C103462400994781453306F602CB
:102768001306062497E0FB1FE780E0B083A784B434
:1027780003472400B7240020938707240A0723A2CD
:10278800F4AEBA97372700202322F7B0EFF0AFDF77
:102798003D298347140083A644AE372604001397C7
:1027A800270036971306A6DB10C313871700137785
:1027B800F70F0A073726040036971306C6E310C337
:1027C80013873700890793F7F70F8A07A300E400F8
:1027D800B69790C3B2402244924441018280372781
:1027E80000201307C7AB834717008346270063F011
:1027F800D702B726002083A646AE13861700A3008B
:10280800C70013972700369708C33E858280930731
:10281800F00FE5BF1C41FDCB41777D8FB706002047
:1028280089476316D70E0357450075C3411126C261
:102838001946AA849305F00F610506C622C497E0DD
:10284800FB1FE78080B505478D47630BE50A9C446D
:1028580091C7D85899474DC7985C5DC33724002065
:102868001306C00381451305C4B097E0FB1FE7803A
:1028780080A01306C003A6851305C4B097E0FB1F0C
:10288800E780C0989307C4B003D7C70009E71307C8
:1028980000102396E70003C7E70001E705472387F1
:1028A800E70003D7070101E76D472398E70003C74F
:1028B800F70001E71547A387E70003C7270101E7EA
:1028C80005472389E70003C7370109E703C7F7006E
:1028D800A389E70003C7470101E75547238AE700B3
:1028E80003C7640109E71307C003238BE7009C575C
:1028F80091C78297B72700202392A7AC653B8147F1
:10290800B240224492443E854101828089473E85F7
:10291800828001114AC837290020832749B506CE8D
:1029280022CC26CA52C456C24EC68297130A0064E5
:10293800B3354503130949B5835A8900814656863C
:1029480033054503EF90B25DB72700201387C7AB67
:10295800004FAA840145630694029389C7AB338567
:102968008440636E94000325490056868146B3353A
:10297800AA023305AA02EF90925A018D269523AC3C
:102988009900F2406244D2444249B249224A924AEA
:1029980005618280011122CC2E84B7D506000A85F4
:1029A8004146938545B706CEEFA0E2101808060405
:1029B8003A94B7270020035504FF83D7E7B5F240C0
:1029C8006244AA9737450F00130505243355F502CD
:1029D80005618280B727002083D7E7B551471D4599
:1029E800637CF702794719456378F70213072003D8
:1029F80015456373F7021307B0041145637EF700AA
:102A0800130740060D456379F70013076009094568
:102A18006374F70013B5B70F8280011122CC06CE7C
:102A28002A842EC6EFF0CFC8B245F240818D33A577
:102A3800A502229562441375F50F05618280011184
:102A480022CC06CE2A842EC6EFF08FC6B245F240BD
:102A5800818D33A5A5022295624442054181056115
:102A68008280011122CC06CE2A842EC6EFF04FC4F4
:102A7800B245F240818D33B5A502229562440561C5
:102A88008280B72700201387C7B018572DC341117C
:102A980022C426C24AC006C61389C7B00297B72700
:102AA80000201387C7AB035787002A849384C7ABDA
:102AB8000DCBBA876373A700AA87C207C183BA86FA
:102AC8006373E400A286C206C182958F5147635A98
:102AD800F7008327C90291C38297EF00020F23945E
:102AE8008400B2402244924402494101828082809B
:102AF800011122CC3724002006CE26CA4AC89307E3
:102B080044B583C7C70081CB0545F2406244D2442F
:102B1800424905618280B72400209387C4B0DC57FE
:102B2800130944B5AA859384C4B081C72AC682977D
:102B3800B245B5C19C41E9DBDC41F9D783D78500B3
:102B4800E1D783D7A500E9D34146130544B597D00B
:102B5800FB1FE780A06B032744B5B727002023A0FD
:102B6800E7B083C774018DE3035589009307805745
:102B780037460F003305F5021306062481468145C2
:102B8800EF90F239A38BA400373504001305A59103
:102B9800E93C01459DBFB72700209387C7AB23AE0B
:102BA8000700B70700209387C772232AF4B4B787B2
:102BB80032007D57938727A12324F9002322E900B7
:102BC80023060900B7C7004023A4E72669B7011107
:102BD80022CC372400209307C4B0884706CE26CAE3
:102BE8004AC801E90545F2406244D24442490561B8
:102BF80082801304C4B05C58F5D7185C65D77000A0
:102C0800854582971844B247E30EF7FC0355C40084
:102C18009305E004B724002097D0FB1FE78000420B
:102C28001387C4AB08D39384C4AB4DDD0356C400EB
:102C38009305F00F014997D0FB1FE780C0638347D6
:102C4800E4009050634DF900328597D0FB1FE78070
:102C5800E04C014523A0040223A2040269B783556E
:102C6800C4000844185CB3872503898105093E958B
:102C780008C20297E9B701114EC6B7290020938709
:102C8800C9B09C4726CA4AC852C406CE22CC56C2EE
:102C98005AC02A8AAE843289638D071E9389C9B0C7
:102CA80003A74903630407121307F01F6362A712FF
:102CB800372400201307C4AB832A07021304C4ABCC
:102CC800639A0A0803D5C9009565938515E097D0DE
:102CD800FB1FE780A03608D02A866DC983D5C900B6
:102CE80083A7490303A589008981829783A789005F
:102CF800832A04025CD089476316FA08C1476397A0
:102D0800F40C83D5C9009147938505FCB3C5F5023A
:102D18008A05D69503C725009307A0056314F70A0B
:102D280083D705006390470B4A852686910597D07F
:102D3800FB1FE780A04D1C50568563935713014530
:102D4800F2406244D2444249B249224A924A024B72
:102D5800056182805850E380E7FA03D5C90095657C
:102D6800938525E097D0FB1FE780402DAA8A39CDAF
:102D780083D5C9002A8683A7490303A589008981C9
:102D8800829795BF8D47631BFA00C1476390F4048F
:102D980083D5C900938545FDF199A5BF914763186F
:102DA800FA006395440383D5C900A115F5B79307C5
:102DB8000010631DFA00A14763EA970083D5C90094
:102DC800C115D9BF1C5056856390570D29458DBF35
:102DD8009D6A637C5509930A05E01947B3CAEA025C
:102DE80003D7C900372B0020B38AEA02BE9A93079B
:102DF800CBABDC53130BCBAB6395570103240B020E
:102E08001DE003D5C9009305E00497D0FB1FE780B8
:102E1800E0222A8445DD83D5C90083A749032A8691
:102E280089815685829791451307A00589819397D3
:102E38002500A29783C627006393E60483D607007C
:102E4800639C460385058A052686A2954A8597D000
:102E5800FB1FE780A03B83270B02E38287EE2285D6
:102E680097D0FB1FE780802BD9BD21677917E36FC7
:102E7800A7F4B30A5541ADB783C5370045BF8327CB
:102E88000B02E38587F4228597D0FB1FE780002992
:102E980035BFB727002083A5C7AD8DD991479306C5
:102EA800A0058983139727002E9703462700E31F61
:102EB800D6F003560700631C460185078A07268655
:102EC800BE954A8597D0FB1FE78040348DBD834768
:102ED8003700C1BFB72700209387C7B0984729C3D9
:102EE800985F1DCF8546631DD502411122C4372442
:102EF80000201304C4AB105006C619CE83D5C700F2
:102F0800485089810297085097D0FB1FE78000211D
:102F18002320040223220402B24022444101828079
:102F28008280011122CC372400209307C4B056C2F6
:102F380083AA870026CA4AC84EC606CE52C42A8922
:102F4800AE84B2891304C4B0638C0A1C1C5C99EB70
:102F58002945F2406244D2444249B249224A924A3F
:102F6800056182805C58EDD79307F01F63E8A70CD2
:102F7800372A00209307CAAB9C53130ACAABB9C7B8
:102F8800084483274A02639FA70489476317F90601
:102F9800C147E39FF4FA0355C4009147130505FCA4
:102FA8003345F5029317250003250A022686CE85A8
:102FB8003E959307A0052301F5002310250111056F
:102FC80097D0FB1FE7808024014561B70355C400F3
:102FD8009305E00497D0FB1FE78040062320AA0250
:102FE80045F1BDB78355C4005C5803260A028981A0
:102FF80082971C442322FA0249BF8D47631CF900BB
:10300800C147E397F4F40355C400130545FD9377CE
:10301800C5FF59BF91476318F900E39B24F3035593
:10302800C4002115EDB793070010E313F9F2A14787
:10303800E3E097F20355C4004115D1BF9D6763785B
:10304800F506930705E01947B3C7E7020357C4001D
:10305800372A0020B387E702BE9A9307CAAB9C536E
:10306800130ACAABA1CF83274A02639557070325E2
:103078000A0291461308A0059305F00F93D726007E
:10308800139727002A9703462700631606078358D5
:10309800070003463700639C2805B306D64063C67D
:1030A800960485078A072686CE853E9511BF216737
:1030B8007917E36FA7E8B307F54049BF0355C40084
:1030C8009305E00497D0FB1FE78040F72320AA026E
:1030D80059F9BDBD8355C4005C5803260A0289818D
:1030E8005685829723225A0359B72310B70093169F
:1030F8000601C18261B70356C400B38596009105E5
:10310800130606FCE3F6C5E413863400719A11062B
:10311800B2962301070123102701A301D70051B755
:10312800372A00209307CAAB9C53130ACAABA9C31A
:1031380003250A0291461308A0059305F00F93D7BB
:103148002600139727002A970346270063140605CD
:10315800835807000346370063982801B306D64012
:10316800E3D196F42310B70093160601C182C1BFBC
:103178000345E4008357C4009305E0043305F502D2
:103188004205418197D0FB1FE78040EB2320AA022C
:1031980045F17DBB0356C4008345E400B385C502F1
:1031A800338696001106E3E5C5DAB9BF014582808A
:1031B80083C705002300F50083D72500A300F50089
:1031C80083D72500A1832301F50083C74500A30108
:1031D800F50011458280B727002023A20794B7275E
:1031E800002023A00794828029C1411126C206C667
:1031F80022C4AA8401458DC52E84B7D50600228530
:103208004146938545B897D0FB1FE780200083C7C8
:10321800040005452306F40083C71400A306F40040
:10322800B2402244924441018280014582800111CA
:1032380022CC26CA06CE0947AA8432846381E504D3
:1032480041468147639BC500638FE6006397B600DC
:103258000DA841478147638EE600F2406244D2449C
:103268003E85056182808A852285BD3F41468A85E3
:1032780019A88A85953F41468A85228531A0E39A17
:10328800B6FC2E86A285268597D0FB1FE78000090D
:10329800AA87E1B7B727002023A0A7948280B72781
:1032A800002023A2A7948280011122CC0354650038
:1032B80006CE26CA4AC84EC641C083298500AE84B8
:1032C8002A8803C909008147131789016187635553
:1032D8000702B147054563FA8704511442040355B0
:1032E8002800418033878900A2864E868545EFC035
:1032F800A009B337A00085077D141355690042045F
:1033080005891379F90341802380F400A380A40080
:103318002381240123928400014719C013871900CF
:1033280098C409476383E7000145F2406244D244E8
:103338004249B249056182800545C5BFC167F91791
:10334800630AF502D94763F7B702011122CC2EC6EA
:1033580006CE2A84EF90E044B2456368B500228522
:103368006244F24005616FA0106AF240624405456C
:103378000561828005458280C167F9176314F500ED
:103388006F902042411106C6EFA0B05611E15D458D
:10339800B2404101828091476394F502834705005A
:1033A8002300F6008347250003471500A207D98F9D
:1033B8002311F6008347350001452302F600828079
:1033C800114582804111814522C426C206C6AA84BD
:1033D80005252A8409E9B727002083A7079481C710
:1033E800F945268582972285B240224492444101BC
:1033F800828039714ED656D25AD006DE22DC26DAC1
:103408004AD852D4AA8A2E8BB28941EF36C6AD3734
:103418009145EF90C04AAA844D492DC9B246054A44
:10342800238034010544630A0B00B6851385140014
:10343800029B0505131405014180E20993D98941CE
:1034480063D30902C1455685EFA0F058654905E9DF
:1034580033868400A2852685EFB030382A8905E1B5
:1034680031044204418091472C085685231CF10001
:1034780026CE231D8100EFA0005F2A8901C96307BA
:103488000A00268597D0FB1FE78040C9F250625496
:103498004A85D2544259B259225A925A025B216142
:1034A8008280BA84014AADBF011122CC26CA4AC81B
:1034B8004EC606CE2A893284B689253FAA840DE1F4
:1034C800B727002083A7479481CF05476317E400F7
:1034D80003C4090005041374F40FA2854A85829772
:1034E800F240624426854249D244B249056182804D
:1034F800AE86B7350400014705469385851B6DB731
:1035080083D705002300F50083D70500A183A30016
:10351800F5000945828083D705002300F50083D78D
:103528000500A183A300F50083D725002301F5003A
:1035380083D72500A183A301F5001145828083D795
:1035480005002300F50083D70500A183A300F5003B
:1035580083D725002301F50083D72500A183A30184
:10356800F50083C755002302F50083C76500A30251
:10357800F50003D58500190542054181828083D76E
:1035880005002300F50083D70500A183A300F500FB
:103598000945828083D705002300F50083D70500FD
:1035A800A183A300F50083D725002301F50083D765
:1035B8002500A183A301F5001145828003D54500AC
:1035C800060542054181828083D705002300F50066
:1035D80083D70500A183A300F50003D525000905BD
:1035E80042054181828083D705002300F50083D7F7
:1035F8000500A183A300F50083D725002301F5006A
:1036080083D72500A183A301F50003D54500110543
:1036180042054181828083C705002300F5000545E6
:10362800828083D70500411122C406C62300F50015
:1036380083D705002E841105A183A30EF5FE83D739
:1036480025009505230FF5FE83D7D5FFA183A30F8A
:10365800F5FE03C6F5FF97D0FB1FE78020BB0345A7
:103668004400B24022441105410182808947639C8D
:10367800F50083471500034705000145A207D98FC8
:103688002310F60082801145828003D70500D947B0
:1036980063FEE702011122CC06CE2EC62A84EF90E3
:1036A8004010B24683D70600636DF5002285624458
:1036B800F240B735040001470946938585500561F6
:1036C8000DBBF2406244094505618280094582804C
:1036D80091479DC583460500FD15C2058547C181F3
:1036E8006392F60213D725008D89914791E9914796
:1036F80001CB05052301D6002310E60048C2814707
:103708003E85828009479147E39CE6FEC94733D747
:10371800F502B3F5F502D1BFAE86B735040001470F
:1037280011469385E551F1B193F7350091EB898105
:10373800914789C52310B60048C281473E858280DB
:103748009147EDBF03C745008947631AF702011186
:1037580022CC2A84C84506CEAE86014719C52EC696
:103768009D45EFE08FBFB2462A8722856244F2402A
:10377800B735040019469385655405619DB9094517
:10378800828099E11145828083470500054723110E
:10379800F600E379F7FEFD1593F5F50F33D7F5023B
:1037A800B387E702E390F5FE050548C22310E6005B
:1037B8000145828083C745000947AE866385E700D7
:1037C80041476399E700B7350400014721469385CF
:1037D800A56205B1094582802310B60091E1014533
:1037E80048C201458280AE86B735040001472946A4
:1037F80093856558FDBE2310B60091E1014548C286
:1038080001458280AE86B73504000147314693856D
:10381800C559C5B62310B60091E1014548C2014516
:10382800828003D74500854763FDE702011122CC5A
:103838002A84884106CE0DC12EC68545EFE0EFB13A
:103848002A8722856244B246F240B73504003946D9
:103858009385455C056171BEF24062440945056186
:1038680082800945828091479DC5034705008D46A2
:10387800914763F2E602FD15C205C181B3C6E502B0
:103888003308D7026399050105052310D6002311D3
:10389800E60048C281473E85828083C745000947C4
:1038A800AE866385E70041476399E700B7350400B2
:1038B800014741469385A5622DBE09458280B335EF
:1038C800B000139525008280011122CC26CA06CEAD
:1038D80003C785008547AA842E8449466310F702EA
:1038E800613C8357240049151306200963C8A700C3
:1038F800F2406244D244094505618280034794003E
:1039080085476314F70013660604484011C58D45C2
:1039180032C6EFE08FA43246A2866244F2402A877C
:103928002685D244B73504009385055D0561D1B479
:103938008D4763FFB7028347150003470500F1155C
:10394800A207D98F2310F6008347350003472500C7
:10395800C205A207C181D98F2311F6002312B60030
:1039680089C5110508C60145828023240600E5BFE4
:1039780011458280011122CC2A84884506CEAE8664
:1039880011C52EC69545EFE04F9DB2462A87228580
:103998006244F240B735040059469385E55E0561F7
:1039A80089BCB335B000139525008280AE86B73543
:1039B8000400014761469385E56125BC85471145AB
:1039C80063F4D7028347160083450600A207CD8F0C
:1039D8002310F7009387E6FF2311F70089476386D2
:1039E800F600090650C30145828023220700E5BF7F
:1039F8000147814679468145EDBA83D70500230002
:103A0800F50083D70500A183A300F500094582804E
:103A180083C7250005472300F50003D505006397F4
:103A2800E7000A050505420541818280C94733053B
:103A3800F502CDBF03D505000A0542054181828004
:103A480083D725002300F50003D5050083D725007B
:103A58003305F502050542054181828003D505003D
:103A6800828003D50500828003D50500828083D734
:103A780025002300F50003D5050083D7250033056D
:103A8800F502050542054181828083D705002300A0
:103A9800F50083D70500A183A300F50083D725008F
:103AA8002301F50083D72500A183A301F50003D5E1
:103AB8004500110542054181828083D70500230016
:103AC800F50083D70500A183A300F50003D52500E1
:103AD800090542054181828089471145639BF600AB
:103AE80083471600834606000145A207D58F231099
:103AF800F700828003D70500D947AE8663F9E7004F
:103B0800B745040001470D46938525A071BA0945BC
:103B1800828011456393A6028347160083460600F8
:103B28000145A207D58F2310F70083473600834647
:103B38002600A207D58F2311F700828083C72500AE
:103B48000547FD1793F7F70F6361F70483D705005F
:103B58008DCF011122CC2A84C84106CE15C12EC6AC
:103B68008945EFD09FFF2A8722856244B246F240FA
:103B7800B74504001546938585A105616FF0DF926E
:103B8800F240624409450561828009458280954773
:103B9800114563F9D706411122C426C24AC006C698
:103BA80083471600BA8403470600A2073284D98FD8
:103BB8002390F4008347360003472600930544000A
:103BC800A207D98F2391F40089472382F40009467C
:103BD80013855400368997C0FB1FE780206393073D
:103BE800A9FF2394F4009947631BF90023A6040056
:103BF800B24022449244024901454101828019049D
:103C0800C0C4FDB7828083D705008DCF011122CCB7
:103C18002A84C84106CE15C12EC68545EFD0FFF3CC
:103C28002A8722856244B246F240B74504001D4601
:103C38009385C5A305616FF03F87F240624409454B
:103C4800056182800945828099476395F604894712
:103C5800411106C62302F700834716008346060073
:103C6800B285A207D58F2310F70083473600834615
:103C7800260003464700A207D58F130557002311D6
:103C8800F700910597C0FB1FE7804058B2400145F7
:103C980041018280D14711456394F600C1474DBF69
:103CA800828083D705008DCF011122CC2A84C84198
:103CB80006CE15C12EC68945EFD03FEA2A87228550
:103CC8006244B246F240B74504002546938585A470
:103CD80005616FF06FFDF24062440945056182801D
:103CE8000945828089471145639BF6008347160082
:103CF800834606000145A207D58F2310F70082806E
:103D0800011122CC2A84C84106CEAE86014719C5C6
:103D18002EC68545EFD07FE4B2462A8722856244C5
:103D2800F240B74504002D46938545A605616FF01E
:103D3800AFF711456393A602834716008346060032
:103D48000145A207D58F2310F70083473600834625
:103D58002600A207D58F2311F7008280011122CCFB
:103D68002A84C84106CEAE8611C52EC68545EFD039
:103D7800DFDEB2462A8722856244F240B745040056
:103D880035469385A5A605616FF00FF293F71600E7
:103D9800114589EB89476387F60085822312D7008E
:103DA80010C301458280011122CC2A84C84106CE65
:103DB80015C12EC68545EFD05FDA2A872285624471
:103DC800B246F240B74504003D46938505A7056114
:103DD8006FF08FEDF240624409450561828083D718
:103DE80005008DCF011122CC2A84C84106CE15C109
:103DF8002EC68945EFD07FD62A8722856244B246EF
:103E0800F240B74504004546938565A705616FF004
:103E1800AFE9F24062440945056182800945828024
:103E2800854763FCD7022304A700A304B700834790
:103E3800160083450600A207CD8F2310F70093874D
:103E4800E6FF2311F70089476386F600090650C389
:103E58000145828023220700E5BF11458280014782
:103E680081464D4681456FF02FE48D47114563FB30
:103E7800D7028347160083450600A207CD8F23107B
:103E8800F7008347360083452600A207CD8F23110C
:103E9800F7009387C6FF2312F7006386A600110672
:103EA80010C70145828023240700E5BF011122CCF9
:103EB8002A84884506CEAE8611C52EC69545EFD014
:103EC800DFC9B2462A8722856244F240B74504001A
:103ED8005D46938525A905616FF00FDD854711457E
:103EE8006397F6008347060001452300F7008280A8
:103EF80001478146654681456FF00FDB011122CCF1
:103F08002A84C84106CEAE86014719C52EC68D45FE
:103F1800EFD0BFC4B2462A8722856244F240B74533
:103F280004006D46938525AC05616FF08FCC0111B7
:103F380022CC2A84C84106CEAE86014719C52EC6B2
:103F48008D45EFD09FC1B2462A8722856244F24050
:103F5800B74504007546938525AC05616FF06FC9B8
:103F6800011106CE2EC6EFA0E01401C9B245F240F9
:103F78000355250005616FE0A069F24049450561D8
:103F88008280B7270020A3880796B72700202388B8
:103F98000796B727002023AC0794B727002023AE45
:103FA8000794B727002023A00796B727002023A24D
:103FB8000796B727002023AA0794B727002023A82D
:103FC8000794B7270020239207B8930640389387B1
:103FD80047B82391D702F1761307400B938606B8AA
:103FE8002391E7002392D70211679D461306000527
:103FF8009305000A1305007D2392E7002393D70257
:1040080041478546130810F82395E7002396E700F3
:104018002399E700239AE700239BE700239CE70006
:104028002394E702239607032393B7002394B7004A
:104038002397C7002398C700239DA700239E070046
:10404800239F0700239007022395D702239707028F
:104058001308F007239807022392E7042393E70441
:10406800239FE7042390E7062391E7062392E706B8
:10407800239907031307C01C239AD702239BD7024F
:10408800239C0702239D0702239E0702239F070202
:10409800239007042391D704239407042395070446
:1040A8002396D7042397C7042398C7042399A70402
:1040B800239A0704239B0704239C0704239DC70412
:1040C800239EC7042393A706239407062395070670
:1040D800239607062397B7062398B706239907065A
:1040E800239AE7065147239DE7067D57239B07063A
:1040F800239C0706239ED706239F07062390E708DD
:104108008280011126CAAA84214522CC06CE2E849B
:1041180032C636C43AC2EFD07FB01DC9A246124794
:104128003246930700FD2300F5009947A300950048
:104138002301F5002303D500A303E5002312C500DE
:10414800AA8522856244F240D24405616FD0FFBA45
:10415800F2406244D24405618280B727002023AC34
:10416800A7948280B727002023AEA7948280B72720
:10417800002023A0A7968280B727002023A2A79615
:104188008280011122CC4AC806CE26CA2A89014457
:10419800B30489006368B400F2406244D2444249DF
:1041A800056182802EC6EFD0BFD093170501C18369
:1041B800A183B2452380F4009307140093F7F70F07
:1041C800850463F9B700CA9709042380A70013740C
:1041D800F40F7DBF3E847DBF411122C437240020E7
:1041E800130444B603556400C16706C6FD17630F80
:1041F800F500B727002003C607CCB7250020938514
:104208008596EF903049FD572313F400B2402244BD
:104218004101828009C925151375F50F1335850EDF
:104228001345150082800145828023900500C9C688
:10423800797122D426D24ECE52CC5AC806D64AD04C
:1042480056CA5EC63684328AAE892A8B814463F3A5
:104258004407B307940083C7070013891400420971
:10426800939A070193DA0A011359090163840A042E
:10427800CA976341FA04B307240183CB07005E851C
:10428800513F0DC99387FAFF2390F90063906B03A0
:10429800130519002295B250225492540259F2493A
:1042A800624AD24A424BB24B45618280D694C204DC
:1042B800C18071BF0145C5B701458280011122CC7B
:1042C8003724002026CA4AC84EC6930744B606CEED
:1042D8002E89D0CB8CCBC8C7AA8441469305F00F52
:1042E8004A8597C0FB1FE780400B8549130444B6F5
:1042F800631935030848C145693541469305F00FF0
:10430800268597C0FB1FE7804009054963152503EB
:1043180048446244F240D2444249B249C145056129
:104328008DB5414681454A8597C0FB1FE780E00669
:10433800E31535FDC1B741468145268597C0FB1F6A
:10434800E780A005E30625FDF2406244D2444249D5
:10435800B24905618280411122C43724002026C257
:104368004AC0AE842A89130600028145130544B663
:1043780006C697C0FB1FE78000F0930744B6A381E9
:104388002701B7270020238297CCEFE0A02A854792
:1043980019C1814749452302F4B6B24022449244E8
:1043A800024941018280814781CD19C98547631B34
:1043B800F50083C7550093E707FCA382F5008547FE
:1043C8003E85828089476317F50083C7550093F7B8
:1043D800F703E5B70D478547E314E5FE03C7550026
:1043E8001377F70313670704A382E500D1BF81475A
:1043F8008DC105C103C755009306000C8547137787
:10440800070C6308D700930600048D476303D700A1
:1044180089473E858280411122C4005D06C626C2B6
:104428001DC8AA84085009C597C0FB1FE78000CFA4
:10443800485009C597C0FB1FE78040CE085409C5FE
:1044480097C0FB1FE78080CD228597C0FB1FE780C0
:10445800E0CC23AC0402B240224492444101828061
:1044680019E9B727002083C767B691C73725002009
:10447800130585948280372500201305C5B78280EF
:10448800B727002003C567B68280B727002003A599
:1044980007B78280B727002003A547B78280B727D0
:1044A800002083A787B788438280B7270020938797
:1044B80047B6D44B9842050798C203C537009307FF
:1044C800F00F6305F50091656FD0DFB882800111A8
:1044D80022CC06CE2E8432C6EF90704E9147B2455C
:1044E8006310F502B727002083A7479695C303A357
:1044F8000700630F030022856244F24005610283CE
:10450800B727002083A7C79581C703A34700D5B75E
:10451800F2406244054505618280011122CC2A845B
:104528000355450006CE26CA4AC84EC6EF90502706
:1045380025CD2A89834405008349C500E93D4A857C
:10454800EFA0000703554400EF90B0423729002040
:104558001309099783470900A1CF639B9704B727DD
:10456800002083C517972685EFF09F9F19E1230048
:10457800090003554400EF9090449147631FF500EC
:10458800B7270020938747B68356440003D76700B0
:104598006395E6007D572393E700F2406244D244D6
:1045A8004249B2490561828081499304F00F79BF7D
:1045B8009307F00FE38FF4FA834664000356440030
:1045C800034524004E87A6852D3E65B779715EC6E2
:1045D800AA8B2E8552CC56CA5AC806D622D426D2C1
:1045E8004AD04ECEAE8A328B368AEF90701B7DC190
:1045F800045D2A89E5C09C50614599C313054003B1
:104608009C5481C751054205418163050A00710523
:1046180042054181DC5081C7590542054181EFD0EF
:10462800EFDF2A8445C96146814597C0FB1FE780B3
:1046380080C4B727002083C947BB63940900834916
:104648000900930700FD2300F400A947A3007401A3
:104658002301F400230364018C5023125401130531
:10466800840191C908C47146930A440397C0FB1F8B
:10467800E780C0B956858C5491C948C45146930AFD
:10468800450197C0FB1FE78060B85685630C0A0098
:1046980008C87146D285930AC50197C0FB1FE780F9
:1046A800E0B65685CC5099C548C8594697C0FB1FF7
:1046B800E780C0B5A2854E85EFD02FE42254B250D2
:1046C8009254F249624AD24A424BB24B4A85025945
:1046D800456191B3B250225492540259F249624A48
:1046E800D24A424BB24B4561828001114EC6AA891B
:1046F8002E854AC806CE22CC26CA2E89EF90500AAB
:1047080021C9B727002083C447BB99E0834405002B
:104718001945EFD0AFD02A8405CD8145194697C0F9
:10472800FB1FE78040B5930700FD2300F400B9475D
:10473800A30034012301F40023122401A28562445A
:10474800F2404249B2492685D24405616FD0EFDA7A
:10475800F2406244D2444249B249056182803971CB
:104768005ECEAA8B2E8526DA4ED652D456D25AD091
:1047780006DE22DC4AD8AE84328BB68A3A8ABE89F3
:1047880042C6EF90F00121CD2A894145EFD00FC9EB
:104798002A8431C54146814597C0FB1FE780A0ADFB
:1047A800B727002003C547BB19E103450900930754
:1047B80000FD2300F400BD472301F400B247A30025
:1047C80074012312940023046401A30454012305F3
:1047D8004401A30534015CC4A285EFD00FD2F25086
:1047E8006254D2544259B259225A925A025BF24B3D
:1047F80021618280797126D2AA8439454AD04ECE69
:1048080006D622D42EC6B2893689EFD02FC121C14F
:10481800B2459307000D2310F500B1472A842312EF
:10482800B5002301F500CE851905194697C0FB1F71
:10483800E780C09D23062401A2852254B250025964
:10484800F24913F5F40F925445616FD00FCBB25073
:10485800225492540259F24945618280411126C27C
:10486800B7240020938444B603C7340006C622C484
:104878004AC09307F00F630CF7042A893945EFD033
:10488800EFB92A8429C5930700FDB7250020230026
:10489800F500A3002501230105009385C5B70D0583
:1048A800194697C0FB1FE780609683D78400A285CE
:1048B80003C534002315F40083C714002306F4004D
:1048C8002244B2409244024941016FD00FC3B24022
:1048D8002244924402494101828001115AC02A8B24
:1048E800314526CA4EC652C456C206CE22CC4AC844
:1048F800AE84B28A368ABA89EFD04FB23DCD2A84C7
:104908002685EF90E06911C50347C500A1476314E8
:10491800F704B727002003C977B6930700FD2300E3
:10492800F4009D47A30064012301F40023129400BE
:10493800231354012314440123153401A28562442E
:10494800F240D244B249224A924A024B4A8542492D
:1049580005616FD08FBAB727002003C957CCE31E73
:104968000BFAB727002083A707A29C47DDD7CE867E
:104978005286D685268582974DB7F2406244D24446
:104988004249B249224A924A024B0561828001118A
:1049980022CC2A84214506CE2EC6EFD02FA821C1CD
:1049A800B245930700FD2300F500C5472301F50034
:1049B80083C73500A301F50083D745002312F5000E
:1049C80083C765002303F50083C77500AA85A30381
:1049D800F50022856244F24005616FD00FB2F240C3
:1049E800624405618280397162CC2A8C594526DA85
:1049F8004AD84ED652D456D25AD05ECE06DE22DCE3
:104A0800AE8432C636C4BA8B3E8BC28A468A835974
:104A1800010403494104EFD06FA025C9324693072A
:104A280000FDA2462300F5009547A301C500A30099
:104A380085012301F5002A8419461105A9C2B68506
:104A480097B0FB1FE780807C23066401230A2401BA
:104A58002315740123175401231844012319340121
:104A6800A2856254F2504259B259225A925A025BB4
:104A7800F24B624C2685D25421616FD00FA8814534
:104A880097B0FB1FE780207FC1B7F2506254D25421
:104A98004259B259225A925A025BF24B624C216136
:104AA8008280411122C437240020130444B683476E
:104AB800240006C626C28DCBB7240020AA85194635
:104AC8001385849497B0FB1FE78040740345240046
:104AD80093858494EFF03F8D2244B24013858494EB
:104AE800924441016FD0D035B240224492440145EE
:104AF80041018280411126C2B7240020938744B621
:104B080006C622C44AC003C737009307F00F938430
:104B180044B66304F7042A892945EFD02F902A84E4
:104B28000DCD930700FD2300F500A147A300250143
:104B38002301F50083C72400B725002093858594B9
:104B4800A301F5001946110597B0FB1FE780006C1B
:104B580003C53400A285EFD04F9A03C724008D47C0
:104B68006311F702B727002083A7079699CB03A301
:104B78008700630803002244B2409244024941017D
:104B88000283B240224492440249410182807971F1
:104B980022D406D626D24AD04ECE52CC56CA094482
:104BA8005DCD2A8903550500AE895144EF90403FF9
:104BB800AA8455C537270020930707CC83C7470029
:104BC8008546BA8AFD1793F7F70F494463F9F60843
:104BD8000347C500A1476314F700639209089C5C6A
:104BE8004544B5EF9165938545711305C00297B0AB
:104BF800FB1FE780A04488DC2A8A4D442DC1130698
:104C0800C002814597B0FB1FE780E0668357090023
:104C180093064A0036852311FA0071469305490028
:104C280036C697B0FB1FE780605E89472300FA000D
:104C380003C5C400B2460356090083C50ACC6115F2
:104C480013351500EFA020682A8463860900CE85F5
:104C58002685EF90904501C42685EFF0CFFB22858D
:104C6800B250225492540259F249624AD24A4561DA
:104C78008280B727002083C747CC0547FD1793F7E5
:104C8800F70F637AF708894741CA011122CC26CA6F
:104C98004AC84EC652C406CEAA89368AB2842E891C
:104CA800EF9000302A84D14739C9485509C597B0D3
:104CB800FB1FE780A046F145268597B0FB1FE780DC
:104CC800206148D4CD4705CD8346C400214781479C
:104CD800639FE600630D0A000347A501035605011B
:104CE80093062501AA854E85EF90D043AA870347EE
:104CF8004400630F0900136767002302E400F240D1
:104D08006244D2444249B249224A3E8505618280C2
:104D180013674700DDB7C9473E8582809307F003D4
:104D280063EBA700B7270020938747B806053E9591
:104D380003550500828041657D158280011122CCD2
:104D48002A842E8526CA06CEAE84EF9060251DCD16
:104D5800B7470F009387F723094563E48702814526
:104D68000A85414697B0FB1FE780E050A6852310CF
:104D780081000A85418023018100A3010100EFA081
:104D88002034F2406244D244056182804945D5BF4F
:104D9800B72700202381A7CC82806FA0E04C7971CF
:104DA80052CC2A8A328522D426D24AD04ECE56CA2E
:104DB8005AC85EC606D662C4AE8BB28A368BBA842F
:104DC8003E89C2894684EF90A01D15C92A8C6314B8
:104DD8000A0213774B008347450015CF93E7270155
:104DE8002302FC008DEC631C0902639A090205E8A2
:104DF800ED9B2302FC00832B8C0363910B08B250BC
:104E0800225492540259F249624AD24A424BB24B56
:104E1800224C45618280F59B93E70701D1B793E760
:104E280047002302FC0001CC1C484146A2852324EC
:104E3800FC0213058C0197B0FB1FE780203D6393AC
:104E48000B02D5D80325CC0209C597B0FB1FE78014
:104E5800E02CF145268597B0FB1FE78060472326A5
:104E6800AC0251BFE30909F80325CC0209C597B084
:104E7800FB1FE780A02AF1454A85F1BF9DC483A79F
:104E88000B0299EB916593853571714597B0FB1FBE
:104E9800E780C01A23A0AB0203A50B0219C571460F
:104EA800A68597B0FB1FE78060366388090283A751
:104EB8004B0299EB916593852571594597B0FB1F76
:104EC800E780C01723A2AB0203A54B0219C55946B8
:104ED800CE8597B0FB1FE78060331DC483A78B0284
:104EE80099EB916593851571514597B0FB1FE78044
:104EF800E01423A4AB0203A58B0219C55146A28571
:104F080097B0FB1FE78080302254B2509254F24988
:104F1800B24B224CCA865A860259424BD6855285D4
:104F2800D24A624A45616FF06FEA011126CA52C43B
:104F380006CE22CC4AC84EC62A8AAE84EF904006D6
:104F480025C5AA893945EFC07FCD2A8431CDB72739
:104F5800002003C947BB6314090003C9090093076C
:104F6800000D2310F400AD472301F4009385690078
:104F780013053400194697B0FB1FE780202993F7E3
:104F88001400858085882306F400A3069400231561
:104F98004401A2856244F240D244B249224A4A8579
:104FA800424905616FC07FD5F2406244D24442490C
:104FB800B249224A0561828001114EC652C456C2C6
:104FC80006CE22CC26CA4AC8AA8A2E8AB289EF807F
:104FD800307D2DCD2A891305C002EFC03FC42A8435
:104FE80035C5B727002083C447BB99E0834409002F
:104FF8009307000D2310F400E9472301F4009305FB
:10500800690013053400194697B0FB1FE78000209C
:10501800D285231554011305C400414697B0FB1FE0
:10502800E780C01ECE851305C401414697B0FB1F1B
:10503800E780C01DA2856244F2404249B249224A33
:10504800924A2685D24405616FC03FCBF240624444
:10505800D2444249B249224A924A056182804111AA
:1050680022C43724002013040495084006C619C535
:1050780097B0FB1FE780800A23200400B240224437
:1050880041018280011106CE22CC26CA4AC82EC60A
:10509800EF80107139CDB245B727002003C947BB4F
:1050A8000CD5AA8463140900034905004145EFC0E3
:1050B800FFB62A841DCD9307000D2310F500A547E0
:1050C8002301F50083C75400938564001105A30FDD
:1050D800F5FE194697B0FB1FE78040139C54A28544
:1050E800F2405CC46244D2444A85424905616FC0BB
:1050F800DFC0F2406244D2444249056182801D719A
:10510800A2CC86CE2A842EC6EF80906905CD834630
:10511800C5001147AA8749456392E6029C5FB245DC
:1051280099C383C56701B70605002308B1009386B4
:105138004629100889452285EF90E06DF6406644BF
:10514800256182805145DDBFB727002083C747CC42
:105158000547FD1793F7F70F637AF704894721CAC4
:10516800411122C426C24AC006C6B2842E89EF80E5
:1051780030632A84D14705C5630809008347450081
:1051880093E727002302F5004146A685130584010D
:1051980097B0FB1FE78080079C481CD48147B2402A
:1051A8002244924402493E8541018280C9473E8596
:1051B8008280797122D406D62A842EC6EF80505E6A
:1051C80001CDB2452285230EB1006C08EF90606ACC
:1051D800B2502254456182805145DDBF6F80F07224
:1051E800C1671387E7FF6395E502B727002083A708
:1051F800C79591EB494582804945B2402244924483
:1052080002494101828003A30700E30503FE0283EC
:10521800411122C426C24AC006C6FD172A892E8417
:10522800B284639AF502B727002083A7C79591CF68
:105238009C4381CF829711E9B727002023882797BD
:10524800B7270020A38897964DBFA6854A85EFE02B
:105258003FD145F5D5B72E85EF80905451DD834772
:1052680005000D45E39B27F922852244B2400249F7
:10527800A685924441016FD0A0399307F00363E2F9
:10528800A7064111C16722C406C626C2FD172A8493
:1052980009456382F502C547AE846313F4022E857F
:1052A800EFD0C03E37250020130545B806042A94E0
:1052B800231094000145B240224492444101828067
:1052C8009307A0036316F4002E85EFD02035D9BFCD
:1052D8009307B003E318F4FC13F5F50FEFD040344F
:1052E800D1B709458280011106CE2AC6EFE07FC9F1
:1052F800EF206072EF105013EF60D23FB727002005
:10530800938747B6130700F02391E700238207002D
:10531800B72700203245138707CCFD562301D70055
:10532800F2402380A7CC954505616F70A053597151
:1053380093970501CAD086D6A2D4A6D2CECED2CC17
:10534800D6CADAC8DEC6E2C4E6C2EAC06EDEC187E3
:105358002E8963DC0754B724002003C504CCB72981
:105368000020372B0020EFC0FF912A8426CEB72AD1
:105378000020372C0020938449B6B72C00201DE06C
:1053880021653345A900B650265496540659F64966
:10539800664AD64A464BB64B264C964C064DF25DAD
:1053A80065618280834704001307200A639CE70035
:1053B80003CA340003552400C1652286FD15EFF0A9
:1053C8000F918DA27247130707CC034A27001307D2
:1053D80010096395E716834714001547639FE70094
:1053E8002285EFF08F932285EFC06FFEF24703C549
:1053F80007CCEFC03F892A8459B739476398E71625
:10540800035544008567A5076315F5040C4483CB51
:105418000500639D0B00850591C9372500201946B5
:105428001305C5B797B0FB1FE78040DE03C749B631
:1054380085476315F71063880B00238209B65E85DC
:10544800EFF0CFC14DB789472382F9B6EFD0001FDF
:1054580059BF896713872700631CE504832B8400E1
:10546800638E0B0C83C70B0089EF83C72B0003C720
:105478001B00A207D98F2394F40083C73B00A380A5
:10548800F40003C749B68947631AF70A83C70B00B4
:1054980091C7238209B603C50B005DB783C5140005
:1054A80003D584008D472382F9B6EF70A03EE5B797
:1054B80095076318F5001C4403C50700EFF08FE358
:1054C8001DB7F9771387A7FF2A97420741839146AB
:1054D80063F1E6049387A7FCAA97C207C1837147C3
:1054E8006371F70289671387B7006310E50483A720
:1054F8008A95E38A07EE9C43A285E38607EE8297A6
:1055080015A0370700181307F770B357F700858BF6
:10551800A1CB83270B96E38807EC9C43E38507EC34
:1055280022858297E31105EC11A81387C700631041
:10553800E5021C4483C70700E38707EA9307F00FD7
:10554800E303FAEAA2855285EFC02FFB45B5B907F8
:105558006318F50083A7CC95E38707E8DC4369BFA8
:10556800896793871704E304F5F8C9BF3D47639932
:10557800E7040355440089671387D700E30CE5FC6B
:1055880013879701E308E5FCCD07E319F5FA03D77C
:105598006400C167FD17631DF70083A7CC95E384FA
:1055A80007E4DC43E38107E40965A2854D0581BF73
:1055B800B727002083A74796E38707E29C43DDB718
:1055C8001307E003E39CE7F6834724000547639845
:1055D800E70E8347640037270020930D0795E1E71E
:1055E80083A70D00D5CF83CB0700214A034574005C
:1055F800130D8400EA85EFE09FDF83474401A3038E
:10560800A400835804010358E400035744002A8681
:10561800034534003EC283572401EA86DE853EC036
:10562800D287EFF04FBC8347340095E7DD478358B6
:1056380004010358E40083467400835544003EC2C5
:10564800835724013EC06A87D28705465E85EF806E
:10565800104EA301A40083A70D0081C71145EFF0E8
:105668001FA0930B0C9703C50B00E30E05D6B727B5
:10567800002083C51797EFE0BF8EE30605D6834663
:10568800340093071003638AF6000356440083C569
:105698000B0052873685EFE0DFA623080C96A1B3EE
:1056A80083CB340099B783270B9683CB3400114AF8
:1056B80095DFDC4385DF81450145829705BF294792
:1056C8006390E70A8347640037270020930D079506
:1056D800A5EF83A70D00B5C783CB0700214A034573
:1056E8007400130D8400937725001376150089E75D
:1056F800EA85EFE0DFCF2A8683470402A303C400CC
:105708008358C4010358A4010357440003453400D7
:105718003EC28357E401EA86DE853EC0D287EFF0B9
:105728008FAC8347340085FBDD478358C401035899
:10573800A40183467400835544003EC28357E401A4
:1057480011B783CB340059BF83270B9683CB340022
:10575800114AD1D7DC43C1D781450145829741B76A
:105768000947639CE70083A78A95E38E07C6DC4355
:10577800E38B07C622858297BDB12D476398E70062
:1057880083A78A95E38107C69C47DDB70D476397D2
:10579800E70022868D450355440015B119476395E6
:1057A800E7069305610213051031EF60427D2C1066
:1057B80013052031EF60A27C0356640083578102F1
:1057C8000355440063E8C700835684000357610209
:1057D80063F7E60093050002EFC0506A29B16374CD
:1057E800E6002313E40063F4D7002314F4000357FE
:1057F800C4008356A40003568400835564000148FE
:105808008147EFC07067C5B61D47E389E7D23147C6
:105818006395E7002286B145BDBF35476398E70029
:1058280083A78A95E38107BCDC4799B73947639614
:10583800E7002285EF00F0077DB63D476398E70053
:1058480083A78A95E38107BA9C4B1DB741476396A6
:10585800E7002285EF00101179B645476396E70007
:105868000145EF00902041B64947639DE700832733
:105878000B96E38507CCDC43E38207CC81450545DD
:1058880082976DB94D47639CE70083270B96E387A2
:1058980007CADC43E38407CAA2850945D5B761472F
:1058A800E39EE7C82286E145FDB593F7150089CF49
:1058B800B727002083A7879589C7DC4399C301458B
:1058C800829713451900C1B493F7250091CFB727E4
:1058D800002083A7079691C7DC4381C7814505450A
:1058E80082971345290045B493F745000145E38C99
:1058F80007A8B727002083A747953724002013045B
:1059080044B691CF85472302F400B727002083A728
:10591800079691C7DC4381C781450545829748446E
:105928002C10EF9040662810EFF0AF97B7270020B3
:1059380083D767BA81CF130600643386C702B727B7
:10594800002003C507CC9145EFC05F861345490089
:105958001DBC011122CC2A84554506CE26CAEFF07B
:10596800EFBBAA8413054002EFF04FBB2AC613050C
:105978005002EFF0AFBAAA86228562443246F2405E
:10598800B3359000D24405616FC0B055797122D407
:1059980006D68D472E84631FF50003D7A50083D64E
:1059A800850003D665000345340083D54500EFE044
:1059B800DFF209A889671387D7006311E50403C5D7
:1059C800250019E58547B25022543E8545618280FD
:1059D800B727002083A60795F5D603C6360083C5EA
:1059E8000600814802C202C001488147014791066A
:1059F800EFE07FFF0545EFF08FE6E9B71387E70093
:105A0800E302E5FC13873701631AE50003C52500A7
:105A180055D9014781460146814551BFE507E30352
:105A2800F5FAB1476319F500B727002003C577B623
:105A3800EFE0FFF541BF41677D178147E315E5F8C2
:105A480003C75500C947E31FF7F683D6E50003D619
:105A5800C5000355840083D5A500EFC0104F41C988
:105A68005D45EFF0AFAB3335A000231CA1008345A3
:105A78004400035524003008EF80204383578101F8
:105A8800B1F36C0813051031EF60624F9305E10123
:105A980013052031EF60A24E8357C10103578400DC
:105AA8006374F7002314F4008357E1010357A4003B
:105AB80063F4E7002315F400835784000357A40018
:105AC8006374F7002315F40003552400EF506112A6
