:10C000006F00026A000000000018011800280128D3
:10C0100002280328002901290229032904290529C6
:10C02000062907290829002A012A022A032A042AA4
:10C03000052AA62AFCCD0200D4DD00002003002042
:10C040009E030020A80200207A0200201002002097
:10C050006ADE0000AEDE0000C2DF000030E2000059
:10C060000EE300001EDC0000F2DA0000A8DB000096
:10C0700040DB000004E900002805002040DE00004D
:10C08000F2E500005085020048870200C0870200E8
:10C09000D2470200E2470200BAF9010066EC010053
:10C0A000447F020028E600009C4E0200F287010057
:10C0B00080880100D88801008CF10000D8F10000D0
:10C0C00042F0000014440100CE3E0100AC4D0100DE
:10C0D0007C5101002855010006310100A430010007
:10C0E0008C340100523101007A300100FE30010031
:10C0F0002C300100D63101002E320100DE3101006A
:10C10000E23101007C320100363201006832010068
:10C110008237010086370100D2310100DA31010097
:10C120007A320100843701002A330100F43801001B
:10C130008663010004640100426401007846010046
:10C1400090460100CC460100262B01000A2C01007C
:10C15000722C010066100100080B01004221010051
:10C16000860B0100A61C01005AAF0200A0A7020026
:10C170007CAC0200A6C202008CC1020018C50200FD
:10C1800008C5020010C5020050C50200C099020097
:10C19000000000000000000000000000000000009F
:10C1A000C0C5020086BF02001CBF020000000000E4
:10C1B000000000000000000000000000000000007F
:10C1C000CE680200FE560200845A02005C5802004B
:10C1D000A4620200EC7F0200E27E0200F4990200F9
:10C1E0008AEA0000FA4802007C4E0200744F020006
:10C1F000000000000000000000000000764A01007E
:10C2000000680200000000000000000000000000C4
:10C21000AE560200420C0020C44902003CC5020098
:10C2200000000000000000000CC50200C0E100009A
:10C23000CA47010044C50200A4690200726A0200F4
:10C24000EC6A0200DAAC020040C5020048C50200F8
:10C25000F2EB01004CC50200A410002034170020AE
:10C26000BAAC020060AE0200000000000000000056
:10C2700000000000000000000000000000000000BE
:10C280006373B60082801C419105110523AEF5FE53
:10C29000C5BFB7270020372700209387878813075B
:10C2A000C7DE6373F700828023A007009107D5BF24
:10C2B000411122C4B7C7004006C603A4C72023A665
:10C2C00007200F10000011C199E5B7C7004023A651
:10C2D0008720014545A893073500C207C183F19B1C
:10C2E000C207C183130740036366F70237270020A4
:10C2F0000325079E372700208326879D6391A6028A
:10C3000037270020032787A669D3C207DD8D05459F
:10C31000029765BF372700200325C79DE1BF03575C
:10C3200065002DE7035745006362F706B726002036
:10C330003306F74021489386869E6378C802832897
:10C34000050003D86600138687001D8F2A966117A3
:10C350002312E600232016012313060010C1231226
:10C36000F500130788FF2393E6002313B50083D558
:10C3700066002105B387F5402393F600B7C7004058
:10C3800023A68720B2402244410182800841BDB7E4
:10C39000B7C7004003A8C72023A607200F1000003E
:10C3A00001E523A607218280B727002003AE079E60
:10C3B000B727002003A3879D8146F28763FC670AA5
:10C3C00083A80700636BF50A63E9A80A138787004F
:10C3D0006362E50A03D66700216705076319E60073
:10C3E000372600200347069105072308E6903726E5
:10C3F00000201305869E83D54700035765002393CD
:10C4000007001306869E2E97420741832313E500FB
:10C410006387C703372500200325C59D6301F50207
:10C4200003D5660009ED83D7460023A01601210736
:10C43000BE95A1052392B6002313E600B687984364
:10C44000630A6702B726002083A6C69D6304D7024D
:10C450008356670085E283D647008355470018431B
:10C46000A106AE962392D70098C383576600A10712
:10C470002313F600B7C700402DB7BE86C6873DBF61
:10C48000B7C7004003A7C72023A607200F1000004E
:10C4900001C599C1814711E6B7C7004023A6E7202F
:10C4A0008280B386F50003C80600B306F500850751
:10C4B00023800601E317F6FEC5B737C70040832780
:10C4C000C720232607200F10000019C191C111E6D3
:10C4D00037C700402326F7208280910503A7C5FFB8
:10C4E00011057D16232EE5FEDDB737C700408327F3
:10C4F000C720232607200F10000001C53307C50001
:10C5000011E637C700402326F72082800505A30FD8
:10C51000B5FEE31DE5FEF5B7B7C7004083A6C7200B
:10C5200023A607200F10000081473307F5000307FB
:10C53000070019E737C700402326D7203E858280B1
:10C540008507E5B7011126CA4AC8B7C7004006CE1D
:10C5500022CC83A4C7202A892E8623A607200F1069
:10C560000000131506019305F004418132C689339A
:10C570002A8401C53246CA8521372285F2406244A9
:10C58000B7C7004023A697204249D2440561828064
:10C59000B7C7004003A7C72023A607200F1000003D
:10C5A00001C599C1814711EAB7C7004023A6E7201A
:10C5B000054582808507E309F6FE3308F500B3865A
:10C5C000F5000348080083C60600E305D8FEB7C798
:10C5D000004023A6E72001458280B7C7004003A79B
:10C5E000C72023A607200F1000009307F6FFBE9573
:10C5F0002A966317C500B7C7004023A6E7208280AC
:10C60000FD1583C715000505A30FF5FEDDB737C778
:10C6100000408327C720232607200F10000001C5F4
:10C620003307C50019E637C700402326F720014528
:10C63000828005058346F5FFE397B6FEE31BE5FE22
:10C6400037C700402326F72005458280797126D21E
:10C65000B724002022D403A444A306D64AD04ECE49
:10C6600052CC56CA5AC85EC662C44DC4372A00208E
:10C6700037290020B7290020814BB72A002037CB6B
:10C68000C901130A8AA31309899E938909A88357AC
:10C69000240099EF5C44639A0B0023AAF4A2032CB4
:10C6A000C4002285F531628499A823A6FB00C5BF8A
:10C6B00083A7CAA282971C443307F5406376F5002E
:10C6C00003A749001D8F2A979306FB3763E8E60608
:10C6D00023280900835524000345040097E000E067
:10C6E000E780E09F5C405844B1C31444B69783A6EA
:10C6F000490063E3D700958F1CC4A28B3A8441F8AC
:10C70000B72700209387879E984B854663FCE604F5
:10C710007D1798CBB250225492540259F249624A82
:10C72000D24A424BB24B224C4561828063950B004A
:10C7300023AAE4A2ADB723A6EB0095B703274A02CC
:10C7400019CB63EDA7003385A740832709016374E4
:10C75000F5002328A900A28B404455B703A7490040
:10C76000BA97D5B723A8070075B7B727002003A746
:10C7700087A7411122C406C63E8411C30297B7277A
:10C78000002083C7A7A293F7F70F99E3232C04A6F1
:10C79000B24022444101828001114AC83729002059
:10C7A000832749A106CE22CC26CA4EC652C456C201
:10C7B0005AC081C78297232A09A0930749A1DC4365
:10C7C000B7240020938444A191C38297832749A171
:10C7D0006394071A372400209307C4D183C77700D6
:10C7E00015471304C4D16309F718372A00209307AB
:10C7F0000AA883C7C700130A0AA885E38347540021
:10C80000858B81CF8347740019476312F70EA3020B
:10C810000400EF00703FDC4482979C4491C38297F0
:10C82000B7240020B72900209387849E03A709A37B
:10C8300003C61700938A849E83C7849E939617002D
:10C84000BA9683D60600DDCE83C7849E63E4C70C08
:10C85000832749A12384049E6390071283477400B1
:10C860001547630BF7108347940081CF834774000B
:10C8700093F7F70F99E7A3040400974002E0E780DD
:10C88000005DB727002083A7C7A2FDC783274A0002
:10C8900023A8FA00653BB727002083A7C7A5E9CFE7
:10C8A0008347740015476369F70CB7270020938707
:10C8B000C7D583C7C700918BE1E3B727002083C7A3
:10C8C000A7A293F7F70FCDEB83C61A0003A609A31F
:10C8D00063CED70A6244F240D2444249B249224A66
:10C8E000924A024B056117E300E0670023D18347BA
:10C8F00074001D47E313F7F2A3020400EF00D030E9
:10C900009C4819BF850793F7F70F2384F49EE3E54E
:10C91000C7F21DBF86073E97835507002310070007
:10C9200003C5849EB727002083A707A113172500FE
:10C93000372B0020BA979C4323140BA2829783576E
:10C940008BA203C7849E93C7F7FF7D8D93171700B3
:10C9500003A709A33E97835707005D8D2310A70007
:10C9600083C7849E81C785072384F49E03C7849E62
:10C9700083C71A00E37EF7ECF2406244D244424996
:10C98000B249224A924A024B0561828013971700EE
:10C990003297035707006DF385071DBF37C7004067
:10C9A0008326C720B707FCFFFD17F58F2326F72046
:10C9B0000F100000B72700209387879EC84F83275A
:10C9C00087262326D7206A0593C7F7FF99835D8DB5
:10C9D00082800327851163000712411122C406C615
:10C9E0008347C5008345E5042A8493F7C70F2306D0
:10C9F000F500834697000356C700139586016185AD
:10CA000063F1C508635A05060345870093F6F607E8
:10CA1000A304D700054693E627006314C50093E6F8
:10CA200017002306D4005C4389075CC3A30AB40043
:10CA3000032504112E864C4309059934832784115C
:10CA400003465401D44303D7C700B296118FD4C311
:10CA50002396E7008947A30DF400B727002003477A
:10CA6000640383C7A7A46378F7048347C40093E7EC
:10CA700007012306F40081A093E717002306F400C2
:10CA800075B79376F60F635D05020345870085450C
:10CA900013E627006314B50013E617002306C4004D
:10CAA000A30AD400A30407008547A30DF40083273D
:10CAB00084119C43DDF3B240224401454101828050
:10CAC00093E717002306F400A30AD400A304070089
:10CAD000032504114C43090565328327841103465D
:10CAE0005401D44303D7C700B296118FD4C3239601
:10CAF000E7008D475DBF05458280B727002083A7EB
:10CB0000C7CF411122C406C6858B2A84DDEB41655F
:10CB1000130525F5970002E0E780C03F5DC183471C
:10CB2000A5002315F50083270412B5E72320A412DE
:10CB30002322A41285472311F404232005008347F0
:10CB4000640154412316F5000347D4002304E50093
:10CB50000547A304E50037270020032747D31385A3
:10CB6000170215811C437D151375F50F9CC25C439C
:10CB7000DCC21C479CC65C47DCC61C4B9CCA5C4B99
:10CB8000DCCA1C4F9CCE5C4FDCCE19CD93860602CE
:10CB900013070702C1BF8327441288C383572404A5
:10CBA0002322A412850741BFB7270020938707BE21
:10CBB00003D7870005072394E700B24022444101D0
:10CBC00082808347C40023090400054593C74700BA
:10CBD0002306F400DDB78347850193F7E70FDDEB0C
:10CBE00083479501C5EB034625018346C50009CA65
:10CBF00037270020834565030347B7A463E7E500B3
:10CC000013F7060149CB014709C6C18A0357E51846
:10CC100081C68356251936973DCFB727002003D507
:10CC200087A81307C71237460F00B335A702411173
:10CC300013060624814622C426C206C67D54330547
:10CC4000A70297C002E0E780E0D3B727002083C7A0
:10CC5000F7A4B384A700B727002003A787C68327BC
:10CC6000070963F387003E84184375FBB72700204C
:10CC700083A7C7A2829781476364A400B307A44037
:10CC8000B2402244B3B7970093C7170092443E8541
:10CC90004101828081473E858280B727002003A71B
:10CCA00087D33C5BFDFF828001114AC837290020F1
:10CCB000930709BE22CC03A4070906CE26CA4EC696
:10CCC00052C4630C041A83570404A30F040013090D
:10CCD00009BE85072310F404834704142285638664
:10CCE000071A452C228597F001E0E780000F6316B4
:10CCF0000518B7290020938609A803D58600835715
:10CD0000640837470F001306F723B387A7021307FA
:10CD1000072483240409230B040203AA46009389F1
:10CD200009A8B297B3D7E70263E3F416B387F440D8
:10CD30002324F4088327C408BE9463E44401B38425
:10CD400044418357040223289408B1C7835604043E
:10CD50000357440237460F002312D4023387E640BC
:10CD6000B387E70203572402130606248146814550
:10CD7000BA97C207C1833385A7022311F40297C073
:10CD800002E0E78020C001C9AA9463E44401B384AF
:10CD9000444123289408372A00208327CAA2829777
:10CDA000AA848327CAA28297E30D95FE8327CAA28D
:10CDB00083248408829763E1A40E3385A4406DC167
:10CDC0008327C408637EF50CB7440F0093840424C2
:10CDD000B335950203DA890003592402814652864D
:10CDE0003305950297C002E0E780C0B9B309A900F6
:10CDF0003305490337460F00130606248146814553
:10CE000097C002E0E78000B815C1B337950252869B
:10CE10008146B385B4023385A402BE9597C002E073
:10CE2000E78040B63305A9402311A4022945974065
:10CE300002E0E78000100347B4008547631EF70057
:10CE4000930700FD2307F400B727002003A587D030
:10CE500097E000E0E780208DB72700209387C7D1B7
:10CE60001547A383E700B727002083A787D3370799
:10CE70001000860998C723A83707F2406244D244BD
:10CE80004249B249224A056182808D20A1BD338783
:10CE90004401B307F74069BD83A74900BE9431BF81
:10CEA00023280908B7E700E03707001023A0E72090
:10CEB000E9B7B727002083C7C7A89DC3B7270020BD
:10CEC00083A707C785C3B7270020238507A2B727F5
:10CED000002083A787D337071000D8C70547B8DBE2
:10CEE0000545828017F301E06700C37A797126D285
:10CEF00006D622D44AD04ECE52CC56CA5AC85EC6A6
:10CF00008347550303447513AA843E941374F40FA6
:10CF10009307400263F687001304B4FD1374F40F03
:10CF200003AA841383AAC413A38B84122286528576
:10CF3000D68597C002E0E78020A2058915E503CBDE
:10CF4000D41201498149337B6403930B50024A8612
:10CF50005285D68597C002E0E78000A0058915C5F7
:10CF6000639169031374F90F238B8412B250225416
:10CF700092540259F249624AD24A424BB24B45613D
:10CF800082808509E20993D989410509E31179FD78
:10CF9000E1BF8327850903560504797193D60701FC
:10CFA000BD8EC206C182358E1357764093575640C8
:10CFB000898B058B5D8F93573640918B5D8F93578F
:10CFC0001640A18B5D8F93171600C18B5D8F931751
:10CFD000360093F707025D8F93175600935586002E
:10CFE00093F707041E065D8F1376F60F518F93D7C4
:10CFF000554013D63540118A898BD18F13D6754091
:10D00000D18F13D61540218AD18F13961500418AEE
:10D01000D18F1396350013760602D18F13965500E3
:10D02000137606049E05D18F93F5F50FCD8FA207D9
:10D0300045465D8F3307C70222D42A8426D252CCBC
:10D0400056CA032A8413832AC4135AC806D63697AD
:10D050004207418393577740135557400989858B81
:10D06000C98F135537401189C98F1355174021892E
:10D07000C98F131517004189C98F13153700137510
:10D080000502C98F131557009355870013750504C2
:10D090001E07C98F1377F70FD98F13D5354013D7D4
:10D0A00055401189098B498F13D57540498F13D588
:10D0B00015402189498F139515004189498F139592
:10D0C000350013750502498F139555001375050436
:10D0D0009E05498F93F5F50F4D8F2207D98FB387A2
:10D0E000C7024AD04ECE5EC662C4B697C207C1839D
:10D0F00013D7774013D557400989058B498F13D52E
:10D1000037401189498F13D517402189498F1395CD
:10D1100017004189498F1395370013750502498F10
:10D120001395570093D58700137505049E07498F03
:10D1300093F7F70FD98F13D5354013D75540118981
:10D14000098B498F13D57540498F13D51540218917
:10D15000498F139515004189498F13953500137533
:10D160000502498F13955500137505049E05498FD7
:10D1700093F5F50F4D8F2207D98FB387C70213069A
:10D1800050025285D685B697BD8E93940601C18014
:10D1900033F6C402137BF60F97B002E0E780C07B42
:10D1A00005890DED8347D41201498149B384970263
:10D1B000130C5002C1804A865285D68597B002E092
:10D1C000E78080790589937BF90F11C56386340365
:10D1D000850993F9F90F0509E31F89FD230B6413F2
:10D1E000B250225492540259F249624AD24A424BF6
:10D1F000B24B224C456182805E8BCDB70111B727BF
:10D20000002022CC03A487C926CA4AC84EC606CE2F
:10D21000AA8413092500854915C083C71400034754
:10D220003400858B6304F700405CFDB71946930515
:10D2300044004A85EFF0CFB5E31835FF2285F24070
:10D240006244D2444249B249056182804111B72704
:10D25000002022C403A487C926C24AC006C693047C
:10D260002500054901E82285B24022449244024942
:10D2700041018280A6851305A402972002E0E78081
:10D28000A0F6E30225FF405CF1BF4111B727002063
:10D2900022C403A487C926C24AC006C69304250037
:10D2A000054901E82285B2402244924402494101E5
:10D2B0008280A6851305A401972002E0E780C0F2D2
:10D2C000E30225FF405CF1BF0111B727002022CC0B
:10D2D00003A407C926CA06CE2AC42EC6854419E46B
:10D2E0000145F2406244D244056182808347910047
:10D2F00003471400858B6304F7000044CDB719463B
:10D300009305A10013052400EFF08FA8E31795FE05
:10D310000545C1BFB726002003A706D101114AC8A1
:10D320001C5F4EC606CE998322CC26CA858B3689D1
:10D33000B7290020ADCF93070006372400201CDF5B
:10D340009307C4D183C76700130700089304C4D1AF
:10D350006319F70083A7C9D09C4393F7070423837D
:10D36000F4008347C4D193F7070489CFB72700207F
:10D3700083A7C7A2829788C88347C4D193F7F70BC6
:10D38000230EF4D083C7440093F707048DE3854749
:10D39000A382F400B727002083A787D337070200B2
:10D3A00098C7130700FC2382E400D844F8D303276E
:10D3B00009D11C5F9183858B95C31C5F93E707019F
:10D3C0001CDFB727002083A787D3054723A20706C2
:10D3D000B72700209387C7D12382E70083A7C9D04E
:10D3E000D8430583058B19C7D843759BD8C3D84349
:10D3F000799BD8C3F2406244D2444249B2490561A4
:10D400008280093F73002030B7270020B726002014
:10D4100003A687D39387C6D103C7C6D1058B11C78F
:10D4200023820700A3820700828003C71700058BB1
:10D4300065FB785275F303C75700EDB73727002017
:10D44000032807D1832788039583858BC1E311C601
:10D4500083270803BD832300F60085CA832707D1ED
:10D46000985B4607935767016356070093E707C029
:10D47000C207C18303970600C207C18709C7BA97CD
:10D480000947B3C7E7022390F6009DCD83451500F9
:10D4900085CDB72700209387C7D183C7670013873F
:10D4A0009500894593F7070485C33A95834705009E
:10D4B0000547994593F6F7066398E600E207E1878A
:10D4C000814563D30700B9452E8582808545EDBF30
:10D4D000411122C406C63724002026C2032784D364
:10D4E00059E5AE877453FDFEB72400209384C4D160
:10D4F0003E85B28523810400974002E0E7804082A8
:10D50000B727002083A707D1B70680009843558F1F
:10D5100098C3D857719BD8D7832784D3A38204009C
:10D52000A3800400094798C3B7F700E003A707D119
:10D530006D9B23A8E7D003A707D15D9B23A8E7D065
:10D5400073005010832684D3B72700209387C7D158
:10D5500003C72700058B19E703C73700058B41C3B5
:10D5600023820700B24022449244410182808D47C9
:10D57000631FF500B727002083A707D1B7068000F7
:10D580009843558F98C3D857719BD8D765BF8547A7
:10D59000E31AF5FA54478177FD17F58F5CC70F1032
:10D5A0000000032784D3B7070200130600F81CC746
:10D5B000B72700209387C7D12382C700B727002051
:10D5C00083A707D19C439D83858B6397A70093070F
:10D5D00060197CD354C7BDB79307E01BDDBFF85279
:10D5E00025FB49B7411122C437240020832784D367
:10D5F00006C6D8479316D70063D3060298479316FA
:10D60000D70063DE06007D57B8D737270020130701
:10D61000879E544F850654CF3707040098C7984714
:10D620000D83058B0DC3372700201307C7D1834611
:10D63000270093E616002301D700930600F8230283
:10D64000D700214798C79847058B09CF3727002077
:10D650001307C7D18346170093E61600A300D7002F
:10D66000054798C798470983058B09E798470583BD
:10D67000058B05CF372600209306C6D1A38206006E
:10D6800098470983058B75CB0347C6D113671700ED
:10D69000230EE6D0114798C737270020832607D1ED
:10D6A000D856719B13671700D8D698479316F70082
:10D6B00063D4060237270020930607BE03C6C606BA
:10D6C000130707BE418A71C203C7C6061367070264
:10D6D0002386E606416798C798479316E70063D20A
:10D6E0000602372700201307C7D183464700E2060A
:10D6F000E18663D5060085462302D700370702007E
:10D7000098C798479316C70063D3060237270020AF
:10D71000130707BE8346D706858AC1CA8346D70644
:10D7200093E62600A306D7063707080098C7984750
:10D730009316B70063DF06023707100098C7B727B4
:10D74000002083C7C7A895C7B72700209387C7D1F4
:10D7500083C777001547630EF700B727002083A71C
:10D7600047D091C38297032784D3B7071F00BD0713
:10D770005CC7B24022444101828003C73600136770
:10D780001700A381E600094739B78346C706094653
:10D79000BD8A6388C6008346C7060D46BD8AE39BE3
:10D7A000C6F291462306D70635B78346D706918A37
:10D7B000A5DE8346D70693E68600ADB7372700205F
:10D7C000B72600201386C6D31307C7D58347D700D3
:10D7D0008345B601484AAE97FD8BB355F500A300CB
:10D7E000F600A306F700858995E9034717018146EE
:10D7F00013080002B3F7E7020147B355E500858936
:10D800009378F70F89C96395D700A300160182802A
:10D81000850693F6F60F0507E31107FF8280B72709
:10D8200000209387C7D183C7570093F7F70FD1EB39
:10D83000B727002083A7C7A2411122C44AC006C649
:10D8400026C28297372900209307C9D5804713093C
:10D85000C9D56302A40663688504018DB72400203E
:10D860009387C4D383C7A701135455009384C4D3AB
:10D870006363F404A13783C7A40103278900939647
:10D88000570036971D8C2324E900E375F4FE2244EB
:10D8900003C51400B2409244024981454101174337
:10D8A00002E06700E3AFB727002083A747A83384CF
:10D8B0008740229565B7B240224492440249410113
:10D8C00082808280B727002083A7C7A2011122CCC3
:10D8D00026CA52C406CE4AC84EC68297B724002034
:10D8E0009387C4D58047014A630CA4049384C4D5AC
:10D8F00063618506018D372700209307C7D383C74F
:10D90000A70113545500137AF5011309C7D36366B1
:10D91000F402B7290020938909A84D358346A9014F
:10D920009C4403A64900139756003E97158C6363E9
:10D93000C700118F98C4E372D4FE1604336A440101
:10D94000F24062445285D2444249B249224A0561BA
:10D950008280B727002083A747A833848740229579
:10D9600059BFB727002003A787D38967938707F498
:10D970007CD3B727002083A7C7D883A607091396AF
:10D9800056006358060083A6070913966600634491
:10D9900006007453FDF28280EFE03FDD730000006B
:10D9A00000000000970200009382622F03830200B0
:10D9B00023800200630F0300F32510342EC0970567
:10D9C00000009385A5FD73901534EFF0BFC173007F
:10D9D000203086DCEFF01FC1E6508280000000009E
:10D9E000B72700203727002083A7079E0327879D9E
:10D9F00001456313F700828083D6670081E683D6F2
:10DA0000470036959C43F5B7B727002083A587A329
:10DA100037270020938787A3138605222320C79EDC
:10DA200003D74700938785FFB72600204111BA9797
:10DA3000056523ACF69C06C61D0593563700637436
:10DA4000E500930600203307D60037250020232E5B
:10DA5000E59C23A0E522E1162312D600231306003D
:10DA60001CC3998FE1172312F700231307008D3F82
:10DA7000B240B72700202397A79E41018280B72795
:10DA80000020B726002083A7079E03A6869D2A872D
:10DA9000B305B5406314F6003A8529A8938687003C
:10DAA0009C43E369D7FEE377F7FE2E85E3E4D5FEDA
:10DAB000E3F2F5FE828023AC05FE1C4191E70100F4
:10DAC00001000CC18280BA8703A787FF6DFF23ACDA
:10DAD000B7FE8280184183A785FF6319B7001CC178
:10DAE000FD5723AC05FE238FF5FE8280232CF6FE26
:10DAF000C5BF411122C426C237C4004006C68324D4
:10DB0000C420232604200F10000009E923269420B6
:10DB10001545B24022449244410182800347E5FF0B
:10DB20009307F00F6306F700232694201145D5B71D
:10DB30009720FF1FE780005F014523269420D1BF77
:10DB4000411126C24AC0B7C4004006C622C403A978
:10DB5000C42023A604200F10000009E923A62421D5
:10DB6000B2402244924402494101828095659385E6
:10DB700005D0C98D2A842105C2054205C181418194
:10DB80009720FF1FE780004C01CDFD5723200500A3
:10DB9000231285002303F50023A624212105C9B7FC
:10DBA00023A6242101456DBF01114AC84EC6B7C73F
:10DBB000004006CE22CC26CA83A9C7202A8923A6E4
:10DBC00007200F100000372500200324459E8144C4
:10DBD000014611E491E8A1654A85992D31A8834752
:10DBE000E4FF6397270395C8A6851305459EDD3599
:10DBF0007DD0A1654A85952CF2406244B7C70040AC
:10DC000023A6372126854249D244B2490561828044
:10DC100091E02286032484FF6DBFA284E5BF4111F9
:10DC200026C24AC0B7C4004006C622C403A9C42005
:10DC300023A604200F10000089E523A62421154502
:10DC400015A0B727002083C7979E2A842E85637569
:10DC5000F400894763EE8700693DB7C7004023A6FB
:10DC600027210D45B240224492440249410182805D
:10DC700083A785FF99E703C7E5FF9307F00F6308C4
:10DC8000F700853DB7C7004023A627214DBF3725A4
:10DC90000020238F85FE1305459E313DA165228519
:10DCA000E922014523A6242175BFB727002023A21E
:10DCB000079E8280B727002083A747A399E33E856C
:10DCC000828003D727006316B70003C70700E30865
:10DCD000A7FEDC47E5B7BDCD797122D406D626D2A2
:10DCE0004AD04ECE01444147B3D78540858BB1CF52
:10DCF0001205314722953305E502B727002003A915
:10DD000047A78544B3948400C204C180BE892A9980
:10DD10000327090011C7032549002EC60297B24503
:10DD200031473304E40283A749A73E941C4489E7A2
:10DD30002320090023220900B2502254A58D025944
:10DD40009254F2492E85456182800504E31EE4F871
:10DD50008144DDB72E85828041111397050122C4CD
:10DD600006C626C24AC041872E84635E07002D3D49
:10DD700011C14133A1673D8C2285B24022449244B7
:10DD8000024941018280EDD9AA8701474146B35635
:10DD9000E440858A9DCA9207BA97B146B387D702F5
:10DDA000B726002003A946A78544B394E400C20423
:10DDB000C1803E99832709000325490082972320CB
:10DDC000090023220900258C45BF0507E311C7FC84
:10DDD0008144D5BF411126C2B7C7004006C622C440
:10DDE00083A4C72023A607200F100000B727002018
:10DDF00083A787A5372400201304848591C78297C1
:10DE00001C403E9508C031A0B727002083A7C7A2B9
:10DE1000FDF71C40374703001307D73FB387E702DE
:10DE200037A72600130737ECB240BA971CC0B7C714
:10DE3000004023A69720084022449244410182805A
:10DE4000B727002083A7C7A7411122C406C63724DD
:10DE500000201304849E89C782975C483E9548C879
:10DE60004848B240224441018280B7C7004083A69F
:10DE7000C72023A607200F100000372700200347E4
:10DE8000979E6372E50237260020131715000325BD
:10DE900006A33A9503570500D98D2310B50023A694
:10DEA000D7200145828023A6D7200D458280B7C7A1
:10DEB000004083A6C72023A607200F1000003727A5
:10DEC00000200347979E6374E5023726002013174E
:10DED0001500032506A393C5F5FF3A9503570500E2
:10DEE000F98D2310B50023A6D7200145828023A6F3
:10DEF000D7200D45828001114AC837C7004006CEA1
:10DF000022CC26CA4EC652C40329C7202326072086
:10DF10000F100000130705FF1377F70FFD4763ECA1
:10DF2000E708B146B306D502B727002003A747A7E5
:10DF300036971C43C9C39354450005443D893315A6
:10DF4000A400131405014180AE892685A2859D3366
:10DF50002A8A29C5A2852685993FB727002083A74D
:10DF6000C7A2B7240020938404A8829783D7840093
:10DF70002A8413060064B38537038146B3B7370399
:10DF800013850532B335B500BE95EFE06178DC400E
:10DF900022956363F5001D8D2324AA00B7C70040B6
:10DFA00023A627210145F2406244D2444249B249A6
:10DFB000224A05618280B7C7004023A62721094570
:10DFC000DDB7797126D252CCB7C4004006D622D430
:10DFD0004AD04ECE56CA5AC85EC603AAC42023A64B
:10DFE00004200F100000B727002083C7979E637896
:10DFF000F500B727002083ABC7A263970B00B7C714
:10E00000004023A6472199A037290020130909A819
:10E01000AE8A032B490083558900B74736FE9387A4
:10E0200007C83E9BB387C5022A84B2898146B3B52F
:10E03000C50213850732B337F50013060064BE9599
:10E04000EFE0016D6370AB0223A644210145B2509D
:10E05000225492540259F249624AD24A424BB24B7C
:10E0600045618280829B83558900AA8413060064DF
:10E07000B38735038146B3B5350313850732B3370C
:10E08000F500BE95EFE0C16883274900AA9463E3D9
:10E09000F4009D8CD6852285313901C904C5B7C7E6
:10E0A000004023A6472105455DB7936504F0C205EE
:10E0B000C18141459720FF1FE780C0F811E9B727CC
:10E0C000002083A787A685DFA2851145829705BF1B
:10E0D00037270020832747A38DE3232AA7A285475C
:10E0E0002326050004C52311550123008500A30044
:10E0F000F5002322050065B7BA87D84775FFC8C762
:10E10000F9BF79714ECEB7C7004006D622D426D2C9
:10E110004AD052CC56CA5AC85EC662C466C26AC0E9
:10E1200083A9C72023A607200F10000025C1414462
:10E130003689B28A2E8AAA84B14C372B0020054D2D
:10E14000130C0003B30B940303274BA75E971C43E8
:10E15000B9EF9375F400B315BD0013554440C205E3
:10E160005686C1811375F50FA93D31C183274BA791
:10E17000DE9784C323A247016304090023008900BA
:10E18000B7C7004023A63721014521A023A6372188
:10E190000945B250225492540259F249624AD24A75
:10E1A000424BB24B224C924C024D45618280050499
:10E1B000E31A84F9B7C7004023A637212145D1BF10
:10E1C000011122CC26CA4AC84EC6B7C7004006CEA7
:10E1D00003A9C7202A84AE89B28423A607200F1082
:10E1E0000000C5332285CE85F1342A8405C5B727C2
:10E1F000002083D587A8130600648146B387950263
:10E20000B3B5950213850732B337F500BE95EFE03D
:10E21000215048C013351400F2406244B7C7004093
:10E2200023A62721D2444249B2490E0505618280C6
:10E23000011122CC4AC84EC6B7C7004006CE26CA36
:10E2400083A9C7202A892E8423A607200F10000047
:10E250009534AA8419C123110500A2854A85813904
:10E26000B727002083C7879E63992701B72700201F
:10E2700003D787A2598C239487A2B7C7004023A64F
:10E280003721014591E01945F2406244D2444249A8
:10E29000B24905618280011126CA4AC8B7C400404C
:10E2A00006CE22CC4EC603A9C42023A604200F10FC
:10E2B00000009307F00263E6A704B1473304F502B8
:10E2C000B729002083A749A7A2979C439DCB9377AA
:10E2D000F5008545B395F500C205C1811181893FDF
:10E2E00083A749A70145A29723A0070023A20700FF
:10E2F00023A62421F2406244D2444249B249056136
:10E300008280B7C7004023A627210945E5B7411100
:10E3100026C206C622C4B7C7004083A4C72023A6CE
:10E3200007200F100000793219E90145B24022445C
:10E33000B7C7004023A69720924441018280B727A7
:10E34000002083A7C7A200458297B72700209387A4
:10E3500007A86368A402D843B74636FE938606C86A
:10E360003305A4403697E372E5FC13070064B33528
:10E37000E50203D6870081463305E502EFE0413927
:10E3800075B7D8433A94C1BF0111680006CE22CCBC
:10E3900026CAEF104147FD576302F504B247E1CBAF
:10E3A000B7270020B72400209384849E138707A8F2
:10E3B00094485843138407A8638DE604B7270020C8
:10E3C00083A7C7A2829732479C486373F700BA8736
:10E3D0003E955C40636FF5021D8D25A8B724002093
:10E3E000372400209384849E130404A89448584042
:10E3F000B727002083A7C7A26390E60882975840FA
:10E40000B74736FE938707C8BA973E956363E50022
:10E41000198D372400209307C4D19C4F1304C4D115
:10E4200099CBB727002083A6C7D83707CDFF7D1724
:10E430009C46F98F9CC609E5B727002003A547A88D
:10E44000B727002083A7C7A5829719E51C4C85C371
:10E45000EF60B148EF60814B1C4C91CBB727002097
:10E4600003A7C7D8B70633001C47D58F1CC7F24097
:10E470006244D2440561828082979C4891BF4111D9
:10E48000B727002006C623AEA7A60295B240B7273D
:10E49000002023A0A7A0014541018280914763E9A4
:10E4A000B700B72700208A05938747A1BE9588C18A
:10E4B0008280B727002023ACA7A611C5B72700206C
:10E4C00005472385E7A28280B727002023AA07A259
:10E4D000B727002023AE07A6B727002023A607A250
:10E4E00037250020B72700204111238507A2514678
:10E4F000B72700208145130545A106C623AC07A612
:10E5000022C426C2372400209720FF1FE78020D78F
:10E510001305849E1306800281459720FF1FE78024
:10E5200000D6EFF06FCEB727002083C7D7A413041F
:10E53000849E854513D527008D8B3E958D473305E9
:10E54000F5029947B724002039051375F50F23010B
:10E55000A4003305F502130505249720FF1FE7806B
:10E5600060AE23AAA4A649C1034624009947814569
:10E570003306F602130606249720FF1FE78020D0FB
:10E5800083A744A703472400B724002093870724C8
:10E590000A0723A8F4A0BA97372700202328F7A258
:10E5A000EFF0AFF03D298347140083A604A137E6BE
:10E5B0000000139727003697130666CD10C3138704
:10E5C00017001377F70F0A0737E600003697130690
:10E5D00086D510C313873700890793F7F70F8A078B
:10E5E000A300E400B69790C3B24022449244410194
:10E5F0008280372700201307879E834717008346B2
:10E60000270063F0D702B726002083A606A1138651
:10E610001700A300C70013972700369708C33E854D
:10E6200082809307F00FE5BF1C41FDCB41777D8FC2
:10E63000B706002089476316D70E0357450075C3F8
:10E64000411126C21946AA849305F00F610506C63A
:10E6500022C49720FF1FE780C0D405478D47630B76
:10E66000E50A9C4491C7D85899474DC7985C5DC34B
:10E67000372400201306C0038145130584A3972087
:10E68000FF1FE780C0BF1306C003A685130584A340
:10E690009720FF1FE78000B8930784A303D7C70024
:10E6A00009E7130700102396E70003C7E70001E717
:10E6B00005472387E70003D7070101E76D47239844
:10E6C000E70003C7F70001E71547A387E70003C783
:10E6D000270101E705472389E70003C7370109E759
:10E6E00003C7F700A389E70003C7470101E75547C0
:10E6F000238AE70003C7640109E71307C003238BDC
:10E70000E7009C5791C78297B72700202398A79EC0
:10E71000653B8147B240224492443E85410182805C
:10E7200089473E85828001114AC837290020832706
:10E7300009A806CE22CC26CA52C456C24EC682971B
:10E74000130A0064B3354503130909A8835A8900E5
:10E750008146568633054503EFD0917BB7270020CD
:10E760001387879E004FAA8401456306940293890C
:10E77000879E33858440636E940003254900568646
:10E780008146B335AA023305AA02EFD07178018D14
:10E79000269523AC9900F2406244D2444249B249E2
:10E7A000224A924A05618280011122CC2E84B7D57B
:10E7B00002000A854146938505B606CEEFE0C12EDC
:10E7C000180806043A94B7270020035504FF83D79E
:10E7D000A7A8F2406244AA9737450F001305052405
:10E7E0003355F50205618280B727002083D7A7A89B
:10E7F00051471D45637CF702794719456378F70255
:10E800001307200315456373F7021307B00411457E
:10E81000637EF700130740060D456379F700130781
:10E82000600909456374F70013B5B70F82800111C1
:10E8300022CC06CE2A842EC6EFF0CFD9B245F240C4
:10E84000818D33A5A502229562441375F50F0561EC
:10E850008280011122CC06CE2A842EC6EFF08FD7FB
:10E86000B245F240818D33A5A5022295624442054E
:10E87000418105618280011122CC06CE2A842EC6F8
:10E88000EFF04FD5B245F240818D33B5A502229508
:10E89000624405618280B7270020138787A3185739
:10E8A0002DC3411122C426C24AC006C6138987A3BC
:10E8B0000297B72700201387879E035787002A8473
:10E8C0009384879E0DCBBA876373A700AA87C2077C
:10E8D000C183BA866373E400A286C206C182958FA3
:10E8E0005147635AF7008327C90291C38297EF60AB
:10E8F000616823948400B240224492440249410159
:10E9000082808280011122CC3724002006CE26CAC4
:10E910004AC8930704A883C7C70081CB0545F240C6
:10E920006244D244424905618280B7240020938723
:10E9300084A3DC57130904A8AA85938484A381C700
:10E940002AC68297B245B5C19C41E9DBDC41F9D7C3
:10E9500083D78500E1D783D7A500E9D341461305C6
:10E9600004A89720FF1FE780E08A032704A8B727A1
:10E97000002023A6E7A283C774018DE30355890015
:10E980009307805737460F003305F5021306062418
:10E9900081468145EFD0D157A38BA40037E5000015
:10E9A00013056572E93C01459DBFB7270020938799
:10E9B000879E23AE0700B70700209387C7722320E6
:10E9C000F4A8B78732007D57938727A12324F90045
:10E9D0002322E90023060900B7C7004023A4E72645
:10E9E00069B7011122CC37240020930784A38847FC
:10E9F00006CE26CA4AC801E90545F2406244D2441F
:10EA0000424905618280130484A35C58F5D7185CE1
:10EA100065D77000854582971844B247E30EF7FC2E
:10EA20000355C4009305E004B72400209710FF1F8E
:10EA3000E78040611387849E08D39384849E4DDDD4
:10EA40000356C4009305F00F01499720FF1FE7808C
:10EA500000838347E4009050634DF900328597109E
:10EA6000FF1FE780206C014523A0040223A20402BB
:10EA700069B78355C4000844185CB38725038981AE
:10EA800005093E9508C20297E9B701114EC6B7299C
:10EA90000020938789A39C4726CA4AC852C406CE41
:10EAA00022CC56C25AC02A8AAE843289638D071E90
:10EAB000938989A303A74903630407121307F01F6F
:10EAC0006362A712372400201307849E832A07025B
:10EAD0001304849E639A0A0803D5C900956593853B
:10EAE00015E09710FF1FE780E05508D02A866DC912
:10EAF00083D5C90083A7490303A58900898182972B
:10EB000083A78900832A04025CD089476316FA0828
:10EB1000C1476397F40C83D5C9009147938505FCE1
:10EB2000B3C5F5028A05D69503C725009307A0054E
:10EB30006314F70A83D705006390470B4A8526863E
:10EB400091059710FF1FE780E06C1C50568563937A
:10EB500057130145F2406244D2444249B249224A25
:10EB6000924A024B056182805850E380E7FA03D550
:10EB7000C9009565938525E09710FF1FE780804CBD
:10EB8000AA8A39CD83D5C9002A8683A7490303A55C
:10EB900089008981829795BF8D47631BFA00C14721
:10EBA0006390F40483D5C900938545FDF199A5BF11
:10EBB00091476318FA006395440383D5C900A115F2
:10EBC000F5B793070010631DFA00A14763EA9700A9
:10EBD00083D5C900C115D9BF1C5056856390570D08
:10EBE00029458DBF9D6A637C5509930A05E0194745
:10EBF000B3CAEA0203D7C900372B0020B38AEA025E
:10EC0000BE9A93078B9EDC53130B8B9E6395570123
:10EC100003240B021DE003D5C9009305E0049710FF
:10EC2000FF1FE78020422A8445DD83D5C90083A7E2
:10EC300049032A8689815685829791451307A00545
:10EC4000898193972500A29783C627006393E604E2
:10EC500083D60700639C460385058A052686A29510
:10EC60004A859710FF1FE780E05A83270B02E38253
:10EC700087EE22859710FF1FE780C04AD9BD216724
:10EC80007917E36FA7F4B30A5541ADB783C53700D1
:10EC900045BF83270B02E38587F422859710FF1F6A
:10ECA000E780404835BFB727002083A587A08DD9CE
:10ECB00091479306A0058983139727002E97034653
:10ECC0002700E31FD6F003560700631C46018507A3
:10ECD0008A072686BE954A859710FF1FE7808053D6
:10ECE0008DBD83473700C1BFB7270020938787A317
:10ECF000984729C3985F1DCF8546631DD5024111F2
:10ED000022C4372400201304849E105006C619CE56
:10ED100083D5C70048508981029708509710FF1F7C
:10ED2000E78040402320040223220402B240224410
:10ED3000410182808280011122CC37240020930778
:10ED400084A356C283AA870026CA4AC84EC606CEE6
:10ED500052C42A89AE84B289130484A3638C0A1C2A
:10ED60001C5C99EB2945F2406244D2444249B249C5
:10ED7000224A924A056182805C58EDD79307F01FC2
:10ED800063E8A70C372A002093078A9E9C53130A36
:10ED90008A9EB9C7084483274A02639FA70489470C
:10EDA0006317F906C147E39FF4FA0355C40091477E
:10EDB000130505FC3345F5029317250003250A02C8
:10EDC0002686CE853E959307A0052301F5002310E6
:10EDD000250111059710FF1FE780C043014561B76A
:10EDE0000355C4009305E0049710FF1FE7808025BA
:10EDF0002320AA0245F1BDB78355C4005C58032601
:10EE00000A02898182971C442322FA0249BF8D4756
:10EE1000631CF900C147E397F4F40355C4001305DC
:10EE200045FD9377C5FF59BF91476318F900E39BF0
:10EE300024F30355C4002115EDB793070010E31325
:10EE4000F9F2A147E3E097F20355C4004115D1BFA1
:10EE50009D676378F506930705E01947B3C7E70296
:10EE60000357C400372A0020B387E702BE9A9307EE
:10EE70008A9E9C53130A8A9EA1CF83274A026395D8
:10EE8000570703250A0291461308A0059305F00FC2
:10EE900093D72600139727002A9703462700631667
:10EEA00006078358070003463700639C2805B3060E
:10EEB000D64063C6960485078A072686CE853E958A
:10EEC00011BF21677917E36FA7E8B307F54049BF82
:10EED0000355C4009305E0049710FF1FE7808016D8
:10EEE0002320AA0259F9BDBD8355C4005C580326EE
:10EEF0000A0289815685829723225A0359B7231023
:10EF0000B70093160601C18261B70356C400B385EA
:10EF100096009105130606FCE3F6C5E4138634005B
:10EF2000719A1106B2962301070123102701A3014C
:10EF3000D70051B7372A002093078A9E9C53130AA3
:10EF40008A9EA9C303250A0291461308A0059305CA
:10EF5000F00F93D72600139727002A970346270020
:10EF60006314060583580700034637006398280199
:10EF7000B306D640E3D196F42310B70093160601EA
:10EF8000C182C1BF0345E4008357C4009305E00478
:10EF90003305F502420541819710FF1FE780800A83
:10EFA0002320AA0245F17DBB0356C4008345E4003B
:10EFB000B385C502338696001106E3E5C5DAB9BF0D
:10EFC0000145828083C705002300F50083D7250013
:10EFD000A300F50083D72500A1832301F50083C793
:10EFE0004500A301F50011458280B727002023A624
:10EFF0000788B727002023A40788828029C14111F0
:10F0000026C206C622C4AA8401458DC52E84B7D562
:10F01000020022854146938505B79710FF1FE780C0
:10F02000601F83C7040005452306F40083C714004E
:10F03000A306F400B240224492444101828001457B
:10F040008280011122CC26CA06CE0947AA843284C6
:10F050006381E50441468147639BC500638FE600F9
:10F060006397B6000DA841478147638EE600F240E2
:10F070006244D2443E85056182808A852285BD3FF7
:10F0800041468A8519A88A85953F41468A85228509
:10F0900031A0E39AB6FC2E86A28526859710FF1F25
:10F0A000E7804028AA87E1B7B727002023A4A788D4
:10F0B0008280B727002023A6A7888280011122CC56
:10F0C0000354650006CE26CA4AC84EC641C08329ED
:10F0D0008500AE842A8803C9090081471317890176
:10F0E000618763550702B147054563FA87045114E8
:10F0F000420403552800418033878900A2864E864A
:10F100008545EFA01013B337A00085077D14135574
:10F110006900420405891379F90341802380F400D2
:10F12000A380A4002381240123928400014719C0F5
:10F130001387190098C409476383E7000145F2402B
:10F140006244D2444249B249056182800545C5BF47
:10F15000C167F917630AF502D94763F7B7020111CE
:10F1600022CC2EC606CE2A84EF70D050B2456368FA
:10F17000B50022856244F24005616F906073F240F1
:10F18000624405450561828005458280C167F917A3
:10F190006314F5006F70104E411106C6EF900060C9
:10F1A00011E15D45B2404101828091476394F502CF
:10F1B000834705002300F600834725000347150019
:10F1C000A207D98F2311F60083473500014523029A
:10F1D000F6008280114582804111814522C426C2F9
:10F1E00006C6AA8405252A8409E9B727002083A733
:10F1F000878881C7F945268582972285B2402244B7
:10F2000092444101828039714ED656D25AD006DEE0
:10F2100022DC26DA4AD852D4AA8A2E8BB28941EF50
:10F2200036C6AD379145EF70B056AA844D492DC909
:10F23000B246054A238034010544630A0B00B685B3
:10F2400013851400029B0505131405014180E20992
:10F2500093D9894163D30902C1455685EF90406235
:10F26000654905E933868400A2852685EFA08041A3
:10F270002A8905E131044204418091472C085685D2
:10F28000231CF10026CE231D8100EF80F06A2A891D
:10F2900001C963070A0026859710FF1FE78080E8F1
:10F2A000F25062544A85D2544259B259225A925A63
:10F2B000025B21618280BA84014AADBF011122CC78
:10F2C00026CA4AC84EC606CE2A893284B689253F48
:10F2D000AA840DE1B727002083A7C78881CF0547FF
:10F2E0006317E40003C4090005041374F40FA28536
:10F2F0004A858297F240624426854249D244B24907
:10F3000005618280AE86B7F500000147054693850A
:10F3100045FC6DB783D705002300F50083D70500B2
:10F32000A183A300F5000945828083D7050023004F
:10F33000F50083D70500A183A300F50083D725003E
:10F340002301F50083D72500A183A301F500114512
:10F35000828083D705002300F50083D70500A183B1
:10F36000A300F50083D725002301F50083D72500EE
:10F37000A183A301F50083C755002302F50083C7CD
:10F380006500A302F50003D58500190542054181FA
:10F39000828083D705002300F50083D70500A18371
:10F3A000A300F5000945828083D705002300F500FE
:10F3B00083D70500A183A300F50083D7250023018F
:10F3C000F50083D72500A183A301F50011458280B4
:10F3D00003D54500060542054181828083D705009B
:10F3E0002300F50083D70500A183A300F50003D512
:10F3F0002500090542054181828083D7050023004D
:10F40000F50083D70500A183A300F50083D725006D
:10F410002301F50083D72500A183A301F50003D5BF
:10F420004500110542054181828083C70500230004
:10F43000F5000545828083D70500411122C406C628
:10F440002300F50083D705002E841105A183A30EA8
:10F45000F5FE83D725009505230FF5FE83D7D5FF4D
:10F46000A183A30FF5FE03C6F5FF9710FF1FE780EA
:10F4700060DA03454400B240224411054101828014
:10F480008947639CF5008347150003470500014544
:10F49000A207D98F2310F60082801145828003D7FE
:10F4A0000500D94763FEE702011122CC06CE2EC625
:10F4B0002A84EF70301CB24683D70600636DF500D6
:10F4C00022856244F240B7F5000001470946938562
:10F4D000453105610DBBF2406244094505618280FA
:10F4E0000945828091479DC583460500FD15C205EB
:10F4F0008547C1816392F60213D725008D89914714
:10F5000091E9914701CB05052301D6002310E600C0
:10F5100048C281473E85828009479147E39CE6FEC9
:10F52000C94733D7F502B3F5F502D1BFAE86B7F5BB
:10F530000000014711469385A532F1B193F73500DC
:10F5400091EB8981914789C52310B60048C2814754
:10F550003E8582809147EDBF03C745008947631A06
:10F56000F702011122CC2A84C84506CEAE86014797
:10F5700019C52EC69D45EFE08FD0B2462A87228559
:10F580006244F240B7F500001946938525350561C0
:10F590009DB90945828099E1114582808347050024
:10F5A00005472311F600E379F7FEFD1593F5F50FF6
:10F5B00033D7F502B387E702E390F5FE050548C2AD
:10F5C0002310E6000145828083C745000947AE86C7
:10F5D0006385E70041476399E700B7F500000147FD
:10F5E00021469385654305B1094582802310B60005
:10F5F00091E1014548C201458280AE86B7F5000021
:10F600000147294693852539FDBE2310B60091E1B7
:10F61000014548C201458280AE86B7F5000001472A
:10F6200031469385853AC5B62310B60091E1014570
:10F6300048C20145828003D74500854763FDE70244
:10F64000011122CC2A84884106CE0DC12EC68545E3
:10F65000EFE0EFC22A8722856244B246F240B7F556
:10F66000000039469385053D056171BEF240624454
:10F670000945056182800945828091479DC5034700
:10F6800005008D46914763F2E602FD15C205C18172
:10F69000B3C6E5023308D7026399050105052310B7
:10F6A000D6002311E60048C281473E85828083C789
:10F6B00045000947AE866385E70041476399E70047
:10F6C000B7F5000001474146938565432DBE0945C6
:10F6D0008280B335B000139525008280011122CCC1
:10F6E00026CA06CE03C785008547AA842E844946CC
:10F6F0006310F702613C8357240049151306200963
:10F7000063C8A700F2406244D24409450561828083
:10F710000347940085476314F700136606044840C6
:10F7200011C58D4532C6EFE08FB53246A2866244E0
:10F73000F2402A872685D244B7F500009385C53D5F
:10F740000561D1B48D4763FFB702834715000347B6
:10F750000500F115A207D98F2310F6008347350065
:10F7600003472500C205A207C181D98F2311F600E6
:10F770002312B60089C5110508C6014582802324DD
:10F780000600E5BF11458280011122CC2A848845FC
:10F7900006CEAE8611C52EC69545EFE04FAEB246F9
:10F7A0002A8722856244F240B7F5000059469385C6
:10F7B000A53F056189BCB335B00013952500828053
:10F7C000AE86B7F50000014761469385A54225BC8A
:10F7D0008547114563F4D702834716008345060029
:10F7E000A207CD8F2310F7009387E6FF2311F700C0
:10F7F00089476386F600090650C3014582802322AB
:10F800000700E5BF0147814679468145EDBA83D7B8
:10F8100005002300F50083D70500A183A300F500B0
:10F820000945828083C7250005472300F50003D5DD
:10F8300005006397E7000A050505420541818280BE
:10F84000C9473305F502CDBF03D505000A054205BA
:10F850004181828083D725002300F50003D5050070
:10F8600083D725003305F5020505420541818280D5
:10F8700003D50500828003D50500828003D50500ED
:10F88000828083D725002300F50003D5050083D7A8
:10F8900025003305F502050542054181828083D7A5
:10F8A00005002300F50083D70500A183A300F50020
:10F8B00083D725002301F50083D72500A183A30169
:10F8C000F50003D54500110542054181828083D7AB
:10F8D00005002300F50083D70500A183A300F500F0
:10F8E00003D52500090542054181828089471145DC
:10F8F000639BF60083471600834606000145A20776
:10F90000D58F2310F700828003D70500D947AE8634
:10F9100063F9E700B705010001470D469385E580CF
:10F9200071BA0945828011456393A6028347160088
:10F93000834606000145A207D58F2310F7008347B1
:10F94000360083462600A207D58F2311F700828058
:10F9500083C725000547FD1793F7F70F6361F70489
:10F9600083D705008DCF011122CC2A84C84106CE51
:10F9700015C12EC68945EFE08F902A872285624403
:10F98000B246F240B70501001546938545820561F0
:10F990006FF0DF92F24062440945056182800945BB
:10F9A00082809547114563F9D706411122C426C2CA
:10F9B0004AC006C683471600BA8403470600A2075A
:10F9C0003284D98F2390F400834736000347260002
:10F9D00093054400A207D98F2391F400894723821D
:10F9E000F40009461385540036899710FF1FE780FD
:10F9F00060829307A9FF2394F4009947631BF900E1
:10FA000023A60400B2402244924402490145410128
:10FA100082801904C0C4FDB7828083D705008DCFD2
:10FA2000011122CC2A84C84106CE15C12EC68545B7
:10FA3000EFE0EF842A8722856244B246F240B705A0
:10FA400001001D469385858405616FF03F87F24074
:10FA50006244094505618280094582809947639522
:10FA6000F6048947411106C62302F70083471600B2
:10FA700083460600B285A207D58F2310F70083477F
:10FA800036008346260003464700A207D58F13059C
:10FA900057002311F70091059700FF1FE78080773B
:10FAA000B240014541018280D14711456394F6007F
:10FAB000C1474DBF828083D705008DCF011122CC75
:10FAC0002A84C84106CE15C12EC68945EFD03FFB1A
:10FAD0002A8722856244B246F240B70501002546D6
:10FAE0009385458505616FF06FFDF24062440945DD
:10FAF000056182800945828089471145639BF60034
:10FB000083471600834606000145A207D58F2310C0
:10FB1000F7008280011122CC2A84C84106CEAE862D
:10FB2000014719C52EC68545EFD07FF5B2462A8715
:10FB300022856244F240B70501002D469385058772
:10FB400005616FF0AFF711456393A6028347160076
:10FB5000834606000145A207D58F2310F70083478F
:10FB6000360083462600A207D58F2311F700828036
:10FB7000011122CC2A84C84106CEAE8611C52EC6FC
:10FB80008545EFD0DFEFB2462A8722856244F240F6
:10FB9000B705010035469385658705616FF00FF263
:10FBA00093F71600114589EB89476387F600858234
:10FBB0002312D70010C301458280011122CC2A8470
:10FBC000C84106CE15C12EC68545EFD05FEB2A870A
:10FBD00022856244B246F240B70501003D46938556
:10FBE000C58705616FF08FEDF240624409450561FC
:10FBF000828083D705008DCF011122CC2A84C84191
:10FC000006CE15C12EC68945EFD07FE72A8722850B
:10FC10006244B246F240B705010045469385258807
:10FC200005616FF0AFE9F2406244094505618280E9
:10FC300009458280854763FCD7022304A700A304FB
:10FC4000B7008347160083450600A207CD8F231017
:10FC5000F7009387E6FF2311F70089476386F600D4
:10FC6000090650C30145828023220700E5BF1145E4
:10FC70008280014781464D4681456FF02FE48D47D4
:10FC8000114563FBD7028347160083450600A20790
:10FC9000CD8F2310F7008347360083452600A20747
:10FCA000CD8F2311F7009387C6FF2312F7006386D9
:10FCB000A600110610C70145828023240700E5BF76
:10FCC000011122CC2A84884506CEAE8611C52EC6E7
:10FCD0009545EFD0DFDAB2462A8722856244F240AA
:10FCE000B70501005D469385E58905616FF00FDD7D
:10FCF000854711456397F6008347060001452300B9
:10FD0000F700828001478146654681456FF00FDB31
:10FD1000011122CC2A84C84106CEAE86014719C5FE
:10FD20002EC68D45EFD0BFD5B2462A8722856244C4
:10FD3000F240B70501006D469385E58C05616FF0D3
:10FD40008FCC011122CC2A84C84106CEAE86014751
:10FD500019C52EC68D45EFD09FD2B2462A8722857F
:10FD60006244F240B705010075469385E58C056154
:10FD70006FF06FC9011106CE2EC6EF80501E01C96B
:10FD8000B245F2400355250005616FC09032F24044
:10FD9000494505618280B7270020A38C078AB727D1
:10FDA0000020238C078AB727002023A0078AB727C3
:10FDB000002023A2078AB727002023A4078AB72799
:10FDC000002023A6078AB727002023AE0788B7277D
:10FDD000002023AC0788B7270020239807AA130622
:10FDE0004038938707AB2391C70271761307400B06
:10FDF000130606B82391E7002392C70211671D4638
:10FE0000930600059305000A1305007D2392E70081
:10FE10002393C70241470546130810F82395E700CE
:10FE20002396E7002399E700239AE700239BE70046
:10FE3000239CE7002394E702239607032393B7004C
:10FE40002394B7002397D7002398D700239DA700BA
:10FE5000239E0700239F0700239007022395C702D4
:10FE6000239707021308F007239807022392E70459
:10FE70002393E704239FE7042390E7062391E706F3
:10FE80002392E706239907031307C01C239AC7028E
:10FE9000239BC702239C0702239D0702239E070280
:10FEA000239F0702239007042391C7042394070488
:10FEB000239507042396C7042397D7042398D704D0
:10FEC0002399A704239A0704239B0704239C070470
:10FED000239DD704239ED7042393A70623940706C4
:10FEE00023950706239607062397B7062398B70698
:10FEF00023990706239AE7067D57239B070623903D
:10FF0000E7088280011126CAAA84214522CC06CEA8
:10FF10002E8432C636C43AC2EFD09FC21DC9A24653
:10FF200012473246930700FD2300F5009947A300CE
:10FF300095002301F5002303D500A303E500231258
:10FF4000C500AA8522856244F240D24405616FD083
:10FF50001FCDF2406244D24405618280B727002061
:10FF600023A4A78A8280B727002023A6A78A82809D
:10FF7000011122CC4AC806CE26CA2A890144B304FC
:10FF800089006368B400F2406244D244424905618A
:10FF900082802EC6EFD01FE493170501C183A18391
:10FFA000B2452380F4009307140093F7F70F8504FC
:10FFB00063F9B700CA9709042380A7001374F40FEC
:10FFC0007DBF3E847DBF411122C43724002013042D
:10FFD00004A903556400C16706C6FD17630FF50049
:10FFE000B727002003C607BDB72500209385058BE2
:10FFF000EF800056FD572313F400B2402244410124
:020000021000EC
:10000000828009C925151375F50F1335850E134523
:10001000150082800145828023900500C9C6797150
:1000200022D426D24ECE52CC5AC806D64AD056CA70
:100030005EC63684328AAE892A8B814463F34407D4
:10004000B307940083C70700138914004209939AE9
:10005000070193DA0A011359090163840A04CA9754
:100060006341FA04B307240183CB07005E85513F47
:100070000DC99387FAFF2390F90063906B03130572
:1000800019002295B250225492540259F249624A00
:10009000D24A424BB24B45618280D694C204C180A1
:1000A00071BF0145C5B701458280011122CC3724BB
:1000B000002026CA4AC84EC6930704A906CE2E8938
:1000C000D0CB8CCBC8C7AA8441469305F00F4A8594
:1000D0009700FF1FE780E02C8549130404A96319EA
:1000E00035030848C145693541469305F00F26851B
:1000F0009700FF1FE780E02A054963152503484460
:100100006244F240D2444249B249C14505618DB5CD
:10011000414681454A859700FF1FE7808028E31507
:1001200035FDC1B74146814526859700FF1FE78011
:100130004027E30625FDF2406244D2444249B249D9
:1001400005618280411122C43724002026C24AC0A2
:10015000AE842A89130600028145130504A906C648
:100160009700FF1FE780A011930704A9A38127012F
:10017000B7270020238A97BCEFC0E075854719C1D7
:10018000814749452308F4A8B240224492440249D9
:1001900041018280814781CD19C98547631BF500E4
:1001A00083C7550093E707FCA382F50085473E858A
:1001B000828089476317F50083C7550093F7F703DB
:1001C000E5B70D478547E314E5FE03C755001377F0
:1001D000F70313670704A382E500D1BF81478DC1F0
:1001E00005C103C755009306000C85471377070C1C
:1001F0006308D700930600048D476303D70089473F
:100200003E858280411122C4005D06C626C21DC8FB
:10021000AA84085009C59700FF1FE780A0F0485046
:1002200009C59700FF1FE780E0EF085409C5970054
:10023000FF1FE78020EF22859700FF1FE78080EEF9
:1002400023AC0402B240224492444101828019E965
:10025000B727002083C727A991C73725002013059A
:100260000589828037250020130585AA8280B7275B
:10027000002003C527A98280B727002003A5C7A9AE
:100280008280B727002003A507AA8280B727002015
:1002900083A747AA88438280B7270020938707A9AE
:1002A000D44B9842050798C203C537009307F00F57
:1002B0006305F50091656FD05FBB8280011122CC90
:1002C00006CE2E8432C6EF80205A9147B245631085
:1002D000F502B727002083A7C78A95C303A30700A9
:1002E000630F030022856244F24005610283B72751
:1002F000002083A7478A81C703A34700D5B7F240F0
:100300006244054505618280011122CC2A8403558F
:10031000450006CE26CA4AC84EC6EF8000333DC906
:100320002A89834405008349C500E93D4A85EF8059
:10033000D01203554400EF80604E37290020130986
:10034000898B83470900B9CB639A9704B7270020AC
:1003500083C5978B2685393C19E123000900035595
:100360004400EF8060509147631FF500B7270020DD
:10037000938707A98356440003D767006395E60077
:100380007D572393E700F2406244D2444249B24988
:100390000561828081499304F00F45B79307F00F00
:1003A000E38FF4FA834664000356440003452400B7
:1003B0004E87A685813E65B779715EC6AA8B2E856C
:1003C00052CC56CA5AC806D622D426D24AD04ECECD
:1003D000AE8A328B368AEF8040277DC1045D2A8940
:1003E000E5C09C50614599C3130540039C5481C7E7
:1003F00051054205418163050A00710542054181AD
:10040000DC5081C7590542054181EFD06FF32A8442
:1004100045C9614681459700FF1FE78040E6B72741
:10042000002083C907AE639409008349090093073C
:1004300000FD2300F400A947A30074012301F40088
:10044000230364018C50231254011305840191C9C4
:1004500008C47146930A44039700FF1FE78080DBBE
:1004600056858C5491C948C45146930A450197005A
:10047000FF1FE78020DA5685630C0A0008C8714622
:10048000D285930AC5019700FF1FE780A0D8568543
:10049000CC5099C548C859469700FF1FE78080D7C0
:1004A000A2854E85EFD0AFF72254B2509254F24954
:1004B000624AD24A424BB24B4A850259456199B3CE
:1004C000B250225492540259F249624AD24A424BE3
:1004D000B24B4561828001114EC6AA892E854AC859
:1004E00006CE22CC26CA2E89EF80201621C9B72736
:1004F000002083C407AE99E0834405001945EFD07E
:100500002FE42A8405CD814519469700FF1FE78017
:1005100000D7930700FD2300F400B947A30034017E
:100520002301F40023122401A2856244F2404249CF
:10053000B2492685D24405616FD06FEEF240624425
:10054000D2444249B2490561828039715ECEAA8B9C
:100550002E8526DA4ED652D456D25AD006DE22DC6A
:100560004AD8AE84328BB68A3A8ABE8942C6EF80B8
:10057000C00D21CD2A894145EFD08FDC2A8431C5B9
:10058000414681459700FF1FE78060CFB7270020D5
:1005900003C507AE19E103450900930700FD2300D9
:1005A000F400BD472301F400B247A30074012312F5
:1005B000940023046401A304540123054401A3050A
:1005C00034015CC4A285EFD08FE5F2506254D2545E
:1005D0004259B259225A925A025BF24B21618280EF
:1005E000797126D2AA8439454AD04ECE06D622D475
:1005F0002EC6B2893689EFD0AFD421C1B245930758
:10060000000D2310F500B1472A842312B500230101
:10061000F500CE85190519469700FF1FE78080BFBA
:1006200023062401A2852254B2500259F24913F53F
:10063000F40F925445616FD08FDEB2502254925421
:100640000259F24945618280411126C2B724002037
:10065000938404A903C7340006C622C44AC0930782
:10066000F00F630CF7042A893945EFD06FCD2A8447
:1006700029C5930700FDB72500202300F500A3003E
:10068000250123010500938585AA0D0519469700CC
:10069000FF1FE78020B883D78400A28503C53400FC
:1006A0002315F40083C714002306F4002244B2404B
:1006B0009244024941016FD08FD6B2402244924405
:1006C00002494101828001115AC02A8B314526CA54
:1006D0004EC652C456C206CE22CC4AC8AE84B28A96
:1006E000368ABA89EFD0CFC53DCD2A842685EF70F2
:1006F000D07511C50347C500A1476314F704B72798
:10070000002003C937A9930700FD2300F4009D478B
:10071000A30064012301F400231294002313540165
:100720002314440123153401A2856244F240D244CB
:10073000B249224A924A024B4A85424905616FD02A
:100740000FCEB727002003C957BDE31E0BFAB7270A
:10075000002083A707959C47DDD7CE865286D68595
:10076000268582974DB7F2406244D2444249B2494D
:10077000224A924A024B05618280011122CC2A84CE
:10078000214506CE2EC6EFD0AFBB21C1B24593079F
:1007900000FD2300F500C5472301F50083C73500A0
:1007A000A301F50083D745002312F50083C7650038
:1007B0002303F50083C77500AA85A303F5002285EE
:1007C0006244F24005616FD08FC5F240624405611A
:1007D0008280397162CC2A8C594526DA4AD84ED6A5
:1007E00052D456D25AD05ECE06DE22DCAE8432C659
:1007F00036C4BA8B3E8BC28A468A835901040349A8
:100800004104EFD0EFB325C93246930700FDA2465D
:100810002300F5009547A301C500A300850123012E
:10082000F5002A8419461105A9C2B6859700FF1F55
:10083000E780409E23066401230A240123157401E6
:10084000231754012318440123193401A28562544B
:10085000F2504259B259225A925A025BF24B624C00
:100860002685D25421616FD08FBB81459700FF1F31
:10087000E780E0A0C1B7F2506254D2544259B25955
:10088000225A925A025BF24B624C216182804111E2
:1008900022C437240020130404A98347240006C679
:1008A00026C28DCBB7240020AA851946138504895A
:1008B0009700FF1FE7800096034524009385048975
:1008C000EFF05F8D2244B2401385048992444101C8
:1008D0006FC02001B2402244924401454101828010
:1008E000411126C2B7240020938704A906C622C45A
:1008F0004AC003C737009307F00F938404A9630429
:10090000F7042A892945EFD0AFA32A840DCD930798
:1009100000FD2300F500A147A30025012301F500F8
:1009200083C72400B725002093850589A301F5001E
:10093000194611059700FF1FE780C08D03C53400DD
:10094000A285EFD0CFAD03C724008D476311F70216
:10095000B727002083A7878A99CB03A38700630862
:1009600003002244B2409244024941010283B24052
:1009700022449244024941018280797122D406D6F0
:1009800026D24AD04ECE52CC56CA09445DCD2A89D1
:1009900003550500AE895144EF70304BAA8455C50C
:1009A00037270020930707BD83C747008546BA8ACB
:1009B000FD1793F7F70F494463F9F6080347C5009D
:1009C000A1476314F700639209089C5C4544B5EFA6
:1009D0009165938545711305C00297F0FE1FE7806E
:1009E000606688DC2A8A4D442DC11306C002814509
:1009F0009700FF1FE780A0888357090093064A00ED
:100A000036852311FA0071469305490036C69700D2
:100A1000FF1FE780208089472300FA0003C5C40038
:100A2000B2460356090083C50ABD6115133515008A
:100A3000EF8010742A8463860900CE852685EF80B6
:100A4000605101C42685EFF0EFFB2285B25022549D
:100A500092540259F249624AD24A45618280B727CC
:100A6000002083C747BD0547FD1793F7F70F637A4B
:100A7000F708894741CA011122CC26CA4AC84EC686
:100A800052C406CEAA89368AB2842E89EF70F03B12
:100A90002A84D14739C9485509C597F0FE1FE78018
:100AA0006068F14526859700FF1FE780E08248D403
:100AB000CD4705CD8346C40021478147639FE600AB
:100AC000630D0A000347A50103560501930625019E
:100AD000AA854E85EF80A04FAA8703474400630F85
:100AE0000900136767002302E400F2406244D24425
:100AF0004249B249224A3E85056182801367470018
:100B0000DDB7C9473E8582809307F00363EBA700FA
:100B1000B7270020938707AB06053E9503550500D0
:100B2000828041657D158280011122CC2A842E8528
:100B300026CA06CEAE84EF7050311DCDB7470F00E8
:100B40009387F723094563E4870281450A85414677
:100B500097F0FE1FE780A072A685231081000A850A
:100B6000418023018100A3010100EF801040F24089
:100B70006244D244056182804945D5BFB727002031
:100B80002389A7BC82806F80D058797152CC2A8A81
:100B9000328522D426D24AD04ECE56CA5AC85EC614
:100BA00006D662C4AE8BB28A368BBA843E89C289BD
:100BB0004684EF70902915C92A8C63140A021377B2
:100BC0004B008347450015CF93E727012302FC0024
:100BD0008DEC631C0902639A090205E8ED9B230270
:100BE000FC00832B8C0363910B08B2502254925467
:100BF0000259F249624AD24A424BB24B224C4561F9
:100C00008280F59B93E70701D1B793E74700230262
:100C1000FC0001CC1C484146A2852324FC0213059C
:100C20008C0197F0FE1FE780E05E63930B02D5D83E
:100C30000325CC0209C597F0FE1FE780A04EF145C1
:100C4000268597F0FE1FE78020692326AC0251BF5E
:100C5000E30909F80325CC0209C597F0FE1FE780D8
:100C6000604CF1454A85F1BF9DC483A70B0299EB07
:100C7000916593853571714597F0FE1FE780803C43
:100C800023A0AB0203A50B0219C57146A68597F0F8
:100C9000FE1FE78020586388090283A74B0299EB67
:100CA000916593852571594597F0FE1FE78080393E
:100CB00023A2AB0203A54B0219C55946CE8597F076
:100CC000FE1FE78020551DC483A78B0299EB916519
:100CD00093851571514597F0FE1FE780A03623A438
:100CE000AB0203A58B0219C55146A28597F0FE1FE2
:100CF000E78040522254B2509254F249B24B224CF7
:100D0000CA865A860259424BD6855285D24A624AD1
:100D100045616FF06FEA011126CA52C406CE22CC9B
:100D20004AC84EC62A8AAE84EF70301225C5AA89F9
:100D30003945EFC0FFE02A8431CDB727002003C931
:100D400007AE6314090003C909009307000D2310BF
:100D5000F400AD472301F4009385690013053400C6
:100D6000194697F0FE1FE780E04A93F7140085804C
:100D700085882306F400A306940023154401A28568
:100D80006244F240D244B249224A4A85424905614E
:100D90006FC0FFE8F2406244D2444249B249224A5D
:100DA0000561828001114EC652C456C206CE22CCC5
:100DB00026CA4AC8AA8A2E8AB289EF7010092DCD98
:100DC0002A891305C002EFC0BFD72A8435C5B727CB
:100DD000002083C407AE99E0834409009307000D07
:100DE0002310F400E9472301F4009305690013057B
:100DF0003400194697F0FE1FE780C041D2852315C5
:100E000054011305C400414697F0FE1FE78080405F
:100E1000CE851305C401414697F0FE1FE780803F51
:100E2000A2856244F2404249B249224A924A26854A
:100E3000D24405616FC0BFDEF2406244D2444249F1
:100E4000B249224A924A05618280411122C4372464
:100E5000002013048489084006C619C597F0FE1FB8
:100E6000E780402C23200400B240224441018280CC
:100E7000011106CE22CC26CA4AC82EC6EF70E07CED
:100E800039CDB245B727002003C907AE0CD5AA84D7
:100E900063140900034905004145EFC07FCA2A8455
:100EA0001DCD9307000D2310F500A5472301F50084
:100EB00083C75400938564001105A30FF5FE1946FE
:100EC00097F0FE1FE78000359C54A285F2405CC479
:100ED0006244D2444A85424905616FC05FD4F24002
:100EE0006244D2444249056182801D71A2CC86CE03
:100EF0002A842EC6EF70607505CD8346C500114764
:100F0000AA8749456392E6029C5FB24599C383C5AF
:100F10006701B7B601002308B100938666911008F7
:100F200089452285EF70D079F6406644256182803C
:100F30005145DDBFB727002083C747BD0547FD17D3
:100F400093F7F70F637AF704894721CA411122C446
:100F500026C24AC006C6B2842E89EF70006F2A846A
:100F6000D14705C5630809008347450093E727007B
:100F70002302F5004146A6851305840197F0FE1F64
:100F8000E78040299C481CD48147B24022449244C7
:100F900002493E8541018280C9473E858280797140
:100FA00022D406D62A842EC6EF70206A01CDB2451F
:100FB0002285230EB1006C08EF705076B250225497
:100FC000456182805145DDBF6F70C07EC167138768
:100FD000E7FF6395E502B727002083A7478A91EBD7
:100FE000494582804945B240224492440249410128
:100FF000828003A30700E30503FE0283411122C49C
:1010000026C24AC006C6FD172A892E84B284639A76
:10101000F502B727002083A7478A91CF9C4381CF51
:10102000829711E9B7270020238C278BB727002050
:10103000A38C978A4DBFA6854A85EFE0BFD345F5BF
:10104000D5B72E85EF70606051DD834705000D45F3
:10105000E39B27F922852244B2400249A6859244A7
:1010600041016FB010059307F00363E2A706411139
:10107000C16722C406C626C2FD172A8409456382B9
:10108000F502C547AE846313F4022E85EFB0F00974
:1010900037250020130505AB06042A94231094007D
:1010A0000145B24022449244410182809307A0034B
:1010B0006316F4002E85EFB09000D9BF9307B003FC
:1010C000E318F4FC13F5F50FEFB0A07FD1B7094595
:1010D0008280011106CE2AC6EFE0FFCBEF10C01BC5
:1010E000EFB02102B7270020938707A9130700F06C
:1010F0002391E70023820700B7270020324513879A
:1011000007BDFD562301D700F2402388A7BC9545B3
:1011100005616F505062597193970501A6D286D62A
:10112000A2D4CAD0CECED2CCD6CADAC8DEC6E2C4E9
:10113000E6C2EAC06EDEC187AE8463DB07503724A7
:101140000020034504BD37290020372A0020EFC0C6
:10115000BFA5AA8C22CEB72A0020B72B00201304EB
:1011600009A9372C002063930C022165258DB65008
:10117000265496540659F649664AD64A464BB64B0B
:10118000264C964C064DF25D6561828083C70C004B
:101190001307200A639CE7008349340003D52C0021
:1011A000C1656686FD15EFF06F919DA2724713072A
:1011B00007BD83492700130710096398E71683C703
:1011C0001C001547639FE7006685EFF0EF93668587
:1011D000EFC03F92F24703C507BDEFC0FF9CAA8C4A
:1011E00059B73947639BE71603D54C008567A507B8
:1011F0006316F50483A58C0003CB0500631D0B006B
:10120000850591C9372500201946130585AA97F051
:10121000FE1FE7802000034709A985476317F710E1
:1012200063080B00230809A85A85EFF0EFC145B702
:1012300089472308F9A8EFB0806A51BF89671387EF
:101240002700631CE50403AB8C0063000B0E83478F
:101250000B0089EF83472B0003471B00A207D98FA0
:101260002314F40083473B00A300F400034709A9BB
:101270008947631CF70A83470B0091C7230809A815
:1012800003450B005DB783451400035584008D476B
:101290002308F9A8EF50304DE5B795076319F5001D
:1012A00083A78C0003C50700EFF08FE30DB7F97734
:1012B0001387A7FF2A9742074183914663F1E6040B
:1012C0009387A7FCAA97C207C18371476371F7028E
:1012D00089671387B7006310E50483A70A8AE38848
:1012E00007EE9C43E685E38407EE829715A0370757
:1012F00000181307F770B357F700858BA9CB832726
:101300008A8AE38607EC9C43E38307EC6685829731
:10131000E31F05EA19A81387C7006311E50283A735
:101320008C0083C70700E38407EA9307F00FE3808C
:10133000F9EAE6854E85EFC09F8E69BDB90763184F
:10134000F50083274C8AE38407E8DC4361BF8967A3
:1013500093871704E303F5F8C9BF3D476399E70492
:1013600003D54C0089671387D700E30CE5FC13878E
:101370009701E308E5FCCD07E319F5FA035764008C
:10138000C167FD17631DF70083274C8AE38107E4DB
:10139000DC43E38E07E20965E6854D05B9B7B7275B
:1013A000002083A7C78AE38407E29C43DDB71307C5
:1013B000E003E39CE7F683C72C0005476398E70E3C
:1013C00083C76C0037270020930D8789E1E783A747
:1013D0000D00D5CF03CB0700A14903C57C00138DB9
:1013E0008C00EA85EFE09FDF83C74C01A383AC004C
:1013F00083D80C0103D8EC0003D74C002A8603C520
:101400003C003EC283D72C01EA86DA853EC0CE87F7
:10141000EFF02FBC83C73C0095E7DD4783D80C0174
:1014200003D8EC0083C67C0083D54C003EC283D732
:101430002C013EC06A87CE8705465A85EF70C05999
:10144000A381AC0083A70D0081C71145EFF0FF9F7A
:10145000138B8B8B03450B00E30B05D6B7270020BE
:1014600083C5978BEFE01F91E30305D683C63C004D
:1014700093071003638AF60003D64C0083450B00E4
:101480004E873685EFE01FA8238C0B8A89B3034B68
:10149000340099B783278A8A034B3400914995DF3A
:1014A000DC4385DF81450145829705BF294763906D
:1014B000E70A83C76C0037270020930D8789A5EFC3
:1014C00083A70D00B5C703CB0700A14903C57C0066
:1014D000138D8C00937725001376150089E7EA8534
:1014E000EFE0DFCF2A8683C70C02A383CC0083D82A
:1014F000CC0103D8AC0103D74C0003C53C003EC26D
:1015000083D7EC01EA86DA853EC0CE87EFF06FAC78
:1015100083C73C0085FBDD4783D8CC0103D8AC01F1
:1015200083C67C0083D54C003EC283D7EC0111B743
:10153000034B340059BF83278A8A034B34009149F7
:10154000D1D7DC43C1D781450145829741B70947CF
:10155000639CE70083A70A8AE38B07C6DC43E38822
:1015600007C666858297A5B12D476398E70083A7D4
:101570000A8AE38E07C49C47DDB70D476397E700EF
:1015800066868D4503D54C0039B919476395E70642
:101590009305610213051031EFA0513F2C10130584
:1015A0002031EFA0B13E03D66C008357810203D5F2
:1015B0004C0063E8C70083D68C000357610263F7D1
:1015C000E60093050002EFB0403511B16374E60008
:1015D0002393EC0063F4D7002394FC0003D7CC00E2
:1015E00083D6AC0003D68C0083D56C0001488147BC
:1015F000EFB06032E9BE1D47E389E7D2314763951A
:10160000E7006686B145BDBF35476398E70083A70D
:101610000A8AE38E07BADC4799B74947639DE7001A
:1016200083278A8AE38307D0DC43E38007D08145A0
:1016300005458297DDB94D47E399E7CE83278A8A2E
:10164000E38507CEDC43E38207CEE6850945D5B7BF
:1016500093F7150089CFB727002083A7078A89C78A
:10166000DC4399C30145829713C5140009B693F76B
:10167000250091CFB727002083A7878A91C7DC4335
:1016800081C781450545829713C52400CDB493F7E2
:1016900045000145E38D07ACB727002083A7C78924
:1016A00037240020130404A991CF85472302F400B6
:1016B000B727002083A7878A91C7DC4381C781456C
:1016C0000545829748442C10EF7090762810EFF073
:1016D0000F9CB727002083D727AD81CF1306006466
:1016E0003386C702B727002003C507BD9145EFC069
:1016F0005F8D13C54400A5BC411122C437240020CE
:101700000325C48906C619C597F0FE1FE78080A18E
:10171000232E0488B2402244410182805971A2D410
:10172000372400208327C48986D6A6D2CAD0CECE3D
:10173000D2CCD6CADAC80545638D070C9305F104EF
:101740001305F041EF90C1059305F1041305F04135
:10175000EF900105B7270020938707A983C72700CB
:101760000347F104B337F00011C389070327C48985
:101770003EDE0345370093054700EFE0BFA1032796
:10178000C4892ADC0D45834527002EDAEFF0CFB758
:101790002AD81145EFF04FB70324C4892AD66545EE
:1017A0000347A400034BB4003AD4EFF0EFB5AA848A
:1017B0006945EFF06FB52A897145EFF0EFB4AA895A
:1017C0006D45EFF06FB42A8A7545EFF0EFB3AA8A42
:1017D0007945EFF06FB3E2046258F2572257B256E0
:1017E0004256D2551375F50F93FAFA0F137AFA0F82
:1017F00093F9F90F1379F90FE1842ACC56CA52C82C
:101800004EC64AC426C25AC0930844000545EFB0EC
:101810008012B650265496540659F649664AD64A5E
:10182000464B65618280011122CC06CE26CA8D47C7
:101830002E846315F50603C73500B7240020E94759
:1018400003D54500938404A96316F70083D7640089
:101850006382A706EF60705F09C583576400231792
:10186000F5000357A4008356840003566400835593
:10187000440003453400EFE01FE50357440083D7DD
:1018800064006309F7008547F2406244D2443E8514
:1018900005618280FD572393F400F5B78967CD0772
:1018A000631DF50083C7250031476385E700454781
:1018B000E39BE7FCEFE02FF1F9B7B1476319F500BF
:1018C000B727002003C557BDEFE03FEB6DBF416771
:1018D0007D178147E31AE5FA83C655004947E3952A
:1018E000E6FA83C5450003552400300023140100A7
:1018F000EF60504249BF411122C437240020834782
:10190000A48B26C206C64AC01307E00FAE846386C6
:10191000E7041307F00F1304A48B6387E702114554
:10192000EFC00FA215C1930700FD2300F500894702
:101930002301F5008547A3009500A301F500AA85C2
:1019400003450400EFC0AFADF9572300F400B240E7
:10195000224492440249410182802A891145EFC004
:101960002F9E75D5930700FD2300F50089472301BD
:10197000F500A3009500A30125012244B72700200C
:10198000B24092440249AA8503C5B78B41016FC09A
:101990000FA979714AD0372900208327C98922D419
:1019A00006D626D24ECE52CC56CA4544D5EFB724E1
:1019B0000020938704BD83C747004944958BCDC75A
:1019C000B72700202E8A9165A38DA78AAA899385BF
:1019D0007571314597E0FE1FE780C066232EA98808
:1019E0004D4459C123003501A30005002946D28585
:1019F000090597F0FE1FE780E0818327C98991469A
:101A000003C7270063EDE60835EB4D472381E70068
:101A100003C72700136707012381E70093057100BF
:101A20001305F041EF80D15783477100F1EBB727E1
:101A3000002003C727A98D476314F70CEFE0DF836D
:101A40002C00EF70F03E2800EFE07FE44545EFF01A
:101A5000AF8B014411C9130600643306C50203C5E8
:101A600004BD9145EFC0EFD52285B2502254925467
:101A70000259F249624AD24A45618280854663141E
:101A8000D700754761B789466314D7004947BDBF82
:101A90008D466314D700414795BF554785BF95468E
:101AA000CA8A630ED70099466316D7000947238177
:101AB000E70031A01D466314C70223810700654576
:101AC000EFF08F849307F007E30AF5F403A7CA89C0
:101AD0008347270093E707042301F70081B72146D6
